:020000040800F2
:20000000803D0020010100089B300008FD2E000899300008411600088DDB00080000000053
:200020000000000000000000000000002D8A0008E91B00080000000067010008598E000896
:200040001B0100081B0100081B0100081B0100081B0100081B0100081B0100081B01000880
:200060001B0100081B0100081B0100081B0100081B0100081B0100081B0100081B01000860
:200080001B0100081B010008DD0900081B0100081B0100081B0100081B0100085D21000814
:2000A0001B0100081B0100081B0100085DD600088DD6000815D7000815D800081B01000821
:2000C0001B0100081B0100081B0100081B0100081B0100081B0100081B0100081B01000800
:2000E0001B0100081B0100081B010008DFF80CD000F034FC00480047B5E80008803D0020B0
:200100000648804706480047FEE7FEE7FEE7FEE7FEE7FEE7FEE7FEE7FEE7FEE77D8E000830
:20012000ED000008EFF3108072B6704780F3108870471D484FF0FF010170002080F309887E
:200140001A48012101701A484FF08051016062B6FEE717484FF080510160704714484FF0B8
:2001600080510160704772B6EFF3098028B1203880E8F00F0F490968086000B50E48804768
:200180005DF804EB0D480E490A78027009480D490A680260106890E8F00F203080F30988BD
:2001A0004EF0040E62B6704722ED00E08F00002004ED00E0A8000020213B00088C000020D9
:2001C0008D000020B0000020D2B201E000F8012B491EFBD270470022F6E710B513460A46C1
:2001E00004461946FFF7F0FF204610BD421E12F8013F002BFBD111F8013B02F8013B002BF7
:20020000F9D17047421C10F8011B0029FBD1801A7047034611F8012B00F8012B002AF9D1FF
:200220001846704730B480EA010202F0004530F0004221F0004015D0A0B1C0F3C753C2F3B6
:20024000C754C2F31601C0F31600E41A41F4000140F400027D34914201D3641C00E0490083
:20026000002C02DA30BC002070474FF400000023914201D3891A034340084FEA4101F7D132
:2002800051B1914202D14FF0004105E002D24FF0010101E06FF0010103EBC450284430BCA0
:2002A00000F0AEBA2DE9FE4F804681EA0300C00F0C46009021F0004123F00045B8EB02004F
:2002C000A94105D24046214690461C460B46024623F00040104304D14046214603B0BDE8DF
:2002E000F08F270DC7F30A00C3F30A510290401A0190402866DAC3F3130040F4801B009821
:20030000924620B10023D2EB030A63EB0B0B01985946C0F14002504600F041FA06460D4658
:2003200050465946019A00F059FA10EB08006141002487EA115284EAE7731A433BD0009A43
:200340003AB3019A012A4FEA075210DC001B61EB02014FF0004202EA0752CDE90042001C28
:2003600041F5801132462B4600F08DFAB6E7001B61EB0201001C41F5801300185B4120187E
:20038000A2F5001747EB030140EAD570B6196D4111E06D084FEA360645EAC0754FEA0752BC
:2003A000001B61EB0201001C41F5801149084FEA30000019514132462B4603B0BDE8F04F0B
:2003C00000F054BA0098012240000023D0EB020263EBE073009821464FEAE074B8EB000072
:2003E00061EB0401E9E783F000435BE781F0004158E72DE9FE4F81EA030404F0004421F0D5
:20040000004100944FF0000B23F0004350EA010402D052EA030404D10020014603B0BDE87F
:20042000F08FC3F30A54C1F30A552C44A4F2F3340194A0FB0254C1F3130141F48011C3F31F
:20044000130343F4801301FB024400FB034E840A970A44EA815447EA8357A4FB076802954C
:200460008D0A05FB07854FEA932C04FB0C542705029D4FEA065847EA1637B5EB08056EEB1C
:20048000070C870E920E47EA811742EA8312A7FB0201B6EB0B0164EB00042B0D43EA0C3341
:2004A0005E1844EB1C50DA465146E7FB0201C5F313044FEA0B3343EA14534FEA0432019CA9
:2004C00043EA0603A4F10C040294009CCDE900B400F0D9F9A2E72DE9F04D81EA030404F0A1
:2004E000004B21F0004514464FF0000A23F0004150EA050220D054EA01021DD0C5F30A57EC
:200500000246C5F31303C1F31300C1F30A5640F4801543F48013A7EB0608101BD64608F276
:20052000FD3873EB050002D308F1010801E092185B41B8F1000F03DA00200146BDE8F08D07
:2005400000204FF48011064684460EE0171B73EB050705D3121B63EB050306434CEA010C20
:2005600049084FEA300092185B4150EA0107EDD152EA030012D082EA040083EA050108432C
:2005800003D100224FF0004308E0101BAB4102D20122002302E06FF0010253101AEB060018
:2005A0004CEB085110EB0A0041EB0B01BDE8F04D00F05CB970B521F0004303430CD0C1F338
:2005C0000A550024D5EB040564EB0403D617AD1AB34102DB0020014670BD201841EB0251A9
:2005E00070BD96230022114600F013B90EB5C10F80EAE0700844CA07002140F233438DE838
:200600000E000A460B4600F03EF903B000BD0EB540F2334102910021CDE900110A460B460F
:2006200000F031F903B000BD70B5C1F30A5201F000450024C1F3130140F2FF3341F48011AF
:200640009A4201DA002070BD40F233439A42A2F2334203DC524200F0B1F800E090402C43DE
:20066000F1D0404270BDC1F30A5210B5C1F3130140F2FF3341F480119A4201DA002010BD9F
:2006800040F233439A42A2F2334203DC524200F095F810BD904010BD00F0004230F00040E1
:2006A0000AD0C10D01F56071C0F3160042EA0151C20840071143704700200146704700004A
:2006C00030B5002904DB4FF00044404264EB0101002B04DB4FF00044524264EB03038B4294
:2006E00008BF824230BD000030B5002904DB4FF00044404264EB0101002B04DB4FF00044B2
:20070000524264EB0303994208BF904230BD000030B50B46014600202022012409E021FA87
:2007200002F59D4205D303FA02F5491B04FA02F52844151EA2F10102F1DC30BD2DE9F05F6A
:200740000546002092469B4688460646814640241BE0284641464746224600F02FF853469B
:200760005A46C01A914110D311461846224600F016F82D1A67EB01084F462246012000214E
:2007800000F00DF817EB00094E41201EA4F10104DFDC484631462A464346BDE8F09F202ABB
:2007A00004DB203A00FA02F1002070479140C2F1200320FA03F3194390407047202A04DB79
:2007C000203A21FA02F00021704721FA02F3D040C2F120029140084319467047202A06DB88
:2007E000CB17203A41FA02F043EAE07306E041FA02F3D040C2F120029140084319467047E3
:200800000029A8BF7047401C490008BF20F00100704710B4B0FA80FC00FA0CF050EA01043E
:2008200004BF10BC704749B1CCF1200421FA04F411FA0CF118BF012121430843A3EB0C0139
:20084000CB1D0106000A002BBEBF002010BC704700EBC35010440029A4BF10BC7047401C97
:20086000490008BF20F0010010BC704710B5002B08DA401C41F1000192185B411A4301D1FE
:2008800020F0010010BD2DE9F04D92469B4611B1B1FA81F202E0B0FA80F220329046FFF772
:2008A0007EFF04460F4640EA0A0041EA0B0153465A46084303D120463946BDE8F08D1146FB
:2008C00053EA010015D0C8F140025046FFF776FF05460E46504659464246FFF760FF0843FD
:2008E00001D0012000E00020054346EAE0762C4337430A984FEA4453A0EB08004FEAD42419
:200900000A304FF0000244EA47544FEAD72502D500200146D1E7010510196941DDE908457C
:2009200000196941BDE8F04DA0E7C1F30A52C1F3130140F2FF3341F480119A4202DA0020B1
:200940000146704740F233439A42A2F2334202DC5242FFF733BFFFF722BF0000064C074D35
:2009600006E0E06840F0010394E8070098471034AC42F6D3FFF7BEFB20B9010840B9010825
:2009800070B501EB020410F8015B15F0070301D110F8013B2A1106D110F8012B03E010F886
:2009A000016B01F8016B5B1EF9D12B0705D40023521E0FD401F8013BFAE710F8013B02F155
:2009C0000202A1EB030303E013F8015B01F8015B521EF9D5A142D6D3002070BD2DE9F0477E
:2009E0007E496FF0020008607C480830016841F4A00101607A4C7C4D204694F80280D0E90F
:200A00000421C3780127DFF8DC91491C288800264FF4006CB8F1000F19D0604504D9A2F566
:200A200000620244C4E90421012B21D0B0F5106F00D3E7702078DFF8B491DFF8B4A10128C8
:200A40002DD06C4890F82C00012828D09CE0604504D2121A02F50062C4E90421012B03D0C3
:200A6000B0F5E06FE5D3E5E76045E3D9A77002E06045DFD2A670E670002008F0D1F9D4E943
:200A80000401B0FBF1F12079092829F810106661266102D2401C2071CCE72671CAE76078D7
:200AA000012871D1544994F806806888544B21F8180052496279A888524F21F81200E17990
:200AC000E888B8F1630F23F81100A07A2B8927F810304D4F94F808C06B8927F81C3004D20D
:200AE00008F1010884F8068000E0A671632A02D2521C627100E06671632902D2491CE1718B
:200B000000E0E671072802D2401CA07200E0A672BCF1630F04D20CF1010C84F808C000E012
:200B200026723A480178012902D0022903D02BE00221017028E006700020524605EB400122
:200B40008B89617A22F81130491CC9B26172082900D36672401CC0B20228EFD3298AA9F8AE
:200B60000010698AA9F80210A98AA9F80410E98AA9F80610298BA9F808102548698BA9F83E
:200B80000A10006802F080FD22480078002823D14FEA0A0205EB40018B89617A22F81130A6
:200BA000491CC9B26172082900D36672401CC0B20228EFD3298AA9F80010698AA9F80210E2
:200BC000A98AA9F80410E98AA9F80610298BA9F80810698BA9F80A10BDE8F0870024014066
:200BE00020000020FC030020880100204404002034040020B81F00206C0200203403002051
:200C0000A4010020240400205C04002004000020EC0000202825002010B5134C8CB0002129
:200C2000204600F0E0FE204600F0E8FE0F4800900F480021CDE901010E20CDE903018020A5
:200C4000059040000690800007902020CDE908010A916946204600F046FF0121204600F0B6
:200C6000C2FE0CB010BD0000080002404C240140880100200029816802D041F0010101E08F
:200C800021F00101816070470029816802D041F4807101E021F480718160704701460020B9
:200CA0008968490700D501207047014600208968090700D501207047002A4268C9B201D011
:200CC0000A4300E08A4342607047000010B542680E4B0C791A400B6842EA0422134343605C
:200CE00083680B4A1340D1E9024222434C7943EA44031A438260C26A097C22F47002491EE6
:200D0000C9B242EA0151C16210BD0000FFFEF0FFFDF7F1FF70B5072409290AD9C568A1F1F6
:200D20000A0606EB4606B440A543B3401D43C56007E0056901EB4106B440A543B3401D435B
:200D400005611F23072A09D2446B521E02EB820293409C4391400C43446370BD0D2A09D297
:200D6000046BD21F02EB820293409C4391400C43046370BDC46A0D3A02EB820293409C43A4
:200D800091400C43C46270BD816841F00801816070470029816802D041F4A00101E021F475
:200DA000A00181607047816841F004018160704705490028086802D040F4000001E020F462
:200DC00000000860704700000824014010B58021154801F071FF15490023012821D1487906
:200DE00064281ED2401CC0B24871032818D1104890F88103032813D10E4A107C012806D185
:200E000002201074062007F013FE82F82230107C002805D042F8043F01205360107750770A
:200E200010BD4B7110BD0000000801400C00002056250020282500202DE9FC5F002002F05C
:200E4000A7FB67490860002002F0A2FB6549086000F0F8F903F0AAFB63484FF4FA6B41689E
:200E6000B1FBFBF0B0F1807F0CD220F07F414FF0E020491E41615D4AF02111700021816109
:200E80000721016107F0EEFE08F076F84FF4C87002F048FE0DF027FB00F014FD04F044FC78
:200EA00009F0D2FE5248DFF84C91012590F82200012801D189F80B504F48504E90F8921312
:200EC000012900D1B57590F89E0330740024DFF830A141F6573845E04FF47A77BC4209D15D
:200EE00048480188AAF80010012002F01BFE40F2E934F3E75C4505D14248801C0188AAF80A
:200F0000021018E0A4F53060B83808D13D48001D0188AAF80410012002F004FE15E0B4F541
:200F20007A6F0CD0A4F5985088380ED1354808300188AAF80810012002F0F4FD12E0314865
:200F4000801D0188AAF80610F5E7A4F5B850703808D12C480A300188AAF80A10012002F0AF
:200F6000E1FD641C641C4445B6D3002002F072F9254C264F2060398802F0D4FA7988206894
:200F800002F0D0FA042201A9684601F09FF909231F4A00211F4802F0D5FB04F0A7FD0AF01D
:200FA0003BF84FF4C87002F0BDFD03F025FB00F0A3FC142002F0B6FD142002F0B3FD142052
:200FC00002F0B0FD03F084FD142002F0ABFD89F800503570FF2002F049FCBDE8FC9F000024
:200FE000E4000020EC0000207401002023ED00E030200020B81F00205625002028250020ED
:2010000050040020E8F7FF1F4C0100201C00002020110020E58D000870477047704770470F
:20102000704770470A4910B50878142802D2401C087007E00020087007F0BEFD07F046FF59
:2010400002F0F8FF07F02CFEBDE8104007F0B4BF0000002010B5012003F02CF9BDE8104014
:20106000002003F027B900000248008800F07F00704700002C6C004008B5024908440090C9
:20108000008808BD006C0040034A118821F07F0101431180704700002C6C004008B5024A73
:2010A00010440090016008BD006C004030B587B0002003F00DF8FFF7AFFD00214FF46020C0
:2010C000CDE9020101248DF804400E20484D00918DF805108DF8100069462846FFF7F6FDE0
:2010E0000523012204212846FFF714FE0523022201212846FFF70EFE052303220021284650
:20110000FFF708FE0523042210212846FFF702FE05231A4619462846FFF7FCFD052306225C
:2011200009212846FFF7F6FD0523072208212846FFF7F0FD0822052311462846FFF7EAFD6F
:201140000723092206212846FFF7E4FD07230A2206212846FFF7DEFD05230B220621284628
:20116000FFF7D8FD05230C2206212846FFF7D2FD05230D2206212846FFF7CCFD05230E22F1
:2011800006212846FFF7C6FD0120FFF711FE01212846FFF779FD01224FF408712846FFF79C
:2011A0008BFD01212846FFF765FD2846FFF7ECFD2846FFF77AFD0028FAD12846FFF7F3FD50
:2011C0002846FFF76BFD0028FAD112208DF814008DF815408DF816408DF8174005A801F056
:2011E0005DFF01212846FFF7D4FD07B030BD0000002401403EB5802000F0CAFF072100209F
:2012000001F0CAFC8020002400908DF8044010208DF8050001258DF80650684600F0CEFFD4
:201220004FF4A06001F06CFF17208DF808008DF809400A208DF80A008DF80B5002A801F049
:201240002DFF3EBD10B50A4803F042F802F056FF01F056FBFFF72AFF00F0BEF800F086F867
:2012600000F030F900F006F8BDE81040FFF7C2BF74010020F0B50121CE028DB0304603F029
:201280000DF842F21070ADF8240036484CF2503100248068344FB0FBF1F0401EADF8200051
:2012A000ADF82640ADF8224008A938460CF020FC42F20470ADF80040ADF80600ADF80240B6
:2012C000ADF80840694638460CF01CFB6020ADF800000125ADF80C406802ADF80440ADF8AD
:2012E0000840ADF80E00ADF80250ADF80640ADF80A40694638460CF0C3FBADF81060A8027C
:20130000ADF81200ADF814401E20ADF81600A803ADF81840ADF81C00ADF81A4004A9384691
:201320000CF0ACFA012138460CF0B9FA012138460CF0C9FA0122022138460CF0DBFA1B208D
:201340008DF82C008DF82D5002208DF82E008DF82F500BA801F0A2FE012138460CF0A9FA7E
:201360000DB0F0BD74010020002C01401FB540F6B830ADF8040017484FF47A714FF08044D6
:201380000068B0FBF1F0401EADF800000020ADF80600ADF80200694620460CF0A9FB01220C
:2013A000114620460CF0A6FA4FF6FE7020821C208DF80C0001208DF80D0002218DF80E1039
:2013C0008DF80F0003A801F069FE012120460CF070FA1FBD7401002030B589B04FF6FF7045
:2013E000ADF814003448354900240068344DB0FBF1F0401EADF81000ADF81640ADF812409C
:2014000004A928460CF074FBADF80040ADF80240ADF80640ADF80840694628460CF072FA1D
:20142000ADF80040ADF80240ADF80640ADF80840694628460CF0A6FAADF80040ADF8024083
:20144000ADF80640ADF80840694628460CF0DAFAADF80040ADF80240ADF80640ADF8084023
:20146000694628460CF00CFB0122022128460CF041FA0122042128460CF03CFA012208212D
:2014800028460CF037FA0122102128460CF032FA1D208DF81C0001218DF81D1002208DF86E
:2014A0001E008DF81F1007A801F0F8FD012128460CF0FFF909B030BD7401002000093D00C0
:2014C0000004004070B588B06320ADF814002F4841F27071002400682D4EB0FBF1F0401EB3
:2014E000ADF81000ADF81640ADF8124004A930460CF0FEFA6020ADF8000064200125ADF8BA
:201500000600ADF80250ADF80840694630460CF0F9F95F20ADF80040ADF80600ADF80240D8
:20152000ADF80840694630460CF02CFA0A20ADF80040ADF80600ADF80240ADF8084069463A
:2015400030460CF05FFA0122042130460CF0D2F90122082130460CF0CDF9012211463046C7
:201560000CF0C8F91E208DF81C008DF81D5002208DF81E008DF81F5007A801F08FFD0121D6
:2015800030460CF096F908B070BD000074010020000800402DE9F04124484FF4807100257C
:2015A00090F82900224A8F01224E234C4FF4004801282CD1207850B300EBC00303EB0010A7
:2015C0001E4B03EB40006378C05C0028104610D001F079FB3946304601F075FB4146304667
:2015E00001F071FB607831280ED2401C6070BDE8F08101F06AFB3946304601F066FB414617
:20160000304601F062FBEDE765702570EFE765702570104601F059FB3946304601F055FBB7
:2016200041463046BDE8F04101F04FBB3020002000080140000C01400C0000201CED000899
:20164000FEE7484000D00120704700214FF080400CF02FB9484000D001207047484001D0E8
:20166000002070470120704730B51A4D044693B00021284600F0B7F9284600F0BFF916483F
:2016800000900BA8019000201021CDE902014021049180210591490006918900CDE9071009
:2016A000099008010A906946284600F01CFA0121284600F098F9142002F034FAADF8484039
:2016C000200CADF84A0020210BA801F09DFB13B030BD00006C000240A0F6000830B51A4D2A
:2016E000044693B00021284600F07DF9284600F085F9164800900BA80021CDE901011020E2
:2017000003904020049080200590400006908000CDE907010001CDE909106946284600F01C
:20172000E2F90121284600F05EF9142002F0FAF9200CADF84A00ADF8484020210BA801F0B1
:2017400063FB13B030BD00006C000240E0F600081FB5274D01F0CCFB0290042203A902A8E1
:2017600000F0B4FD234C002602960399E06A01F0F9FD039601AA0021206B01F08BFD9DF8D0
:201780000410F1B100F031FA1A4F1B4E42F210784C374FF4FA690098411BA1F5885106391F
:2017A000E06A01F0DFFD01AA4146206B01F072FD9DF80410A1B100F018FA484602F0B2F9CD
:2017C000E9E70E4A00900DEB02000121064600F02DFC00900121304600F028FC0090D3E74A
:2017E00000993144FFF72DFF57F820008047E4E77A080611F0000020243557FFE7DBD1FECF
:201800001FB500262B4D009601F03CFC0290042203A902A800F05AFD274C02960399206B10
:2018200001F0A0FD039601AA0021E06A01F032FD9DF80410F1B100F0D8F900BF1E4F1F4EA6
:2018400042F210784C374FF4FA690098411BA1F25241206B01F086FD01AA4146E06A01F01D
:2018600019FD9DF80410E9B100F0BFF9484602F059F9EAE70646FFF7F7FEADF80000304672
:20188000FFF72CFF0E4AADF802000DEB02000121064600F0CBFB00900121304600F0C6FB31
:2018A0000090CBE700993144FFF7CBFE57F820008047DBE78AC6A800F000002080E6F9EECC
:2018C000E7DBD1FE10B5002001F0C4FC094C2060002001F0BFFC6060002001F0BBFCA060B8
:2018E000002001F0B7FCE06001F00AFBBDE8104002F066BF50010020F8B5134E00254FF4FB
:20190000FA676C1E6A463946306801F0C3FC9DF80010A9B100F094F96A463946706801F0F1
:20192000B9FC9DF8001069B100F08AF921462846FFF790FE0449143151F820008047F8BDF0
:201940000546E9E70446F1E750010020F8B5134E00254FF4FA676C1E6A463946B06801F040
:2019600099FC9DF80010A9B100F06AF96A463946F06801F08FFC9DF8001069B100F060F975
:2019800021462846FFF76AFE04491C3151F820008047F8BD0546E9E70446F1E750010020E7
:2019A0007047000010B50523064A0021064801F0C9FE0623BDE81040044A0021044801F042
:2019C000C1BE000020080020A55F0008200B00205DB3000810B50A2006F09CFBBDE8104060
:2019E0000B200BF009BA0029016802D041F0010102E04FF6FE7211400160704701684FF6B9
:201A0000FE72114001600021016041608160C1603149314A0839904203D1486840F00F00B4
:201A200006E02D4A1432904204D1486840F0F00048607047284A2832904203D1486840F4D7
:201A40007060F5E7244A3C32904203D1486840F47040EDE7204A5032904203D1486840F47A
:201A60007020E5E71C4A6432904203D1486840F47000DDE7184A7832904203D1486840F0BE
:201A80007060D5E7154A111F904203D1086840F00F0006E0114A1432904204D1086840F008
:201AA000F000086070470D4A2832904203D1086840F47060F5E7094A3C32904203D1086899
:201AC00040F47040EDE7054A50329042EAD1086840F47020E5E70000080002400804024058
:201AE000406880B2704730B5036847F6F07293430C6A8A682243D1E904452C4322438C69F7
:201B00002243CC6922434C6A22438C6A22431A430260CA6842600A6882604968C16030BDAA
:201B20002DE9F0412D4A40F26D1110899379A0F2DD70414301EB9001002B4CD0C31700EBA6
:201B4000937323F00303C01A134603285C781B784FF0000010D0224D4FF4B67615F8107017
:201B60009F4204D105EB40077F78A74219D0401C80B2B042F2D917E01A4D4FF4B77600BFD7
:201B800015F810709F4204D105EB40077F78A74204D0401C80B2B042F2D305E0B04202D326
:201BA00002E0B04200D80144D0784FF4616358431379C3EB031300EB83005379184440F232
:201BC000A323594300EBC110D06002F0A5FDBDE8F04102F0CDBDBDE8F08100003800002063
:201BE000CAEF0008A4F20008704710B5052001F03DFE0A2001F03AFE062001F037FEBDE875
:201C000010400B2001F032BE30B54FF0E0240022A169094B094D5B68B3FBF5F34343A06982
:201C2000884201D2114402E06569114429440A1A01469A42F3D330BD7401002040420F0020
:201C400010B5FEF76FFA0446042001F00FFE062001F00CFE052001F009FE0F2001F006FE93
:201C60000B2001F003FE0A2001F000FE092001F0FDFD102001F0FAFD112001F0F7FD1220BA
:201C800001F0F4FD132001F0F1FD142001F0EEFD2046BDE81040FEF749BA000008B504200C
:201CA000ADF8000003208DF8020028208DF803006946024800F084FF08BD0000000801408B
:201CC0002DE9F04F474F8DB00C460646022905D2491CFFF7F5FF0DB0BDE8F08FDFF80881AC
:201CE0000125002140460B95FFF77DFE4046FFF785FE4FF010093D48CDE9029500900BA89A
:201D0000019000254FF4007A0495CDE9055A4FF40060CDE907054FF4804BCDE9095B694666
:201D20004046FFF7E0FE01214046FFF75CFE0A2001F0F8FEA846D14642F210702A4D4FF4CD
:201D4000006A074400212846FFF74DFE2846FFF755FE10200097CDE901600220039005A906
:201D60004046CDF81080A1E80106CDF82080CDE9098B69462846FFF7B6FE01212846FFF7FC
:201D800032FE2846FFF7ACFE0028FAD10A2001F0C9FE641ED6D100212846FFF724FE2846F2
:201DA000FFF72CFE0121CDE9028105A94046CDF81080A1E80106CDF82080CDE9098BCDE92A
:201DC000007669462846FFF78EFE01212846FFF70AFE2846FFF784FE0028FAD10A2001F06C
:201DE000A1FE78E7F0080240580002400830024070B51F4A05468EB0D2E90102CDE90B02FF
:201E00001C4C022909D20BA850F82100491C281AC9B2FFF7EDFF0EB070BD174E002130464D
:201E2000FFF7E1FD3046FFF7E9FD1448A4F5C054683C2844CDE9004000200221CDE9020171
:201E40004021049180210591490006918900CDE90710099008010A9069463046FFF743FE87
:201E600001213046FFF7BFFD142001F05BFED2E714B901087CD101081C00024029481500D1
:201E80002DE9F04F5F4D60488DB02F1801200B905E4E00215E48FFF7A6FD5D48FFF7AEFD07
:201EA0005C4800900BA84FF01009CDE9010901200024CDE9030405A84FF400784FF4006A0C
:201EC000A0E810054FF4804B0894CDE9094B69464F48FFF708FE01214D48FFF784FD0A2017
:201EE00001F020FE4C484D49281A084480080B9000214748FFF777FD4548FFF77FFD454852
:201F000003A9083800904FF00060CDE901090B984FF08009CDF81880A1E81102CDE907A421
:201F2000CDE9094B69463A48FFF7DDFD01213848FFF759FD364D2846FFF7D2FD0028FAD1FF
:201F40000A2001F0EFFD0B9847F6FF71081A0B9000212846FFF747FD2846FFF74FFD30487C
:201F600003A906442F483844CDE90060102002900B98CDF81880A1E81102CDE907A4CDE9ED
:201F8000094B5746D94669462846FFF7ACFD01212846FFF728FD2846FFF7A2FD0028FAD1D4
:201FA0000A2001F0BFFD2048002168440B902846FFF719FD2846FFF721FD0B98009600F550
:201FC000BA306530CDE901040120CDE90304CDE90548CDE90774CDE9094969462846FFF79A
:201FE00082FD01212846FFF7FEFC2846FFF778FD0028FAD10A2001F095FD0C980DB0BDE863
:020000040800F2
:20200000F08F000014B90108BA7CEDFE6865F33F5800024008300240DFFCA806DFFCA8FE2D
:2020200098CA0E004A831201CB8BFEFF2DE9F34F8DB0454EFEF776F80125CDE90B50434CAC
:2020400000212046FFF7CFFC2046FFF7D7FC404800900BA84FF01009CDE901094FF0000ADD
:20206000CDE9035A4FF4007BE514CDE905ABCDE9075A4FF48048CDE909A85F4669462046ED
:20208000FFF731FD01212046FFF7ADFC0A2001F049FD00212046FFF7A6FC2046FFF7AEFC6F
:2020A0002B482C49083800900D980844CDE901090B980390002004908020CDE9050700204B
:2020C000CDE90750CDE9090869462046FFF70BFD01212046FFF787FC2046FFF701FD002896
:2020E000FAD10A2001F01EFD574600212046CDF82CA0FFF778FC2046FFF780FC16486946DB
:20210000304400900BA8CDE901070120CDE90307CDE9057BCDE90757CDE909782046FFF78C
:20212000E2FC01212046FFF75EFC2046FFF7D8FC0028FAD10A2001F0F5FC0C98FDF7F6FF2D
:202140000B980FB0BDE8F08F6865F33F6C0002400830024019242E0198CA0E0008B5802099
:2021600000F01CF820B1802000F012F806F0FEFC17208DF8000000208DF801000A218DF8EE
:2021800002108DF80300684600F088FF08BD0000014908607047000014040140064A014662
:2021A00000201268044B0A4014331B680B4202D0002A00D0012070470004014030B51A49A4
:2021C0008379026853B30B6893430B600A1D13680468A343136002790A4413680468234362
:2021E0001360114A083213680468A3431360131D1C680568AC431C604479102C05D02144D8
:202200000A68006802430A6030BD1168046821431160196800680143196030BD0079084436
:2022200001689143016030BD0004014008B50420ADF8000003208DF8020010208DF80300E6
:202240006946024800F0BCFC08BD00000008014008B517208DF8000000208DF801000A2086
:202260008DF8020001208DF80300684600F016FF08BD000008B50820ADF8000003208DF884
:20228000020010208DF803006946024800F098FC08BD00000008014010B500F005F8BDE8A2
:2022A0001040FFF7E7BF000008B54FF40060ADF8000003208DF8020018208DF80300694614
:2022C000014800F07DFC08BD000801402DE9F0418CB015460E460746FDF724FF174C80467F
:2022E00000212046FFF77FFB2046FFF787FB1020CDE902054020049080200590002006903D
:202300000790089009904FF480400A9069462046CDE90067FFF7E7FB01212046FFF763FB72
:202320002046FFF7DDFB0028FAD1012001F0FAFB4046FDF7FBFE0CB0BDE8F0816C0002407C
:2023400030B5034600200246074C0AE013F8015B521C85EA102592B234F8155085EA0020CD
:2023600080B28A42F2D330BD14B50108F8B52F4C042504F15406207838B96A460121E06997
:2023800000F088FF9DF8001019B12078012803D00AE00121217060606A460121A06A00F09A
:2023A00079FF9DF8001019B12078022803D00AE00221217020616A460121206A00F06AFFCD
:2023C0009DF8001019B12078032803D00AE003212170A0606A460121606A00F05BFF9DF8DE
:2023E000001091B12078042811D005280CD1E1680F4AA068A1F514513739104402F0CCFBBA
:2024000056F8200080472570F8BD2570E0600949206901446068A0F51540273802F0BCFB8E
:2024200056F82000804705202070E0E7F0000020E7DBD1FEEDEE7FE62DE9F04FDFF840811D
:20244000002489B02546A8F8144008F0C5FC08F12E0A4FF010039AF89A030095C0B149A264
:202460000021084608F03AFCA94607234AA203210820009508F00CFC00202A2706AD2F5432
:20248000401CC0B20428FAD300264FF0200B04E043A2E5E70026B44206D1A85D0A2803D251
:2024A00030308DF8040001E08DF80470B44201D1012000E0002000900BEB0610C0B201233E
:2024C00001AA032108F0E4FB761CF6B2042EE2D3384807AA4FF4FA61006800F0B7FF9DF8C3
:2024E0001C1041B1B8F81410B1F5967F45D2491CA8F81410CEE74946A8F8149001280AD064
:2025000004282CD0082831D06FF400414018C1D109B0BDE8F08F032C02D2641CE4B2B9E73E
:202520009AF895139DF818205046914225D190F896139DF8192091421FD190F897139DF8AC
:202540001A20914219D19AF898039DF81B10884213D188F81690C8F817900120D8E7285DF7
:20256000092801D2401C06E0295593E7285D401E092800D3092028558CE70020C8E700004E
:202580002825002020456E7465722050617373776F726420000000005B20202020205D00C5
:2025A000202020C7EBCAE4C8EBC3DCC2EB202020000000008000002090B0044640F68770A5
:2025C00000250F9008F008FC734800264FF0100390F89A030096002840D070A203210020BF
:2025E00008F07CFB03F066F9A2B271A104A80BF0CFFAB246082304AA00212020009603F089
:20260000DBF8220C6DA104A80BF0C2FA082304AA02212020009603F0CFF808236AA2042160
:202620002020009603F0C8F808236CA206212020009603F0C1F800202A2109AC89462154CB
:20264000401CC0B20828F9D304274FF0400B0026D846A05D0A2803D2303004E064A2BDE7C5
:20266000102803D237308DF8100001E08DF81090B54201D1012000E000200090B00807EB27
:20268000400106F0030208EBC200012304AA03F093F8761CF6B2082EDBD35A480EAA4FF43E
:2026A000FA61006800F0D2FE9DF838100029CED1554956460128A1F809A00AD0042863D014
:2026C0000828C4D1605D401E0F2800D30F206055BDE7072D02D26D1CEDB2B8E7002002A9EE
:2026E0004FF6FF7821F8106014F8202008EA023304EB800221F8103092F801C003EB0C23F0
:2027000021F8103092F802C003EB0C1321F81030D2781A4421F81020401CC0B20228E1D311
:202720000A2001F0FFF903F0C5F8B046102337A203211820009603F03FF80F990423623156
:202740000E4602AAA0200CF060F8314604230CAAA0200BF08FFF4FF47A6001F0E3F903F0EB
:20276000A9F80C9902984FF010038842CDF8008001D129A200E02DA20321002003F01CF881
:20278000FF2001F073F862E7605D0F2801D2401C9DE766555BE70000562500202020556E33
:2027A000726567697374657265642020000000004944313A25303458000000004944323AD9
:2027C00025303458000000005247313A202020202020202020202020000000005247323A8F
:2027E000202020202020202020202020000000002020202020C7EBD7A2B2E120202020205B
:202800000000000060000020B81F0020C7EBC9D4BAF2A1ADA1AD0000202020C7EBD6D8D01A
:20282000C2C9CFB5E72020200000000020D7A2B2E1C2EBB1A3B4E6CAA7B0DC20000000005E
:202840001F4830B481880A22B1FBF2F30246017A92F8282021B1012902D0022927D125E0DC
:202860000021184C80F82110962B84F83810417401D980F82210144C642B0BD2D0F8233085
:202880002468E31A44F62064A34206D9012380F8223005E02368C0F8233090F822300BB12E
:2028A0000AB104E0642180F8271000E022B190F8270030BC06F0C4B80449497DF3E7000098
:2028C000B81F0020F01F0020B80000203020002010B50021094A0AE00478A34206D15318C4
:2028E00044785B78A34201D1080110BD891C535C002BF1D14FF6FF7010BD00008836010833
:202900002DE9F8430121042001F0C8FC0121082001F0C4FC0021102001F0C0FC0121202010
:2029200001F0BCFC0021402001F0B8FC0021802001F0B4FC00214FF4807001F0AFFC012154
:20294000084601F0ABFC0121C80300F089F90121874800F085F90126DFF81882864F002541
:202960004FF6FF7405EB4500ADF80060395C38448DF8031041788DF80210807831460128D4
:2029800040467DD000F09FF96946404600F018F96D1CADB204EA4606102DE3D3764F0126A5
:2029A000DFF8D8813037002505EB4500ADF80060395C38448DF8031041788DF80210807830
:2029C0003146012840467CD000F07DF96946404600F0F6F86D1CADB204EA4606102DE3D3F7
:2029E000654F0126DFF898816037002505EB4500ADF80060395C38448DF8031041788DF82F
:202A0000021080783146012840467BD000F05BF96946404600F0D4F86D1CADB204EA4606E4
:202A2000102DE3D3544F0126DFF858819037002505EB4500ADF80060395C38448DF803105A
:202A400041788DF80210807831460128404678D000F039F96946404600F0B2F86D1CADB2E7
:202A600004EA4606102DE3D3434F0126DFF81881C037002505EB4500ADF80060395C00E035
:202A800060E038448DF8031041788DF80210807831460128404661D000F015F96946404610
:202AA00000F08EF86D1CADB204EA4606102DE1D3314F0126DFF8D480F0370025ADF800606A
:202AC00000E042E005EB4500395C38448DF8031041788DF80210807831460128404640D098
:202AE00000F0F1F86946404600F06AF86D1CADB204EA4606102DE1D30126DFF89480254FDD
:202B0000002500E024E005EB4500ADF80060395C38448DF8031041788DF80210807831460A
:202B20000128404620D000F0CEF86946404600F047F86D1CADB204EA4606102DE1D3BDE824
:202B4000F88308E000F0C1F81EE700F0BEF83DE700F0BBF85CE700F0B8F87BE700F0B5F815
:202B60009CE700F0B2F8BDE700F0AFF8DDE7000000023000000801407AEE0008000C014001
:202B8000001001400014014000180140001C0140002001409AEF000810B58A0721F0030479
:202BA0000649130F21440F228C689A4094438C608A68984002438A6010BD00000000014076
:202BC000F0B5CA78002502F00F03D20601D58A7813430C784FF00F0E0122ECB1D0F8004037
:202BE0000F8802FA05F63740B74211D14FEA850C0EFA0CF724EA070703FA0CF43C43CF7841
:202C0000282F02D0482F02D002E0466100E006616D1C082DE4D304600C88FF2C1ED9446837
:202C20005FF0000606F1080702FA07F50F882F40AF420FD14FEA860C0EFA0CF7BC4303FA98
:202C40000CF73C43CF78282F00D14561CF78482F00D10561761C082EE4D34460F0BD000018
:202C6000F0B5144C002801DAE36900E06368420D120185B2C0F301579540C0F30346032FAE
:202C800005D0C2020AD50322B240934307E023F07062636823F07063636002E0AB4343F08C
:202CA000706201B12A43002801DAE261F0BD6260F0BD0000000001400246002092680A42D2
:202CC00000D001207047416170470161704700002DE9F0472B4800262B4CB0F87D13082914
:202CE0004CD290F8A31301272848294D4FF00208012910D06178012940D0217CE9B380212A
:202D00008146FFF7D9FF20B304214846FFF7DBFFEE71BDE8F08704218146FFF7D6FF6078BE
:202D200001282BD0207C40B380214846FFF7C4FF10B184F82960EBE7E879032802D2401CA4
:202D4000E871E6E7207C012801D184F81080668510E0E8790328F2D3207C012801D184F86B
:202D60001080668504214846FFF7AFFF94F829000028CED184F82970CBE7FFE784F8296053
:202D8000C7E700005625002028250020000801400C00002030B5034600200246074C0AE035
:202DA00013F8015B521C85EA102592B234F8155085EA002080B28A42F2D330BD1CEB000877
:202DC00000210F4A084600BF32F81030401C19446428F9DB01EB81004000642190FBF1F04B
:202DE0004042084900EB800001EB400000EB8000400040F2162190FBF1F0FA3000B2704756
:202E0000A40100202AB5020070B5064641F2916081EA000246F61760424041F211604240AF
:202E20000D4641F6D020424040F291614A4045F664414A404AF2EB114A4042404CF6FC708C
:202E4000424042F6B320424048F64810424044F29420424049F6C81042404DF67C7082EAAB
:202E6000000449F67930444043F68200444047F2C74044401621AFF26F00FFF761FA6040A7
:202E80000021084A0BE000BF16F8013B491C83EA102389B232F8133083EA002080B2A94274
:202EA000F2D370BD14B7010800200C4A014600BF32F81130491C18440829F9DBC11700EBDC
:202EC00051700749B1F89F13C1EBE0006421484340F6263190FBF1F040B270472404002000
:202EE0005625002003210148FFF7A0B8CFD3D11E03210148FFF79AB8CFD3D11EFEE70000C0
:202F000038B50D490DEB01000021FEF771FF0021684600F015F8094C0099206800F022FAA1
:202F20000021684600F00CF80099A06800F01AFA0020009038BD0000D6B7EBFF500100209C
:202F40002DE9F04F474F8DB00C460646022905D2491CFFF7F5FF0DB0BDE8F08FDFF8088119
:202F60000125002140460B95FEF73DFD4046FEF745FD4FF010093D48CDE9029500900BA88B
:202F8000019000254FF4007A0495CDE9055A4FF40060CDE907054FF4804BCDE9095B6946D4
:202FA0004046FEF7A0FD01214046FEF71CFD0A2000F0B8FDA846D14644F620602A4D4FF4FB
:202FC000006A074400212846FEF70DFD2846FEF715FD10200097CDE901600220039005A9F8
:202FE0004046CDF81080A1E80106CDF82080CDE9098B69462846FEF776FD01212846FEF7AD
:20300000F2FC2846FEF76CFD0028FAD10A2000F089FD641ED6D100212846FEF7E4FC284668
:20302000FEF7ECFC0121CDE9028105A94046CDF81080A1E80106CDF82080CDE9098BCDE9DA
:20304000007669462846FEF74EFD01212846FEF7CAFC2846FEF744FD0028FAD10A2000F0A1
:2030600061FD78E7E0E10140580002400830024008B540F6F37104236A46A0200BF0ACFAEE
:20308000009808BD08B540F6F37104236A46A0200BF0A2FA009808BDFEE77047F0B50F2180
:2030A000C478027801234FF0E026DCB1124C2468457804F4E064C4F5E064240AC4F1040796
:2030C000E1408478BD400C402C4321010B4C1155007800F01F018B40400906EB8000C0F877
:2030E0000031F0BD02F01F008340500906EB8000C0F88031F0BD00000CED00E000E400E0A1
:203100000249084302490860704700000000FA050CED00E070B586B000F06CF82E4D002489
:203120002C63AC70EC702C72EC71EC60EC61AC616C616C70AC71204605F134010C54401CD4
:20314000C0B20828FAD32C716C71AC622C6200F0FBFD4FF41671214800F028FE1F4A002030
:20316000411C00EB80008BB202EB800003EB830302EB83030470436088B21D28F0D300EBB2
:20318000800002EB8000047044602A6100F018FE80261348CDE901064FF6FF70009003256F
:2031A0003F23104A00211048CDE9034500F00EFB0E48CDE901064FF6FE70094A00903E23D9
:2031C000121F00210A48CDE9034500F0FFFA06B0BDE8704000F00FB8880000207411002055
:2031E000CC150020C8170020513F0008CC1300206D3F00087047704770B5144CE07901280F
:2032000022D1FCF78FFF0546A07820B1401E10F0FF00A07013D1E07888B900F015FE0C48C5
:20322000617950F82100A0622279914207D0416B491C4163E068401CE060FCF78FFF28467C
:20324000BDE87040FCF772BF70BD000088000020CC17002070B505460C48007808B1002008
:2032600070BDFCF75FFF0A490C680CB162680A60FCF75CFF3CB10120207000202081204605
:20328000656000F057FD204670BD00008A000020980000202DE9F047074600788A461446F4
:2032A000012801D0012008E02B48007808B1022003E02A48007820B10D2010700020BDE835
:2032C000F087FCF72FFF7D68064600213DB1884630467960FCF72AFF84F8008039E0DFF8F1
:2032E00080908846D9F8000010F82C2F42F002020270417040F804AC384600F0F7FC3046A4
:20330000FCF714FF00F07CFDFCF70CFF0646D9F8000090F82D1031B1022908D0394600F00A
:20332000C1FC0A2004E0456A84F8008001E00E202070D9F8001030461C3181F8108081F852
:203340001180C1F80080C1F80480C1F80880FCF7EDFE2846B3E700008A0000208B000020EA
:20336000A800002070B5044600780D46012801D0012070BDFCF7D6FE0646A07A58B10023AA
:2033800002222946204600F051FC3046FCF7CEFE00F036FD0AE0606820B13046FCF7C6FEEF
:2033A000142070BD30466560FCF7C0FE002070BD2DE9F04107461A488846007810B1002056
:2033C000BDE8F081FCF7AEFE164E34680CB161683160FCF7ABFE04B3FCF7A4FE12490D6869
:2033E000ADB12A680A60FCF7A1FE07EB8800C5E90170EF602F61A5F814800020E88202218B
:20340000217020812046656000F094FC05E0316861603460FCF78AFE00242046D0E7000040
:203420008A00002098000020C400002010B50446FCF778FE014660684268C260026100226E
:20344000C2820846FCF772FE002010BD2DE9F0470646007889461546022801D0012008E04B
:203460002D48007808B1022003E02C48007820B10D2010700020BDE8F087FCF753FE07466A
:2034800070680024C18A81B10269111D01611668C28A521EC2828268914201D141680161A0
:2034A0003846FCF743FE2C7034E0DFF87480D8F8000010F82C1F41F004010170447040F829
:2034C000049C304600F012FC3846FCF72FFE00F097FCFCF727FE0746D8F8000090F82D10BD
:2034E00039B1022908D0314600F0DCFB00260A2004E0466A2C7002E000260E202870D8F883
:2035000000001C30047444740460446084603846FCF70CFE3046AEE78A0000208B00002068
:20352000A800002070B5044600780E46022801D0012070BDFCF7F6FD0546A07A58B10023C8
:2035400004223146204600F071FB2846FCF7EEFD00F056FC19E06068C18A828A914204D3BC
:203560002846FCF7E3FD1E2070BDC1680A1DC2600E60C18A491CC182D0E902128A4201D161
:203580004168C1602846FCF7D1FD002070BD000070B505460C48007808B1002070BDFCF7B0
:2035A000C1FD0A490C680CB162680A60FCF7BEFD3CB103202070258100206060204600F06B
:2035C000B9FB204670BD00008A000020980000202DE9F0470646007889461546032801D00B
:2035E000012008E02548007808B1022003E02448007818B10D201070BDE8F087FCF792FD27
:2036000007463089002430B1401E30813846FCF78DFD2C70F0E7DFF86C80D8F8000010F887
:203620002C1F41F001010170447040F8049C304600F05CFB3846FCF779FD00F0E1FBFCF7AC
:2036400071FD0746D8F8000090F82D1031B1022906D0314600F026FB0A2002E02C7001E026
:203660000E202870D8F800001C3004744474046044603846BDE8F047FCF758BD8A00002024
:203680008B000020A800002070B504460078032801D0012070BDFCF745FD0546A07A58B1E3
:2036A000002301221946204600F0C0FA2846FCF73DFD00F0A5FB09E020894FF6FF71884219
:2036C00006D2401C20812846FCF730FD002070BD2846FCF72BFD332070BD70B5044600784A
:2036E0000E461546032802D00120107070BDFCF719FD00212970218939B9A17A29B1492192
:203700002970BDE87040FCF711BD2681F9E7000010B5094CE07900280CD100F095FB6079A2
:203720000649207151F82000A0622062BDE81040FCF7FFBC10BD000088000020CC170020A1
:20374000FDF76ABC2DE9FE431C4615460F468046FCF7E8FC1A49097821B1FCF7E7FC3C2061
:20376000BDE8FE83174E56F8241019B1FCF7DEFC2820F5E7012146F82410FCF7D7FC002304
:203780002A463946404600F047F900250146009501952B462A462046029500F065FB0700B8
:2037A00007D0FCF7BFFC46F82450FCF7BFFC3846D6E7054800780128F9D100F021FBF6E748
:2037C0008A000020CC1700208F0000202DE9FF4F83B01C46DDE91386DDE9119792468B461E
:2037E000FCF7A0FC1D49097829B1FCF79FFC3C2007B0BDE8F08F1A4D55F8241019B1FCF70F
:2038000095FC2820F4E7012145F82410FCF78EFC32463946484600F0FBFB334652465946C9
:20382000039800F0F9F80097CDE9018601464A462046109B00F018FB060008D0FCF772FC0E
:20384000002145F82410FCF771FC3046D0E7054800780128F9D100F0D3FAF6E78A0000204D
:20386000CC1700208F000020FDF7D7BB2DE9F04706464048007810B14020BDE8F0873F2ECD
:2038800005D0FCF74FFC0746FF2E02D005E03E20F3E73948006890F82E60DFF8E09059F815
:2038A00026405CB1012C0ED094F83020344994F83130885C984388540AD00FE03846FCF76F
:2038C00035FC4320D9E73846FCF730FC3D20D4E72C4894F83220017891430170E16911B1C3
:2038E000204600F0DFF9216A11B1204600F0EAF94FF00008C4F82880234D84F82C8084F855
:203900002D802878FF2801D2401C28703846FCF70DFC00F089F9FCF705FC0746287808B1E6
:20392000401E2870204600F039F818490878401E087049F82680A169404681B16069486138
:20394000D4E90501816112480168616104603846FCF7ECFB0F480078012806D007E0616902
:2039600088610D4960690860EDE700F049FA002083E700008A000020A8000020CC170020D1
:20398000BC0000208E0000208B00002090000020AC0000208F000020B4000020FDF73EBB06
:2039A000FDF73DBBFDF73CBB2DE9F0410446002008600D464860FCF7B5FB0146FF2C03D133
:2039C0001348006890F82E40124850F8240058B1012809D0027CD2070CD0D0E902760024D5
:2039E0000846FCF7A3FB0BE00846FCF79FFB4320BDE8F0810846FCF799FB4520F8E7641C10
:203A000001CF0028FBD0301BC5E900400020EFE7A8000020CC1700204FF080731360131F12
:203A20001860A2F108006FF001030360001F4FF012330360001F4FF003330360001F4FF052
:203A400002330360001F5B100360001F0160001F4FF011310160001F19010160001F4FF068
:203A600009310160001FD9000160001F4FF007310160001F4FF006310160001F4FF00531D1
:203A80000160980042F83C0D1046704770B50446FCF748FB03461E48FF2C006805D090F859
:203AA0002E00A04204D1012503E090F82E40FAE70025184850F8240058B101280ED090F8B8
:203AC0003020154C90F83160A15CB143A1540AD00FE01846FCF72AFB482070BD1846FCF711
:203AE00025FB432070BD0D4990F832400A78A2430A7010F82C1F41F0080101701846FCF796
:203B000015FB012D01D100F07BF9002070BD0000A8000020CC170020BC0000208E0000208F
:203B2000FDF77FBA70B5044613480078002821D11248007800281DD1002C1BD0FCF7F2FA1E
:203B400003460F480F4D016891F8300091F831602A5CB2432A5405D10B4891F83250027886
:203B6000AA43027018468C62FCF7E0FABDE8704000F046B970BD00008A0000208B00002007
:203B8000A8000020BC0000208E00002010B5FCF7C9FA03490C68FCF7C9FA204610BD0000AF
:203BA000B800002070B500F03DF8FCF7BBFA1C4D296B491C2963FCF7B9FAE87901282ED11E
:203BC000EC6A28E0FCF7AEFAA16A09B3491EA1621ED194F82C1011F0370F05D001F0C8012E
:203BE00084F82C10012100E0002184F82D1094F82C1009070CD43034AA79A1781143A9716B
:203C000007492278343166788B5C303C33438B546469FCF78BFA94F82E003F28D2D170BD99
:203C200088000020FDF7FEB970470000F0B50546807A194C4FF00007205C05EB0006F67A03
:203C4000A45D04EBC004E6B2144C54F8264004F12404C4E90017217A21EA02012172637214
:203C6000A4F1240409070BD40D4994F832208B791A438A71343194F831300A5C1A430A5495
:203C80002946204600F00EF8216A19B1204600F019F8E5613046F0BD80F50008CC170020B4
:203CA0008800002010B590F8302090F831408B18DA7AA243DA7204D18A7A90F83200824346
:203CC0008A7210BD70B510F8303F847845780868002809D0C618F27AAA43F27202D1827AEB
:203CE000A2438272091DF2E770BD000030B5104900F10B020B6A43F81C0F1C7D5B7DA55C36
:203D00001D43A5540A6A837A3032947823438372107801F134045578235C303AAB43235443
:203D200004D192F8322088799043887130BD0000880000200022827211464318491CC9B2C8
:203D4000DA720829F9D3704710B54FF4D161144800F02CF84FF48071124800F027F8104AC2
:203D60000020411C00EB400404EB0010CBB203EB430402EB800004EB031302EB830343615D
:203D8000C8B21528EDD300EB400101EB001002EB80010020486104494A62C86210BD00005D
:203DA000CC180020CC17002088000020002203E0491E00F8012B89B20029F9D170470000DF
:203DC00010B560210C48FFF7F1FF0B4A0020411C8BB200EB400003EB430302EBC30342F808
:203DE000303088B20328F2D300EB4000002142F830100248026010BD541F0020C400002083
:203E000070B5FCF78FF90E4C0546A07898B9E07888B900F019F80B49607951F82010A162B1
:203E20002279904207D0486B401C4863E068401CE060FCF78EF92846BDE87040FCF776B941
:203E400088000020CC1700200649054A01F134038879105C1B5CD25C02EBC00048717047C1
:203E600080F50008880000202DE9F05F9846DDE90ABA91460D460746FCF754F9324E746A3B
:203E8000002C5DD054F8141F7162FCF74FF944F8145CA776002525766576656144F808BC12
:203EA00044E904A90C9824F8040C24F8028CE577FA08227707F00701012000FA02F2E17652
:203EC000A27788406077A560E56025612562A5626562E5622563143C5FF0000004EB800127
:203EE000401C8D6410F0FF00F8D02046FFF728FCFCF718F9154941F82740FCF717F92046C3
:203F0000FFF7B2FCFCF70EF90146F06AC4E9050500B18461F4623034B279A0781043B071A4
:203F20000948227834306478835C23438354307A401C30720846FCF7F9F80020BDE8F09F0C
:203F4000FCF7F4F84220F9E788000020CC170020054C00BFFCF7E6F8E169491CE161FCF7D0
:203F6000E5F8FFF71DFDF5E788000020194C4FF4C87502E02846FFF7D5FD60780028F9D00A
:203F8000642160690025B0FBF1F0606118B92570FF20FFF77BFDFCF7C5F8616964225143DA
:203FA000E161FCF7C3F800BFFCF7BCF8E169C4E90615FCF7BBF8D4E90510B0FBF1F0C0F1E4
:203FC00064002070FFF7EEFC00F006F8C820FFF7A9FDE9E7880000207CB50C4D00246946C6
:203FE0002046FFF7E1FC58B955F8240040B1012806D0D0E9021201EB820101640199416436
:020000040800F2
:20400000641CE4B23F2CEAD97CBD0000CC170020D30707D0920705D50022002902D004C01B
:20402000491EFAE770470000014908627047000000000E422DE9F041214CDFF88880224EC3
:2040400094F82D004FF480670025D0B939464046FEF732FE012814D1307A032802D2401C92
:2040600030720EE03572012084F82D00174890F89E0320746560A560656284F82350FEF7AE
:20408000D5F894F82D0001280AD139464046FEF713FE002804D1307A032803D2401C3072E6
:2040A000BDE8F081357284F82D5025746560A560656284F82350BDE8F041FDF7EFBD0000BB
:2040C00028250020000801400C00002056250020034A516821F4404101435160704700001B
:2040E00000100240044A0029516901D0014300E08143516170470000001002402DE9F05F64
:2041000001210846FFF7EEFF00210220FFF7EAFF00210420FFF7E6FF00211020FFF7E2FFE2
:2041200001214020FFF7DEFF00214FF48070FFF7D9FF4FF4806400212046FFF7D3FF012170
:20414000480200F0ABF80021204600F0A7F80121CC02204600F0A2F80021600000F09EF885
:204160000021A00000F09AF8E5000021284600F095F826010021304600F090F80021600153
:2041800000F08CF8A7010021384600F087F84FF480280021404600F081F84FF4002900216D
:2041A000484600F07BF84FF4801A0021504600F075F84FF4001B0021584600F06FF8012187
:2041C000084600F05FF80121022000F05BF80121042000F057F80021082000F053F8002199
:2041E000102000F04FF80021202000F04BF80021204600F047F80021284600F043F8002133
:20420000304600F03FF80021384600F03BF80021404600F037F80021484600F033F800218E
:20422000504600F02FF80021584600F02BF80021E00200F027F80021200300F023F800217D
:20424000A00300F01FF80021200400F01BF80021600400F017F80021A00400F013F8002107
:20426000E00400F00FF80021402000F00BF80021802000F007F80021E010BDE8F05F00F04A
:2042800001B80000044A0029D16901D0014300E08143D1617047000000100240044A002949
:2042A000916901D0014300E08143916170470000001002400149086070470000400442421F
:2042C0000248416A41F08071416270470010024030B520494A6812F00C031F4A03D0042B9F
:2042E00001D0082B22D002604A680F231B4C03EA1212A35C0268DA4042604B68072505EA17
:204300001323E35C22FA03F383604B6805EAD323E35C22FA03F2C2604968032303EA9131A3
:20432000231F595CB2FBF1F1016130BD4A684B6802F470124FF0020413F4803F04EB9242FD
:2043400002D04B689B0301D5054B00E0024B5A43C9E700000010024000127A00CC000020D0
:2043600000093D000246002053090949012B0BD0022B0BD0D1F8241002F01F0201239340CB
:204380000B4200D0012070470968F5E7096AF3E7001002400649002281F8202081F8202059
:2043A000012802D0042802D1052081F8200070470010024001490860704700003C0442420F
:2043C00002490A6A02430A627047000000100240F0B52348234AC168B1FBF2F18279002A0A
:2043E0003DD08A1C0723B2FBF3F403FB1422827040F2B552B1FBF2F402FB1411A3B204469A
:20440000184AE468A1F2B455B4FBF2F440F2B552B4FBF2F702FB17424FF4B676A2F247420A
:20442000B54201D9B24207D84FF4FC6101EB8301018191B20C4A0BE040F26D12B1FBF2F47F
:2044400002FB141104EB830303F2DD73074A038112F8113002EB4101037049784170F0BD9F
:204460003800002080510100A4F20008CAEF00080B4810B53C22C3688479B3FBF2F1002C58
:204480000DD002FB11334371B1FBF2F302FB131101711821B3FBF1F201FB1231C17010BD1F
:2044A000380000202DE9F041804600F073F8FCF7AEF804460F46FCF7D7FDFCF7A8F80E4656
:2044C0002449054608EB0100FCF790F822463B46FBF78FFF0022204BFBF7FDFF04460F4632
:2044E00000221E4B28463146FBF7DCFE22463B46FBF77FFF6FF01302FCF75CF806460F46CB
:20450000FCF7B1F88046FCF782F804460D4632463B46FBF76BFF1422FCF74CF822462B4694
:20452000FBF7D9FFFCF79FF80446404600F004F900F01EF9E0B2FCF7A7FD1FFA88F10C207C
:20454000FCF7ACFDC8F30341BDE8F0410820FCF7A5BD0000805101000018F54000003041DD
:204560000248018841F0100101807047042800400248018821F010010180704704280040E9
:20458000034800880249091F098840EA014070471C28004010B50820FCF76EFD0007040B3D
:2045A0000C20FCF769FD204410BD000070B501214FF0C050FFF766FE0120FFF735FD0420E8
:2045C000FCF75AFD00250B4CA0F52541A53907D100F0E0F8012803D100F0CAF8012806D0EE
:2045E000FCF738FD0120FFF7D5FEA57170BD0120A07170BD3800002070B5224CA0790028DB
:2046000037D14120FFF7AEFE002598B34FF48070FFF7D6FE0120FFF7CDFE00F0BBF800F0AD
:20462000A7F847F6FF76304600F086F800F0A0F840F2DF70208102202070052060700820CC
:20464000E07025716571FDF76BFA0020FCF71CFD4AF2A5510420FCF721FD00210820FCF776
:204660001DFD31460C20FCF719FDFFF729FE0120A07170BDFFE7A571BDE870400021042062
:20468000FCF70CBD3800002070B5224CA07901283ED14120FFF766FE002590B34FF48070CC
:2046A000FFF78EFE0120FFF785FE00F073F800F05FF847F6FF76304600F03EF800F058F8AE
:2046C00040F2DF70208102202070052060700820E07025716571FDF723FA0020FCF7D4FC39
:2046E0004AF2A5510420FCF7D9FC00210820FCF7D5FC31460C20FCF7D1FCBDE87040FFF7E1
:20470000DFBDA571BDE8704000210420FCF7C6BC70BD00003800002000B50246FFF720FF41
:204720000449100C0880081D02805DF804EBFFF71FBF00001828004000B50246FFF710FF47
:204740000449C2F303400880081D02805DF804EBFFF70EBF0828004010B5044CA079002818
:2047600002D0FFF70DFFE06010BD000038000020002042F21072064905E00346401C93427C
:2047800001DD002070470B889B06F6D50120704704280040094900200A8822F008020A8077
:2047A00042F2107205E00346401C934201DD002070470B881B07F6D501207047042800406B
:2047C00038B5FDF75DFB0B4C0090002120616846FDF776FA00996068FEF7C4FD002168461F
:2047E000FDF76EFA0099E068FEF7BCFD00200090206138BD50010020FEB50025344C00954A
:2048000049F2275701953946606BFEF7ABFD02AA0021E06BFEF73EFD064641F20601A06B89
:20482000FEF7A0FD02AAC821206CFEF733FD9DF8081099B30095274A01210DEB0200FDF791
:20484000F5FB00903046FCF70FFFADF804003046FCF744FFADF806001F4801216844FDF738
:20486000E5FB019011231D4A00211D48FEF76AFF1420FFF757F9DDE90010091A01F5CC51C2
:20488000606CFEF76FFD02AA0021A06CFEF702FD9DF8081042F2375619B109E0FFE7009087
:2048A000C9E7B04204D1FDF77DF81420FFF73AF90198C119E069FEF755FD00988119606ABC
:2048C000FEF750FD0095FF200195FEF7CFFFFEBDF0000020E7DBD1FEEBDBD1FE7C350020C7
:2048E000E5480008FEB53E4C002549F2275701953946606BFEF736FD02AA0021E06BFEF753
:20490000C9FC064641F20601A06BFEF72BFD02AAC821206CFEF7BEFC9DF8081041B300951E
:20492000304A01210DEB0200FDF780FB00903046FCF79AFEADF804003046FCF7CFFEADF85D
:204940000600294801216844FDF770FB00990190081A42F237510144A06CFEF703FD02AAB9
:204960000021606CFEF796FC9DF8081011B117E00090D5E7B0F5CC5F27D03946606BFEF70B
:20498000F1FC02AA0021E06BFEF784FC06460F20FEF76CFF1223154A31461548FEF7D2FE95
:2049A0001049019849420144206AFEF7DBFC114900980144A06AFEF7D5FC00950195FCF7BA
:2049C00044FEFF20FEF752FFFEBD0F20FEF74EFFFDF700F8FDF760FC1420FFF7A3F8DFE73D
:2049E000F0000020E7DBD1FEEBDBD1FE7C2F0020B9250008131180197047000008B52D4C26
:204A00006A4600216069FEF745FC064613232A4A00212A48FEF796FE1420FFF783F81423D8
:204A2000274A00212748FEF78DFE1420FFF77AF86A46C821A069FEF72DFC05469DF80000B9
:204A40000A2800D1002510231F4A00211F48FEF779FE1420FFF766F849F2275841F206071C
:204A60006A460121606BFEF715FC9DF8001059B9404504D13146E06BFEF774FC04E0002651
:204A80003546FF20FEF7F2FE6A460121A06BFEF701FC9DF800100029E2D1B84204D1294609
:204AA000206CFEF75FFCDBE700263546FF20FEF7DDFED5E7F00000207C37002051170008B9
:204AC0007C390020011800087C330020F94700087FB50020FEF7BEFB2C4C6061FEF702FA9D
:204AE00002900020FEF7B6FBA0610020FEF7B2FBE0610020FEF7AEFB20620020FEF7AAFB60
:204B000060620020FEF7A6FBA0620020FEF7A2FB60630020FEF79EFBE0630020FEF79AFB0B
:204B2000E0620020FEF796FB2063FEF7A1FA00900020FEF78FFBA0630020FEF78BFB206429
:204B40000020FEF787FB60640020FEF783FBA064042201A96846FDF7B9FB002500950199E9
:204B6000A069FEF7FFFB042203A902A80195FDF7ADFB029503996069FEF7F4FB0F23044A2F
:204B8000002104480395FEF7DDFD7FBDF00000207C310020FD490008484001D000207047AA
:204BA000012070472DE9F04F002591B0AB4806952F46867D90F82A802C46FEF701F90A219E
:204BC00090FBF1F000B2049000F08CFB40F2DE31884201DD192003E00A2190FBF1F000B25E
:204BE000824616B1012E06D00BE09C48B0F817100498401A04E09948B0F81910AAEB010061
:204C000004B2DFF858B24FF00009ABF1780BABF8099000F04FFE924808EB08110A180021F4
:204C2000904610230846CDF8009000F0C5FD08F12202102303210020CDF8009000F0BCFD84
:204C400008F14402102306210020CDF8009000F0B3FDC84600E0A5B9DFF80892CDE900989B
:204C6000052380220321782000F0F0FD01237EA206217820CDF8008000F09EFDDFF8ECB18A
:204C80000FE0CDE90098082380220621782000F0DDFD012374A203217820CDF8008000F056
:204CA0008BFD16B1012E0AD014E00DB9012F04D0002003236EA2009008E00120F9E70DB949
:204CC000012F0BD0002003236AA200900321502000F072FD632C03DD632406E00120F2E71E
:204CE0006FF00800844200DA0446224662A108A808F04EFF62A108A8FBF778FA012D01D1EC
:204D0000012F1CD000200090052308AA06214C2000F052FD0FAA4FF4FA61DBF80000FEF7FC
:204D200095FB9DF83C1061B14C497839B1F80900B0F5967F13D2401CA1F809008BE70120C8
:204D4000E1E7464A783A0128A2F809800AD0042851D0082868D06FF400414018EED111B0F2
:204D6000BDE8F08F27B13DB196B3012E37D040E00127002006906EE7DFF8E090012109F114
:204D8000160089F8166003F031FEFEF719F80A2790FBF7F000B2049000F0A4FA40F2DE3126
:204DA000884201DD192002E090FBF7F000B2824616B1012E05D009E0B9F817100498401AC2
:204DC00003E0B9F81910AAEB010004B2002743E7FFE70498011B2148A0F8171005E01F4A65
:204DE000AAEB0401901CA2F819101730022103F0FDFD00272FE727B185B1632C11DA641C0E
:204E000019E0002D4FF0010506D006980328A6D2401CC0B2069034E70020FBE7D6B10026E2
:204E20001AE76FF0080416E73FB1002DF6D014F1090F11DD641E24B20DE7012D4FF000055D
:204E400006D0069803288AD2401CC0B2069003E70020FBE70126FFE66324FCE63020002022
:204E6000C69D0108C73801082000000060000020435055004E544300253032640000000066
:204E8000A1E600002DE9FE4F3C48DFF8F080DFF8F0B006784578A8F1A1080020A8F80900A0
:204EA00000F008FD374C4FF000070097A5B105EB0510021914460F230021084600F07CFCC4
:204EC00004F12202102304210020009700F074FCDFF8B490C24605E022461023ECE702983A
:204EE000012810D10623542204212C2000F0E5FC002006EBC60102900BEB81004FF001089E
:204F000000EB05174419CDF800803A4694F8223094F82000042100F04FFC01AA4FF4FA6135
:204F2000D9F80000FEF792FA9DF8041041B1BAF80910B1F5967F10D2491CAAF80910CEE747
:204F40000021AAF80910012809D0042810D008280ED06FF400414018C1D1BDE8FE8F07484A
:204F60000121293880F82960293003F03FFDF4E70EB10026B6E70126B4E70000592000206D
:204F80005E9F01081A9F0108600000202DE9FC47012400F08FFC0026102363A202213046D9
:204FA000009600F009FC10235FA205210020009600F002FC614DDFF8888105F17807A5F8C8
:204FC00009604FF4FA6900BF97F82A0000284ED0002C6FD00020009007235AA2022124205C
:204FE00000F0EAFB012C67D000200090062357A20521282000F0E0FB002C4FF004035DD0CE
:2050000024220221202000F058FC0423602202215C2000F052FC072323220521202000F058
:205020004CFC072328220521232000F088FC07235D220521582000F082FC07236022052150
:205040005FF05D0000F039FC01AA4946D8F80000FEF7FCF99DF80410002951D0B5F80900E2
:20506000B0F5967F58D2401CA5F80900ACE7E4B100200090062337A20221282000F09CFB7E
:20508000012C14D000200090062334A20521282000F092FB042328220221202000F00DFC98
:2050A00004236022022158201DE00120E1E70120E9E7FFE701208EE7012096E72322022153
:2050C000202000F0FAFB042324220221232000F036FC04235D2202215C2000F030FC04232E
:2050E000602202215D2000F0E8FB072328220521202000F0E2FB0723602205215820A1E742
:20510000A5F80960012806D0042801D00828ADD13CB1002458E714B10020BDE8FC87012061
:20512000FBE7012450E700002020205B20202020202020205D20202000000000B81F0020C2
:2051400060000020436F6D6669726D0043616E63656C0000C8B72020C8CF0000C8A12020BD
:20516000CFFB00002DE9F04FDFF84081002489B02546A8F8094000F09DFB08F1780A4FF085
:2051800010039AF82A000095C0B149A20021084600F012FBA94607234AA2032108200095FD
:2051A00000F0E4FA00202A2706AD2F54401CC0B20428FAD300264FF0200B04E043A2E5E78E
:2051C0000026B44206D1A85D0A2803D230308DF8040001E08DF80470B44201D1012000E044
:2051E000002000900BEB0610C0B2012301AA032100F0BCFA761CF6B2042EE2D3384807AA96
:205200004FF4FA610068FEF721F99DF81C1041B1B8F80910B1F5967F45D2491CA8F809100D
:20522000CEE74946A8F8099001280AD004282CD0082831D06FF400414018C1D109B0BDE8A9
:20524000F08F032C02D2641CE4B2B9E79AF825109DF818205046914225D190F826109DF8D0
:20526000192091421FD190F827109DF81A20914219D19AF828009DF81B10884213D188F83F
:205280000B900120C8F80C90D8E7285D092801D2401C06E0295593E7285D401E092800D38D
:2052A000092028558CE70020C8E70000B81F002020456E7465722050617373776F7264205E
:2052C000000000005B20202020205D00202020C7EBCAE4C8EBC3DCC2EB2020200000000057
:2052E0006000002030B50023184A1846194600BF32F81040401C21446428F9DB642091FB9D
:20530000F0F0134C00F00F020011B4F90210072A03DA4D1CA84200D1401E082A03DD491E74
:20532000884200D1401C0B49608031F910000A49FF2807D0184400EB8000400000228A7094
:2053400000B230BD01208870FA2030BD34030020060000201CE90008B81F002010B5002127
:20536000134A084632F81030401CC0B219440A28F8D310480024B0FBF1F0A0F12E020E4BCE
:205380000E49132A05D33220012283F82C200C700BE093F82C20012A07D10A780A2A02D29A
:2053A000521C0A7001E083F82C40C0B210BD000010040020002D3101B81F0020060000204E
:2053C00000210E4A084600BF32F81030401CC0B219440A28F8D3DC20414341F29C30B1FB8A
:2053E000F0F0074991F82910372904D9DC214843C621B0FBF1F080B270470000FC0300207B
:20540000B81F00200021124A084600BF32F81030401C19446428F9D301EB8100400064215E
:20542000B0FBF1F049F6607300210A4A984205D901235370084A82F8381000E0517040F6CF
:20544000AC51484344F6E641B0FBF1F0704700006C020020B81F0020F01F002030B41C4923
:20546000C8224FF4AF730A80FA224A804FF496728A80CB804FF4C8720A810B31642201F80A
:20548000012C0A704A708A70CA700B818A7205248C75002381F823300122CA7207258D813D
:2054A000CA810A258D82CB750C8308238B76CB760B774B778A7781F82020A1F82140C877F0
:2054C0006620888430BC3121014803F08FBA0000302000202DE9FC41044600F0EBF9002670
:2054E0000F233AA202210420009600F065F90F2336A205210420009600F05EF9384DA5F820
:2055000009600CB9012000E000200090082335A20221202000F050F9012C39D00020009028
:20552000072333A20521242000F046F9012C4FF007034FF024024FF005014FF0200029D05B
:2055400000F0BBF90723602205215C2000F0B5F96420FEF7E7FA03F097FB0028F8D1642067
:20556000FEF7E0FA244F3868FDF760FF01AA4FF4FA613868FDF76AFF9DF8041099B1B5F810
:205580000900B0F5967F1ED2401CA5F80900B8E70120C4E700F0D3F90723602205215C20E1
:2055A00000F0CDF9D4E7A5F80960012806D0042801D00828A5D124B10024A3E72046BDE844
:2055C000FC810124A0E70020F9E7000020205B2020202020202020205D202020000000002A
:2055E000B81F0020BCF2CCE5D6D0CEC400000000454E474C49534800600000202DE9FC473A
:205600003D4F0026A7F1780597F82A40A5F8096000F050F90F2339A202210420009600F0B1
:20562000CBF80F2335A205210420009600F0C4F8DFF8DC804FF4FA690CB9012000E0002053
:205640000090082333A20221202000F0B5F8012C2BD000200090072331A20521242000F08B
:20566000ABF8012C4FF007034FF024024FF005014FF020001BD000F020F907236022052142
:205680005C2000F01AF901AA4946D8F80000FDF7DDFE9DF8041099B1B5F80900B0F5967F4F
:2056A0001AD2401CA5F80900C6E70120D2E700F046F90723602205215C2000F040F9E2E706
:2056C000A5F80960012809D004280FD008280DD06FF400414018AFD1BDE8FC87064887F839
:2056E0002A4001212A3003F081F9F5E70CB10024A3E70124A3E700003020002020205B2036
:2057000020202020202020205D2020200000000060000020BCF2CCE5D6D0CEC400000000B5
:20572000454E474C4953480010B533230D4A40F2FF71A02008F002FF31210A48FDF72AFBD5
:205740000849B1F83120824203D1B1F82F00662807D00020FFF782FE02490120783981F8FD
:20576000310010BD30200020704700002DE9FC4F00249946164688460E4F0D1DDDF82CB03E
:2057800013E04C4514D2702812D807EB8111CDE9001B00F110018A46CAB2EBB2414600F066
:2057A00055F8641C0AF0FF00E4B2315D0029E8D1BDE8FC8F881601082DE9FE4F00259846E0
:2057C0001746894604468E1CDDF830B035E0454536D2A0281BD9702C32D88DF808007819CD
:2057E00040788DF8090002A8FDF772F8154A04F1100A1044CDE9000BF3B20AF0FF024946A9
:20580000204600F023F80AF0FF04AD1C14E0782C16D80D4A8DF8080002EB0010CDE9000B29
:2058200004F1080AF3B20AF0FF024946204600F00DF80AF0FF046D1CEDB2785D0028C6D11E
:20584000BDE8FE8F80F60008880E01082DE9F04F0024DDE9099A984617468346802A00D990
:205860008027B8F1080F01D94FF008080D461DE02946584600F099F900F088F8402000F0F9
:20588000DBF85E460CE000BF19F80400BAF1010F01D1C043C0B2641C00F0CEF8761CF6B25F
:2058A000BE42F1D300F0A2F86D1CEDB24545DFD3BDE8F08F002000F027B82DE9F0411F4677
:2058C00016468046802A00D98026082F00D908270C4615E02146404600F067F900F056F87C
:2058E000402000F0A9F8454604E0002000F0A4F86D1CEDB2B542F8D300F078F8641CE4B23C
:20590000BC42E7D3BDE8F08170B5064600242146002000F04AF900F039F8402000F08CF875
:205920000025304600F088F86D1CEDB2802DF8D300F05CF8641CE4B2082CE8D370BD2DE930
:20594000F0411F4616468046802A00D98026082F00D908270C4615E02146404600F025F9E5
:2059600000F014F8402000F067F8454604E0FF2000F062F86D1CEDB2B542F8D300F036F89C
:20598000641CE4B2BC42E7D3BDE8F08110B4154C012323601448002101700278521CD2B2FD
:2059A0000270022AF9D30222226001700478641CE4B20470022CF9D30A4C241D23600170DB
:2059C00003785B1CDBB20370022BF9D322600170C9B2491CC9B201700229F9D310BC7820C2
:2059E00000F02AB810140140DC000020104810B5012202600F480021017003785B1CDBB26A
:205A00000370022BF9D30A4B02241B1F1C6001700478641CE4B20470022CF9D31A6001708D
:205A2000C9B2491CC9B201700229F9D310BD000014140140DC000020F0B52A4E0024351FDC
:205A400029494FF0010C22460223070602D5C5F800C001E0C6F800C04006000E0A700F78E6
:205A60007F1CFFB20F70022FF9D32B600A700F787F1CFFB20F70022FF9D333600A700F7876
:205A80007F1CFFB20F70022FF9D3641CE4B2082CDBD3C5F800C00A700878401CC0B2087089
:205AA0000228F9D32B600A700878401CC0B208700228F9D30B480C3800683360C0070A705C
:205AC00007D10878401CC0B208700228F9D30120F0BD0878401CC0B208700228F9D3002088
:205AE000F0BD000014140140DC00002000B5FFF74DFF0020FFF7A0FFAE20FFF79DFF002068
:205B0000FFF79AFF1020FFF797FF4020FFF794FFB020FFF791FF8120FFF78EFFFF20FFF7C2
:205B20008BFFA120FFF788FFA620FFF785FFA820FFF782FF3F20FFF77FFFAD20FFF77CFF0D
:205B40008B20FFF779FF3320FFF776FFC820FFF773FFD320FFF770FF0020FFF76DFFD5204F
:205B6000FFF76AFF8020FFF767FFD920FFF764FF1F20FFF761FFDA20FFF75EFF1220FFF76E
:205B80005BFFDB20FFF758FF4020FFF755FFAF20FFF752FFFFF72AFF0020FFF7B5FE00219A
:205BA00008465DF804EBAFF3008030B5801C0C46C5B2FFF7EBFE0020FFF73EFFB034E0B23F
:205BC000FFF73AFF102040EA1510FFF735FF05F00F00FFF731FFBDE83040FFF707BF0000F2
:205BE0002DE9FC5FDFF8C4A04FF0000BAAF178099AF82E509AF82A602D4F5C46A9F809B0EF
:205C0000FFF758FE2B4806EB06110A1800219046102308460094FFF7CFFD08F1220210237D
:205C2000042100200094FFF7C7FD4FF001084C4605EBC50007EB800000EB06123044203009
:205C4000CDF80080837800780421FFF7B5FD1A4801AA4FF4FA610068FDF7F8FB9DF804101C
:205C600041B1B4F80900B0F5967F0FD2401CA4F80900DDE7A4F809B0012809D004280FD0BB
:205C800008280DD06FF400414018D1D1BDE8FC9F06488AF82E5001212E3002F0A7FEF5E7D8
:205CA0000DB10025C4E70125C2E7000030200020C6A1010882A10108600000202DE9F84F9E
:205CC00004460020D4E900718146824688463846FAF789FB05469E480E4690F82700FAF7B7
:205CE00096FC8346009100229A4B38464146FAF7F2FB0022984BFAF77CFB5A46009BFAF735
:205D000078FB0022954BFAF7E6FB07468846D4E90801C4E90A01C4E908560022904B28462D
:205D20003146FAF7CDFC55D200228E4B28463146FAF7DAFC4ED20022134628463146FAF7F3
:205D4000D3FC5AD2D4E90C012A463346FAF7AAFADFF81492C4E90C0100224B462846314631
:205D6000FAF7C2FC0CD200224B4628463146FAF73AFB00BFD4E90C23FAF794FAC4E90C01F4
:205D8000D4E9042338464146FAF7A5FBD4E90C2381F00041FAF7A8FC09D2D4E90423384619
:205DA0004146FAF798FB81F00041C4E90C01D4E90C016E4A6E4BFAF797FC03D26C496B4870
:205DC000C4E90C01D4E90A2328463146FAF70BFB81468A46D4E90801C4E90A01C4E9085623
:205DE0000022644B28463146FAF76AFC1BD2DFF888B19BF8000038B115E0604A604B284665
:205E00003146FAF7F6FAB5E7D4E9020100225D4BFAF7EFFAD4E90423FAF75DFBC4E90C0143
:205E200001218BF800100022574B28463146FAF75BFC02D2504800210170D4E906014A466A
:205E40005346FAF7D6FA81468A46D4E90401D4E90C23FAF7CEFA83460091D4E902012A4660
:205E60003346FAF7C6FA5A46009BFAF71BFA4A465346FAF717FA3A464346FAF713FA074638
:205E800088460022134628463146FAF719FC0FD2D4E902013D4A3E4BFAF7ABFA2A4633469E
:205EA000FAF7A7FA3A464346FAF7FCF907468846DFF8E09000224B4628463146FAF714FC66
:205EC00041D200224B4628463146FAF78CFAD4E90223FAF78EFA3A464346FAF7E3F9DFF898
:205EE00080900746884600224B4628463146FAF7FBFB0FD200224B4628463146FAF773FA21
:205F0000D4E90223FAF775FA3A464346FAF7CAF907468846DFF8809000224B4628463146E8
:205F2000FAF7E2FB0FD200224B4628463146FAF75AFAD4E90223FAF75CFA3A464346FAF7B2
:205F4000B1F90746884638464146BDE8F88F0000B81F002000408F4000986940000059406B
:205F600000C07240000065C000003E4045175D74113F0941000059C0DE00002014AE47E144
:205F80007A14FE3F00006540000042C00AD7A3703D0AD73F00C0624000207C404021FAF7AE
:205FA0001AB900004FF000094E46674C02E0C820FDF7B8FD20780028F9D0002565746348DA
:205FC000FFF7ECFFDFF884A1614A50468AF838500021C0E90212604A5E49C0E9041200218A
:205FE000C0E90611CAF80010A04640F6FF7BCAF804101E20FDF796FD584CA07DA8B1FFF7CE
:020000040800F2
:2060000071F9A17D04EB4101B1F81710494201EB810100EB4100A8F8060098F8080038B1AB
:2060200001280AD0022838D10EE0FCF7C9FEE8E700221146CAF8002003E000200146CAF84C
:206040000000CAF8041028E0B4F81340B8F9060004EB84014546C0EB4100FAF7C7FA404A85
:20606000404BFAF71FF9CAE90001A888614201EB810100EB4100697C79B91C304D280CD2B5
:20608000012205F8112F022002F0D2FC36480068C5F80A000020E8812A74FFF7B3F9FAF757
:2060A000B6FA054602460F460B462848FFF706FEFAF7BAFA041E01DA002403E0B4F5805F5C
:2060C00000DB5C4698F8080008B1012800D10024A0B201F00FF8032E15D2B8F90600FAF7CA
:2060E00085FA2A463B46FAF7DDF807460D464846FAF78DFA3A462B46FAF7D4F8FAF7B3FA78
:206100008146761C19E04646B8F90600FAF76EFA2A463B46FAF7C6F807460D464846FAF7D2
:2061200076FA3A462B46FAF7BDF8FAF79CFAC0F38F00B0804FF000094E466420444394FBE9
:20614000FBF088F8030054E7B81F0020F01F002000001840F5DBD7817346943F30200020F4
:20616000CDCCCCCCCCCC0C40B80000202DE9F04F0024DFF870938DB009F122000894017871
:20618000099199F82AB0B9F823000790A9F17800A246A04627465646A0F80940FFF78AFB4A
:2061A000D1480BEB0B110D18002110232A4608460096FFF701FB05F1220210230221002065
:2061C0000096FFF7F9FA05F144021023042100200096FFF7F1FA05F166021023062100203D
:2061E0000096FFF7E9FA00200BAEBE490A1892F825203254401CC0B20428F6D30025D146DA
:2062000002E00025A54210D1B849042000EB4500CDE90019C3B24FF0020A0AEB4500C1B21E
:2062200080227820FFF712FB09E00AEB4500C1B20123AFA27820CDF80090FFF7BDFA6D1CF3
:20624000EDB2032DDED30998BBF1000F03D088B3002C64D067E008B154B10DE01CB94046A7
:20626000B8F1010F00D000200423A2A2009007E04046B8F1010F00D0002004239FA200906C
:2062800002214C20FFF798FA9EA102A8079A07F07FFC9EA102A8F9F7A9FF012C03D14046E3
:2062A000B8F1010F00D000200423009002AA19464C2049E0FFE714B9B8F1010F20D004235B
:2062C000502202214C20FFF7F8FA04236C2202216820FFF7F2FACDF8009003238CA20221C7
:2062E0005FF05000FFF768FA86A102A8079A07F04FFC88A102A8F9F779FF012C1AD01DE0A4
:206300000423502202214C20FFF719FB04236C2202216820FFF713FB01200090DDE74046EC
:20632000B8F1010F00D000200423022100907AA24C20D7E74046B8F1010F00D000200090D5
:20634000032302AA04215020FFF736FA0025705D30308DF80800AF4205D1022C03D1404682
:20636000B8F1010F00D0002000904C2000EBC500C0B2012302AA0621FFF71EFA6D1CEDB229
:20638000042DE4D366480AAA4FF4FA610068FDF75DF89DF8281051B152487838B0F809108A
:2063A000B1F5967F12D2491CA0F8091029E74D4A4946783A0128A2F809900AD0042840D0CE
:2063C000082865D06FF400414018EFD10DB0BDE8F08FB8F1000F09D05CB1012C15D0022CDD
:2063E000E4D1032F1AD27F1CFFB20AE74FF001085EE03C49099881F822003A480121223050
:2064000002F0F4FA4FF000085BE036480799A0F823100221233002F0E9FA0FE0314900205D
:206420000B18325C401CC0B283F825200428F7D32C480421253002F0D9FA00274FF0000806
:20644000DFE6B8F1000F0AD0B4B1012C19D0022CACD1F05D092842D2401CF055D1E6022CA7
:2064600001D2641C23E0089802240328AED2401CC0B200250890D8E6099820B300200990DF
:206480001FE007983C2801D2401C22E0012023E0B8F1000F09D0002CEED0012C15D0022CEA
:2064A00084D1F15DD1B1491E19E024B1641EE4B200200890A5E60898032887D2401CC0B235
:2064C00008900025A0E60120D9E70798012802D9401E80B200E03C20079092E60921F155AA
:2064E0008FE6000030200020929E0108C738010820000000B9D8B1D500000000B4F2BFAA30
:20650000000000002530326400000000B7D600004F4646004D000000204F4E2000000000FE
:20652000600000202DE9F04F0026814889B0A0F1780B90F82A803546ABF809600727B1466C
:2065400003E000BFBAF1000F21D14FF0010AFFF7B1F900214C46102376A20846CDF8009062
:20656000FFF72AF9102373A2022100200094FFF723F910236FA2042100200094FFF71CF9A9
:2065800010236CA2062100200094FFF715F900243019B0FBF7F107FB1102052A15D2644804
:2065A0008118897A009130F81230521C66A101A807F0EEFAA54201D1012000E000200090DD
:2065C0006006010E0D2301AA1BE06448B8F1000F02EB021109D000EB410108EB08100A18D9
:2065E000521CA54211D1012010E000EB4102521CA54201D1012000E0002000906006010ED8
:206600000D230C20FFF7D8F82BE0002000906000C1B207900C231020FFF7CEF84FF00200D7
:2066200000EB4400C3B200900798A542C1B24FF010024FF00C000AD1FFF781F90098742218
:20664000C3B20798C1B27020FFF779F909E0FFF734F900987422C3B20798C1B27020FFF774
:206660002CF9641CE4B2042C92D33D4806AA4FF4FA610068FCF7EAFE9DF8181041B1BBF8D2
:206680000910B1F5967F0FD2491CABF8091059E7ABF8099001280AD0042835D008283DD037
:2066A0006FF400414018F2D109B0BDE8F08F7019B0FBF7F107FB110005281FD21C4B8BF807
:2066C0002190A3F140031A4C83F838908BF8119034F81010A4F8131020444FF00201807ABA
:2066E000607503F1530002F081F9012104F1150002F07CF9607D02F0A3F9D5E7D4D100F0C3
:2067000047F90026354620E7032D01D26D1C07E0062E01D2761C07E0002613E715B16D1E2D
:20672000EDB20FE716B1761EF6B20BE7062609E7302000205B202020202020202020202088
:206740002020205D00000000472531643A25303364A1E6202533642525000000A69F01085A
:206760006000002038B5FEF711FC01281DD1002000F094FB0446FFF79DF800214FF01003AC
:20678000009174B109A203215FF00400FFF714F82046FEF763FEBDE838404FF4FA60FDF7B5
:2067A000C1B9032105A21820F0E738BD506C656173652077616974A1ADA1AD00C7EBC9D476
:2067C000BAF2A1ADA1AD00002DE9F04F3C480024A0F1780987B090F82A60A0464746A9F805
:2067E0000940FFF767F8374806EB06110A1800211546102308460097FEF7DEFF05F12202D2
:206800001023032100200097FEF7D6FFDFF8B8A001276FF03B0B4D4656B122462BA101A82D
:2068200007F0B6F90423032101AA542000970EE0002C02DB224627A101E0624228A101A893
:2068400007F0A6F9062301AA032144200097FEF7B3FF06AA4FF4FA61DAF80000FCF7F6FD02
:206860009DF8181041B1B5F80900B0F5967F0FD2401CA5F80900CFE7A5F8098001280AD037
:20688000042810D0082814D06FF400414018C3D107B0BDE8F08FFEF779FB0128F8D12046AC
:2068A000FDF700FEF4E73C2C01DA641C04E03C24B2E75C4502DD641E64B2ADE75C46ABE78B
:2068C0003020002074A2010860000020252B303364530000BFEC25303264C3EB00000000FB
:2068E000C2FD25303264C3EB0000000038B5104890F82A40FEF74AFB012817D1FEF7DAFFF0
:2069000000204FF01003009064B10AA203210420FEF752FFFDF7B8FEBDE838404FF4FA60C2
