:020000040800F2
:10000000D037002001010008B75300085141000813
:10001000B5530008B91A00082DAA00080000000016
:10002000000000000000000000000000217F000828
:10003000152800080000000067010008E59400088A
:100040001B0100081B0100081B0100081B01000820
:100050001B0100081B010008A13200081B01000859
:100060001B0100081B0100081B0100081B01000800
:100070001B0100081B0100081B0100081B010008F0
:100080001B0100081B010008810900081B01000872
:100090001B0100081B0100081B0100081B010008D0
:1000A0001B0100081B0100081B0100081B010008C0
:1000B000519500081B010008819500081B010008EC
:1000C0001B0100081B0100081B0100081B010008A0
:1000D0001B0100081B0100081B0100081B01000890
:1000E0001B0100081B0100081B010008DFF80CD0F1
:1000F00000F034FC0048004725B80008D037002045
:100100000648804706480047FEE7FEE7FEE7FEE7B1
:10011000FEE7FEE7FEE7FEE7FEE7FEE709950008DB
:10012000ED000008EFF3108072B6704780F310887E
:1001300070471D484FF0FF010170002080F30988CF
:100140001A48012101701A484FF08051016062B6CF
:10015000FEE717484FF080510160704714484FF098
:1001600080510160704772B6EFF3098028B12038E2
:1001700080E8F00F0F490968086000B50E48804715
:100180005DF804EB0D480E490A78027009480D49E4
:100190000A680260106890E8F00F203080F3098848
:1001A0004EF0040E62B6704722ED00E05F010020C1
:1001B00004ED00E078010020F96100085C010020F6
:1001C0005D01002080010020D2B201E000F8012B87
:1001D000491EFBD270470022F6E710B513460A46C7
:1001E00004461946FFF7F0FF204610BD421E12F8E4
:1001F000013F002BFBD111F8013B02F8013B002B22
:10020000F9D17047421C10F8011B0029FBD1801A5C
:100210007047034611F8012B00F8012B002AF9D191
:100220001846704730B480EA010202F0004530F011
:10023000004221F0004015D0A0B1C0F3C753C2F373
:10024000C754C2F31601C0F31600E41A41F40001CA
:1002500040F400027D34914201D3641C00E0490067
:10026000002C02DA30BC002070474FF4000000235D
:10027000914201D3891A034340084FEA4101F7D163
:1002800051B1914202D14FF0004105E002D24FF04E
:10029000010101E06FF0010103EBC450284430BCC0
:1002A00000F0AEBA2DE9FE4F804681EA0300C00F90
:1002B0000C46009021F0004123F00045B8EB02000D
:1002C000A94105D24046214690461C460B460246AF
:1002D00023F00040104304D14046214603B0BDE85E
:1002E000F08F270DC7F30A00C3F30A510290401A9A
:1002F0000190402866DAC3F3130040F4801B009895
:10030000924620B10023D2EB030A63EB0B0B01985A
:100310005946C0F14002504600F041FA06460D46EB
:1003200050465946019A00F059FA10EB0800614115
:10033000002487EA115284EAE7731A433BD0009AFB
:100340003AB3019A012A4FEA075210DC001B61EB15
:1003500002014FF0004202EA0752CDE90042001CC0
:1003600041F5801132462B4600F08DFAB6E7001BAE
:1003700061EB0201001C41F5801300185B4120185D
:10038000A2F5001747EB030140EAD570B6196D419D
:1003900011E06D084FEA360645EAC0754FEA07528C
:1003A000001B61EB0201001C41F5801149084FEA76
:1003B00030000019514132462B4603B0BDE8F04FE2
:1003C00000F054BA0098012240000023D0EB020252
:1003D00063EBE073009821464FEAE074B8EB00004D
:1003E00061EB0401E9E783F000435BE781F0004142
:1003F00058E72DE9FE4F81EA030404F0004421F0A0
:10040000004100944FF0000B23F0004350EA010438
:1004100002D052EA030404D10020014603B0BDE833
:10042000F08FC3F30A54C1F30A552C44A4F2F334F9
:100430000194A0FB0254C1F3130141F48011C3F3F2
:10044000130343F4801301FB024400FB034E840AB0
:10045000970A44EA815447EA8357A4FB0768029548
:100460008D0A05FB07854FEA932C04FB0C542705E6
:10047000029D4FEA065847EA1637B5EB08056EEBC2
:10048000070C870E920E47EA811742EA8312A7FBF8
:100490000201B6EB0B0164EB00042B0D43EA0C33B5
:1004A0005E1844EB1C50DA465146E7FB0201C5F3E7
:1004B00013044FEA0B3343EA14534FEA0432019C0E
:1004C00043EA0603A4F10C040294009CCDE900B4B5
:1004D00000F0D9F9A2E72DE9F04D81EA030404F018
:1004E000004B21F0004514464FF0000A23F0004174
:1004F00050EA050220D054EA01021DD0C5F30A5784
:100500000246C5F31303C1F31300C1F30A5640F4C6
:10051000801543F48013A7EB0608101BD64608F29B
:10052000FD3873EB050002D308F1010801E09218D1
:100530005B41B8F1000F03DA00200146BDE8F08D01
:1005400000204FF48011064684460EE0171B73EB23
:10055000050705D3121B63EB050306434CEA010CA8
:1005600049084FEA300092185B4150EA0107EDD18B
:1005700052EA030012D082EA040083EA050108432C
:1005800003D100224FF0004308E0101BAB4102D220
:100590000122002302E06FF0010253101AEB060063
:1005A0004CEB085110EB0A0041EB0B01BDE8F04D9C
:1005B00000F05CB970B521F0004303430CD0C1F3E7
:1005C0000A550024D5EB040564EB0403D617AD1AD5
:1005D000B34102DB0020014670BD201841EB0251FF
:1005E00070BD96230022114600F013B90EB5C10F5D
:1005F00080EAE0700844CA07002140F233438DE8E6
:100600000E000A460B4600F03EF903B000BD0EB5E1
:1006100040F2334102910021CDE900110A460B4618
:1006200000F031F903B000BD70B5C1F30A5201F01A
:1006300000450024C1F3130140F2FF3341F480115F
:100640009A4201DA002070BD40F233439A42A2F28E
:10065000334203DC524200F0B1F800E090402C43FA
:10066000F1D0404270BDC1F30A5210B5C1F313017D
:1006700040F2FF3341F480119A4201DA002010BDAC
:1006800040F233439A42A2F2334203DC524200F07A
:1006900095F810BD904010BD00F0004230F00040D1
:1006A0000AD0C10D01F56071C0F3160042EA015194
:1006B000C208400711437047002001467047000000
:1006C00030B5002904DB4FF00044404264EB0101E7
:1006D000002B04DB4FF00044524264EB03038B42D7
:1006E00008BF824230BD000030B5002904DB4FF066
:1006F0000044404264EB0101002B04DB4FF0004456
:10070000524264EB0303994208BF904230BD00009F
:1007100030B50B46014600202022012409E021FAD1
:1007200002F59D4205D303FA02F5491B04FA02F5CE
:100730002844151EA2F10102F1DC30BD2DE9F05F65
:100740000546002092469B46884606468146402440
:100750001BE0284641464746224600F02FF8534604
:100760005A46C01A914110D311461846224600F04D
:1007700016F82D1A67EB01084F462246012000218A
:1007800000F00DF817EB00094E41201EA4F1010402
:10079000DFDC484631462A464346BDE8F09F202A22
:1007A00004DB203A00FA02F1002070479140C2F1C8
:1007B000200320FA03F3194390407047202A04DBFA
:1007C000203A21FA02F00021704721FA02F3D040CA
:1007D000C2F120029140084319467047202A06DBE7
:1007E000CB17203A41FA02F043EAE07306E041FAFF
:1007F00002F3D040C2F120029140084319467047ED
:100800000029A8BF7047401C490008BF20F0010024
:10081000704710B4B0FA80FC00FA0CF050EA010402
:1008200004BF10BC704749B1CCF1200421FA04F494
:1008300011FA0CF118BF012121430843A3EB0C016D
:10084000CB1D0106000A002BBEBF002010BC704764
:1008500000EBC35010440029A4BF10BC7047401CDB
:10086000490008BF20F0010010BC704710B5002BF4
:1008700008DA401C41F1000192185B411A4301D192
:1008800020F0010010BD2DE9F04D92469B4611B1BC
:10089000B1FA81F202E0B0FA80F220329046FFF71E
:1008A0007EFF04460F4640EA0A0041EA0B01534628
:1008B0005A46084303D120463946BDE8F08D11461B
:1008C00053EA010015D0C8F140025046FFF776FF09
:1008D00005460E46504659464246FFF760FF08431C
:1008E00001D0012000E00020054346EAE0762C43D9
:1008F00037430A984FEA4453A0EB08004FEAD42448
:100900000A304FF0000244EA47544FEAD72502D597
:1009100000200146D1E7010510196941DDE90845CC
:1009200000196941BDE8F04DA0E7C1F30A52C1F3D7
:10093000130140F2FF3341F480119A4202DA0020A1
:100940000146704740F233439A42A2F2334202DC3E
:100950005242FFF733BFFFF722BF0000064C074D9E
:1009600006E0E06840F0010394E80700984710347F
:10097000AC42F6D3FFF7BEFBE820010808210108CE
:10098000F0B432496FF002000860314C324A314B0A
:1009900020785188314E324D012760B1324FDFF857
:1009A000C4C0148838882CF810400024032819D2B9
:1009B000401C388017E023F81010401C80B20C282F
:1009C000F9D3002026F81010401C80B20C28F9D36F
:1009D0005189002025F81010401C80B21828F9D346
:1009E00027702EE03C80214F38880B2823F8101008
:1009F00002D2401C388000E03C801D4B022000BF2A
:100A0000198832F810700B2926F8117002D2491C8F
:100A1000198000E01C80401C80B20428F0D31549E6
:100A2000042000BF0B8832F81060172B25F81360E4
:100A300002D25B1C0B8000E00C80401C80B20928B5
:100A4000F0D30D480068F0BC05F08AB900240140DD
:100A5000010100208A0200202402002072020020EE
:100A6000420200200C0100200801002006010020A5
:100A700004010020020100202401002010B5134CC5
:100A80008CB00021204601F0B7FD204601F0C6FDE4
:100A90000F4800900F480021CDE901010F20CDE95A
:100AA00003018020059040000690800007902020E0
:100AB000CDE908010A916946204601F024FE012192
:100AC000204601F099FD0CB010BD00000800024066
:100AD0004C240140240200200029816802D041F00A
:100AE000010101E021F00101816070470029816866
:100AF00002D041F4807101E021F48071816070477F
:100B0000014600208968490700D501207047014649
:100B100000208968090700D501207047002A426833
:100B2000C9B201D00A4300E08A4342607047000026
:100B300010B542680E4B0C791A400B6842EA042249
:100B40001343436083680B4A1340D1E902422243B6
:100B50004C7943EA44031A438260C26A097C22F456
:100B60007002491EC9B242EA0151C16210BD0000C3
:100B7000FFFEF0FFFDF7F1FF70B5072409290AD940
:100B8000C568A1F10A0606EB4606B440A543B3408A
:100B90001D43C56007E0056901EB4106B440A5436C
:100BA000B3401D4305611F23072A09D2446B521E1F
:100BB00002EB820293409C4391400C43446370BD1E
:100BC0000D2A09D2046BD21F02EB820293409C4390
:100BD00091400C43046370BDC46A0D3A02EB82027B
:100BE00093409C4391400C43C46270BD816841F0C6
:100BF000080181607047816841F00401816070479D
:100C000005490028086802D040F4000001E020F403
:100C10000000086070470000082401402DE9F05FE3
:100C2000DFF844B25846BBF87D1390F8814390F842
:100C30008403082901D2032C04D0082905D20328F3
:100C400002D002E00224FAE7022081468648032C03
:100C5000B0F8828304D0B8F13C0F01D24FF03C08C9
:100C60008149B9F1030FB1F8856302D03C2E00D25F
:100C70003C2601217D4803F00FF87D49022700251D
:100C8000DFF8F0A1012806D08D709AF818105046B0
:100C900003292BD03AE0887864281BD2401CC0B2CC
:100CA0008870032817D1032C15D19AF818005246E2
:100CB000012805D11776062007F0C4FB82F83850CA
:100CC000107E20B355640120956482F82B0082F8D1
:100CD0002C0000E08D709AF8181050460229D4D1EB
:100CE000032C13D14564CAF8485010E0BBF88E239A
:100CF00040F27713C16C5A43B1EB021F03D2491C77
:100D0000CAF84C1002E00776CAF84C50F4B308EB6E
:100D1000C801DAF8440001EB08175446B0EB870F1E
:100D20003AD2401C6064217E022901D0032949D1B6
:100D3000B8F13C0F46D3504901EB8701884204D1FA
:100D4000012007F07FFB01F041F94C48616C00EB9A
:100D50008700814202D1012007F074FB4848616C92
:100D600000EB8700814202D1012007F06BFB6FF09E
:100D7000C700616C00EB8700814202D1012007F0BF
:100D800061FB6FF0630000EB870000E01AE0616C2C
:100D9000814217D1012013E0207E98B1012811D0A3
:100DA0009BF80A10BBF87F033BF81110814203D86F
:100DB0008AF81850052003E001208AF81800042062
:100DC00007F040FBB9F1000F49D006EBC601DAF895
:100DD000480001EB06175446B0EB870F39D2401C90
:100DE000A064217E022901D0032938D13C2E36D3BC
:100DF000214901EB8701884204D1012007F022FB41
:100E000001F0E4F81D48A16C00EB8700814202D19B
:100E1000012007F017FB1A48A16C00EB8700814204
:100E200002D1012007F00EFB6FF0C700A16C00EBB0
:100E30008700814202D1012007F004FB6FF06300BC
:100E4000A16C00EB8700814209D1012007F0FAFA7A
:100E500005E0207E18B1052007F0F4FA2576BDE8FC
:100E6000F05F02F0A7BA0000F0020020000C014081
:100E7000140100200000002018FCFFFFA8FDFFFF68
:100E8000D4FEFFFF2DE9F04F002591B0A74807954C
:100E90002F4690F8876390F89A832C4603F03EF82B
:100EA0000A2190FBF1F000B2049003F0B1F840F297
:100EB000DE31884201DD192003E00A2190FBF1F0C8
:100EC00000B2824616B1012E06D00BE09748B0F86A
:100ED00088130498401A04E09448B0F88A13AAEBE7
:100EE000010004B2DFF848B24FF00009ABF82890D7
:100EF00004F044FB8F4808EB08110A1800219046C3
:100F000010230846CDF8009004F0BAFA08F1220246
:100F1000102303210020CDF8009004F0B1FA08F16D
:100F20004402102306210020CDF8009004F0A8FA16
:100F3000C84600E0A5B9DFF80092CDE90098052386
:100F400080220321782004F0E5FA01237BA2062108
:100F50007820CDF8008004F093FADFF8E4B10FE0D8
:100F6000CDE90098082380220621782004F0D2FAE7
:100F7000012372A203217820CDF8008004F080FACA
:100F800016B1012E0AD014E00DB9012F04D00020B3
:100F900003236CA2009008E00120F9E70DB9012FAE
:100FA0000BD00020032368A200900321502004F0FE
:100FB00067FA632C03DD632406E00120F2E76FF09B
:100FC0000800844200DA0446224660A10AA809F01B
:100FD0004FFD012D01D1012F19D0002000900423D5
:100FE0000AAA06214C2004F04BFA0FAA4FF4FA612A
:100FF000DBF8000004F096FD9DF83C1049B14C4927
:10100000088DB0F5967F11D2401C088592E701202B
:10101000E4E7474A0128A2F828800AD0042852D0E1
:10102000082869D06FF40041401883D111B0BDE8A1
:10103000F08F27B13DB196B3012E37D041E00127A3
:101040000020079076E7DFF8E490012109F287306D
:1010500089F8876309F0ECFC02F060FF0A2790FB37
:10106000F7F000B2049002F0D3FF40F2DE31884284
:1010700001DD192002E090FBF7F000B2824616B1C4
:10108000012E05D009E0B9F888130498401A03E04E
:10109000B9F88A13AAEB010004B200274BE7FFE777
:1010A0000498011B2148A0F8881305E01F4AAAEB09
:1010B0000401901CA2F88A1300F56270022109F065
:1010C000B7FC002736E727B185B1632C11DA641C21
:1010D00019E0002D4FF0010506D007980328A5D28E
:1010E000401CC0B207903BE70020FBE7D6B10026CA
:1010F00021E76FF008041DE73FB1002DF6D014F191
:10110000090F11DD641E24B214E7012D4FF0000514
:1011100006D00798032889D2401CC0B207900AE77E
:101120000020FBE7012606E7632403E7F002002026
:1011300000000020F215010857F10008200000000F
:1011400040010020435055004E5443002530326486
:10115000A1E60000F8B5002004F0E8FB414D28604E
:10116000002004F081FD4049086100F0A5F906F077
:10117000A5FA3E484FF4FA6601883D4801803B4994
:10118000891C098841803949091D098881803749AE
:10119000891D0988C1803549083109880181334991
:1011A0000A310988418133484068B0FBF6F0B0F15C
:1011B000807F0CD220F07F414FF0E020491E41613A
:1011C0002D4AF0211170002181610721016103F096
:1011D0007FFE0AF0F8F804F0C7F803F01FFF01F0F3
:1011E000D1F801F0A9FE01F081FF0923234A002173
:1011F000234804F013FE4FF47A7004F0FFFF06F06A
:1012000083FA04F06FFA04F0A5F8044600906946EA
:10121000286804F013FC1B4800210460A0F252402F
:1012200006F030FC1848194C90F89203012801D1BF
:1012300084F82A0001F084FA01F0EAF906F032FDA0
:10124000304604F0DBFFD4E90701884201D10120D8
:1012500000E000200E4951F820008047FF2004F0F4
:1012600071FEF8BDFC01002014010020E8F7FF1F0B
:10127000A20200201002002023ED00E09C0C0020C0
:1012800085910008FC000020F002002000000020F2
:1012900008020020704770477047704770477047DA
:1012A000074910B50878142802D2401C087003E0E2
:1012B0000020087003F0B2FDBDE8104006F09EBFAC
:1012C0000001002010B5012006F076F8BDE81040BE
:1012D000002006F071B800000248008800F07F008E
:1012E000704700002C6C004008B50249084400908B
:1012F000008808BD006C0040034A118821F07F017E
:1013000001431180704700002C6C004008B5024A70
:1013100010440090016008BD006C004030B587B0FB
:10132000002005F057FFFFF7A9FB00214FF46020D4
:10133000CDE9020101248DF804400F20494D0091B0
:101340008DF805108DF8100069462846FFF7F0FB70
:101350000723012200212846FFF70EFC0523022265
:1013600007212846FFF708FC052303221021284601
:10137000FFF702FC0323042210212846FFF7FCFBA1
:101380000723052209212846FFF7F6FB032306223F
:1013900009212846FFF7F0FB0323072209212846ED
:1013A000FFF7EAFB0323082209212846FFF7E4FBA5
:1013B0000922032311462846FFF7DEFB07230A22F2
:1013C00002212846FFF7D8FB03230B2202212846DF
:1013D000FFF7D2FB03230C2202212846FFF7CCFBA8
:1013E00003230D2202212846FFF7C6FB03230E220A
:1013F00002212846FFF7C0FB03230F2202212846C3
:10140000FFF7BAFB0120FFF7FBFB01212846FFF79E
:101410006DFB01224FF408712846FFF77FFB012185
:101420002846FFF759FB2846FFF7E0FB2846FFF761
:101430006EFB0028FAD12846FFF7DDFB2846FFF7B0
:101440005FFB0028FAD112208DF814008DF81540AA
:101450008DF816408DF8174005A803F0ADFF07B0D2
:1014600030BD0000002401403EB5012001F032FFF4
:101470000021012002F080FB00258DF8045010208F
:1014800001248DF8050000948DF80640684601F0AF
:1014900037FF4FF4A06003F0C1FF06208DF808006D
:1014A0008DF809500A208DF80A008DF80B4002A82B
:1014B00003F082FF3EBD000010B5084805F08AFF2A
:1014C00005F09EFE02F010FAFFF728FF00F008F882
:1014D00000F05AF8BDE81040FFF7C6BF1002002028
:1014E00070B5012188B0084605F04EFF42F2107039
:1014F000ADF8140023484CF25031002480684FF0BE
:101500008046B0FBF1F0401EADF81000ADF816407B
:10151000ADF8124004A9304608F014F942F2047004
:10152000ADF80040ADF80600ADF80240ADF8084057
:101530006946304608F084F86020ADF800000125C7
:10154000ADF80250ADF80640ADF8084069463046A7
:1015500008F0B6F801220221304608F069F81C2094
:101560008DF81C008DF81D5002208DF81E008DF89E
:101570001F5007A803F020FF0121304608F042F871
:1015800008B070BD100200201FB541F28830ADF8E0
:10159000040018484FF47A71174C0068B0FBF1F062
:1015A000401EADF800000020ADF80600ADF80200C6
:1015B0006946204608F0C6F801221146204608F088
:1015C00037F80D494FF6FE70103108801E208DF857
:1015D0000C0001218DF80D1002208DF80E008DF801
:1015E0000F1003A803F0E8FE0121204608F00AF8D6
:1015F0001FBD000010020020000800402DE9F84344
:10160000234E002596F89A4300F03EFD01283CD178
:1016100003F0B4FF00204FF0100300908CB31DA224
:101620000321042003F02CFF002006F013FFDFF855
:1016300074802021404602F038FB4FF4FA6004F039
:10164000DDFD194F0024002037F81010401CC0B2F7
:101650000D440428F8D3C82004F0D0FD641CE4B283
:101660000A2CF0D32820B5FBF0F0A6F8A80302213D
:101670000E4809F0DDF94046BDE8F843202102F0AC
:1016800012BB03210AA21820CCE7BDE8F8830000B2
:10169000F0020020506C656173652077616974A168
:1016A000ADA1AD00000801400C010020980600200B
:1016B000C7EBC9D4BAF2A1ADA1AD00002DE9FC5F22
:1016C000DFF8DCA0DFF8E0904FF0000B9AF89943C8
:1016D0009AF89A63DFF8CC805D46A9F828B003F049
:1016E0004DFF324806EB06110A1800211746102359
:1016F0000846009503F0C4FE07F1220210230321DF
:101700000020009503F0BCFE04EBC40108EB810748
:10171000BD19052315F8202F0321282003F031FFE0
:101720000120009007EB0612AB782878032103F024
:10173000A7FE2878A978052300EBC100C0B2582283
:10174000032103F01EFF1A4801AA4FF4FA61006852
:1017500004F0E8F99DF8041041B1B9F82810B1F58A
:10176000967F0FD2491CA9F82810CDE7A9F828B018
:10177000012809D004280ED008280CD06FF40041AD
:101780004018C1D1BDE8FC9F8AF89943012109485E
:1017900009F04EF9F6E70CB10024B5E70124B3E7F0
:1017A000F00200206817010800000020241701083B
:1017B000400100208906002070B51848184C00250B
:1017C000007900B92570174890F899131648012937
:1017D0001CD12178D1B101EBC10202EB0111134AF6
:1017E00002EB41016278895C00294FF0100107D0BB
:1017F00002F05BFA6078312805D2401C607070BD41
:1018000002F051FAF6E76570257070BD65702570BD
:10181000BDE87040102102F046BA00000000002030
:1018200014010020F00200200008014090BD0008D3
:101830002DE9F04F934891B0002490F80E80018874
:101840000291DFF84492408805902646A346274639
:10185000A9F8284003F092FE8C4808EB08110D18F7
:1018600000212A4610230846009703F009FE05F1DF
:101870002202102303210020009703F001FE05F14E
:101880004402102306210020009703F0F9FD0025F3
:10189000DFF8FCA102E00025A5420CD105EB4500D4
:1018A000411DCBB2C01CCDE900A7C1B28022782077
:1018B00003F030FE09E005EB4500C01CC1B2012376
:1018C00074A27820009703F0DBFD6D1CEDB2022DB1
:1018D000E2D3029AB8F1000F6FA108A803D009F073
:1018E000C7F814B323E009F0C3F80CB9012E0FD0E8
:1018F00000200090052308AA0321482003F0C0FD22
:1019000067A108A8059A09F0B3F8012C02D003E0FA
:101910000120EEE7012E06D00020042306210090CE
:1019200008AA4C201DE00120F7E7012E0FD000206F
:101930000090052308AA0321402003F0A1FD5AA12D
:1019400008A8059A09F094F8012C02D003E00120C0
:10195000EEE7012E1AD000200090052308AA0621E8
:10196000402003F08DFD52480EAA4FF4FA61006842
:1019700004F0D8F89DF8381051B1B9F82810B1F535
:10198000967F11D2491CA9F8281084E70120E3E7CB
:10199000A9F8287001280AD0042824D0082847D0A4
:1019A0006FF400414018F0D111B0BDE8F08F6EB176
:1019B00000267CB1012CE8D13E490598A1F88E03A0
:1019C00030480221801C09F033F864E701264FF00B
:1019D000000B60E737490298A1F88C0302212948DF
:1019E00009F026F839E03EB1ACB1012CCDD1059813
:1019F0001E281BD2401C23E0002C4FF0010408D00D
:101A0000BBF1030FD0D20BF10100C0B28346002519
:101A100051E70020FAE72748B0F8901302980844ED
:101A200080B20290642818D9642026E0012027E0C3
:101A300046B1B4B1012CA8D1059801281FD9401E88
:101A400080B21DE0012C4FF0000408D0BBF1030F61
:101A5000AAD20BF10100C0B2834600251EE7002088
:101A6000FAE71448029AB0F8900300F10A01914293
:101A700002D2101A80B200E00A200290EDE71E2088
:101A8000059008E77C06002000000020DE14010815
:101A900057F100082000000025303364A1E6000063
:101AA00025303264B7D60000253032644D494E00EF
:101AB00040010020F0020020FEE7484000D0012055
:101AC0007047000010B50021044807F09BFD00217D
:101AD000BDE81040042005F057BC0000000800409D
:101AE0002DE9F04102F0EEFA2F4B304C0022A3F822
:101AF000400094F8A0532E49012D02D11D79012DEB
:101B000005D0CA700A711A724A718A7147E01F7A49
:101B10000125642687B1CA70B4F8A1734FF0650C33
:101B200007FB0CF7B7FBF6F7874216D20F79642F45
:101B300011D27F1C0F7111E00A71B4F8A173B84281
:101B400007D2CF78642F02D27F1CCF7006E01D72BF
:101B500004E0CA7002E01A7200E00A71DF797FB116
:101B60004A71B4F8A34367256C43B4FBF6F484428E
:101B700017D28879642812D2401C8871BDE8F081A0
:101B80008A71B4F8A343A04207D24879642802D2EC
:101B9000401C4871F2E7DD71F0E74A71EEE7DA7157
:101BA000ECE78A71EAE7000000000020F002002064
:101BB0001401002030B51A4D044693B00021284688
:101BC00000F01AFD284600F029FD164800900BA8E9
:101BD000019000201021CDE90201402104918021D3
:101BE0000591490006918900CDE907100990080187
:101BF0000A906946284600F086FD0121284600F03B
:101C0000FBFC142004F0FAFAADF84840200CADF8C3
:101C10004A0020210BA802F0A5F913B030BD000046
:101C20003000024087F1000830B51A4D044693B0E9
:101C30000021284600F0E0FC284600F0EFFC1648A2
:101C400000900BA80021CDE9010110200390402055
:101C5000049080200590400006908000CDE90701A7
:101C60000001CDE909106946284600F04CFD01212C
:101C7000284600F0C1FC142004F0C0FA200CADF896
:101C80004A00ADF8484020210BA802F06BF913B0D0
:101C900030BD000030000240C7F10008002490B0C1
:101CA000454F2146454800F0A7FC444800F0B6FCEB
:101CB00043480DAECDE900060620CDE902404FF4C1
:101CC000806BCDE907B44FF48040CDE9094004AA08
:101CD0004FF040084FF080094FF4807AA2E80007E7
:101CE0006946364800F00FFD0121344800F084FCBD
:101CF000142004F083FA06210DA801F06FFB25469D
:101D000060F30F050621B01D01F068FB60F31F456D
:101D100029463D46286B01F079FB002127480B94AA
:101D200000F06AFC254800F079FC0BA80097CDE98B
:101D30000104CDE907B403A90220A1E8010740038B
:101D4000CDE9094069461D4800F0DDFC01211B4832
:101D500000F052FC142004F051FA1A4C4FF4FA66C9
:101D600041F270780B980119E86A01F04FFB0421E9
:101D70000BA801F033FB0146686B01F047FB3046CE
:101D800004F03CFA0CAA4146A86B01F03DFB074663
:101D90009DF8300010B100F03EFDE3E704210BA8F0
:101DA00001F01CFB01463846FFF787FE02493C3133
:101DB00051F820008047D5E7B001002030000240F4
:101DC000E8F7FF1F52DCD1FE98B00024DFF8E4B141
:101DD000149415AA2146DBF8300001F015FB13908E
:101DE0000021754800F008FC734800F017FC13A8A8
:101DF000009001A916A84FF0020AA1E811044FF4BF
:101E00008068CDE907844FF48049CDE90949402530
:101E100004AA8026AF00E0C26946674800F073FC60
:101E20000121654800F0E8FB142004F0E7F90021E7
:101E3000614800F0E1FB604800F0F0FB5F48009073
:101E40000BA8CDE90104CDE9078403AA1020E1C263
:101E5000CDE909496946584800F055FC012156482A
:101E600000F0CAFB142004F0C9F9BDF85800ADF821
:101E70004800BDF85A00ADF84A0020210BA802F036
:101E800071F8ADF85C0000214B4800F0B5FB4A4802
:101E900000F0C4FB494803AA403000900BA8CDE9EC
:101EA0000104CDE907840E20E1C2CDE90949694664
:101EB000414800F028FC01213F4800F09DFB142020
:101EC00004F09CF920210BA802F04CF8ADF85E005C
:101ED0003B480021684405F0D5FD0021364800F05C
:101EE0008BFB354800F09AFB17A80090354801A9F4
:101EF00004AAA1E81104CDE90784CDE90949E0C2AB
:101F000069462D4800F0FFFB01212B4800F074FBCF
:101F1000142004F073F90021274800F06DFB2648D7
:101F200000F07CFB17A8009001A914A8A1E81104F7
:101F3000CDE90784CDE9094904AA6946E0C21E48F3
:101F400000F0E1FB01211C4800F056FB142004F0D6
:101F500055F91D4D5C464FF4FA6641F270771498BE
:101F60004119A06A01F052FA042114A801F036FACE
:101F70000146A06B01F04AFA304604F03FF915AA79
:101F80003946606B01F040FA13909DF8540010B18F
:101F900000F041FCE3E7042114A801F01FFA014618
:101FA0001398FFF78AFD03493C3151F82000804720
:101FB000D5E70000B00100203000024087F10008A2
:101FC0000AFCFFFFF8000020EDEE7FE62DE9F04F60
:101FD0008DB02B4C0BAD00212A4800F00DFB294899
:101FE00000F01CFB1434009402A8002402264FF0D9
:101FF00040084FF080094FF4807A4FF4806B0195D0
:10200000A0E8500F70030894CDE9094069461D48C7
:1020100000F079FB01211B4800F0EEFA142004F0D7
:10202000EDF8174F0CAD0021164800F0E5FA154801
:1020300000F0F4FA02A83437A0E8500F70030894B7
:10204000CDE90940CDE9007569460E4800F05BFB1B
:1020500001210C4800F0D0FA142004F0CFF8DDE99B
:102060000B01884208D0052003F06CFF0A2003F022
:1020700069FF092003F066FF0DB0BDE8F08F000096
:10208000000000201C0002402DE9FC47012403F061
:1020900075FA0026102360A202213046009603F054
:1020A000EFF910235CA205210020009603F0E8F967
:1020B0005E4D5F4FDFF87C812E854FF4FA6900BFDB
:1020C00097F89A0300284CD0002C6CD00020009088
:1020D000072359A20221242003F0D2F9012C64D055
:1020E00000200090062356A20521282003F0C8F9FD
:1020F000002C4FF004035AD024220221202003F0A8
:1021000040FA0423602202215C2003F03AFA0723FC
:1021100023220521202003F034FA07232822052159
:10212000232003F070FA07235D220521582003F0D5
:102130006AFA0723602205215FF05D0003F021FAAF
:1021400001AA4946D8F8000003F0ECFC9DF8041001
:1021500000294ED0288DB0F5967F55D2401C288599
:10216000AEE7E4B100200090062337A20221282028
:1021700003F086F9012C14D000200090062334A22D
:102180000521282003F07CF90423282202212020A5
:1021900003F0F7F904236022022158201CE00120FB
:1021A000E1E70120E9E7012091E7012099E72322F7
:1021B0000221202003F0E5F9042324220221232018
:1021C00003F021FA04235D2202215C2003F01BFAB4
:1021D0000423602202215D2003F0D3F90723282283
:1021E0000521202003F0CDF9072360220521582086
:1021F000A4E72E85012806D0042801D00828AFD1F5
:102200003CB100245CE714B10020BDE8FC8701204C
:10221000FBE7012454E700002020205B2020202041
:10222000202020205D202020000000000000002051
:10223000F002002040010020436F6D6669726D005E
:1022400043616E63656C0000C8B72020C8CF0000F2
:10225000C8A12020CFFB00002DE9F05F05460E4607
:10226000DFF804B1414C424FDFF808810022424BB5
:10227000FEF73AFA0ED2B4F87D0304EBC000B0F8D2
:102280001100FEF7C4F92A463346FEF7B2F80022E1
:102290003A4B65E00022BA463B4628463146FEF7F7
:1022A00023FA22D2B4F87D0304EBC00737F80F4FAE
:1022B00004EB84004000FEF7AAF98046788889463E
:1022C000001BFEF793F904460F46002253462846AA
:1022D0003146FEF788F822463B46FEF78AF8002290
:1022E0005B46FEF7F8F842462BE00022C246434622
:1022F00028463146FEF7F8F9B4F87D0304EBC00038
:1023000024D2B0F80D40804604EB84004000FEF774
:102310007EF90746B8F80F008946001BFEF766F9FC
:1023200080460C460022534628463146FEF75BF8AD
:1023300042462346FEF75DF800225B46FEF7CBF8E7
:102340003A464B46BDE8F05FFDF7ACBFB0F80D0074
:10235000FEF75DF92A463346FEF74BF8084B00229C
:10236000BDE8F05FFEF7B7B800005940F00200206A
:102370000000A9400030A1400068B04000407A4011
:1023800000806B402DE9F04F764D77488FB02E18C6
:10239000764FFDF7C7FE0D9001200B900021744889
:1023A00000F02AF9724800F039F9724800900BA841
:1023B0004FF01009CDE9010901200024CDE9030403
:1023C00005A84FF400784FF4006AA0E810054FF418
:1023D000804B0894CDE9094B6946654800F093F9B4
:1023E0000121634800F008F90A2003F007FF624862
:1023F0006249281A084480080B9000215C4800F0CC
:10240000FBF85B4800F00AF95A4803A90838009025
:102410003806CDE901090B984FF08009CDF81880F6
:10242000A1E81102CDE907A4CDE9094B694650485E
:1024300000F069F901214E4800F0DEF84C4D2846C5
:1024400000F05EF90028FAD10A2003F0D7FE0B98BD
:1024500047F6FF71081A0B900021284600F0CCF8CF
:10246000284600F0DBF8464803A9074445483044B5
:10247000CDE90070102002900B98CDF81880A1E8EB
:102480001102CDE907A4CDE9094B4646D046D9460D
:102490006946284600F037F90121284600F0ACF8DB
:1024A000284600F02DF90028FAD10A2003F0A6FEF4
:1024B00035480B900021284600F09EF8284600F091
:1024C000ADF832490B980097084401A94FF0010A72
:1024D000A1E8110405A80494A0E850010894CDE9EE
:1024E00009496946284600F00EF90121284600F006
:1024F00083F8284600F004F90028FAD10A2003F0F6
:102500007DFE2348002168440B90284600F074F8B3
:10251000284600F083F80B9801A900F5BC3000971D
:102520004D30A1E8110405A80494A0E850010894D6
:10253000CDE909496946284600F0E5F80121284619
:1025400000F05AF8284600F0DBF80028FAD10A20FB
:1025500003F054FE0D98FDF7E9FD0C980FB0BDE8AF
:10256000F08F0000DC200108BA7CEDFF08ECF43F9E
:102570006C00024008300240DFFC9806DFFC98FE49
:10258000F8430D004A831200C7B2FE1F554D0100EB
:10259000E387FEFF7047000001460F23014A02480F
:1025A00003F03CBCC8330020953500080523024ADF
:1025B0000021024803F032BC9C0F00205169000842
:1025C0000D23024A0021024803F028BCC82700203E
:1025D000ED7800080E23024A0021024803F01EBCD9
:1025E000C82A0020B579000810B50A2007F026FB9C
:1025F000BDE8104000F0BCBE0029016802D041F0E7
:10260000010102E04FF6FE721140016070470000C8
:102610000148002100F0CCBA0188201801684FF66B
:10262000FE72114001600021016041608160C16063
:102630003149314A0839904203D1486840F00F00CF
:1026400006E02D4A1432904204D1486840F0F00070
:1026500048607047284A2832904203D1486840F4C5
:102660007060F5E7244A3C32904203D1486840F458
:102670007040EDE7204A5032904203D1486840F460
:102680007020E5E71C4A6432904203D1486840F468
:102690007000DDE7184A7832904203D1486840F074
:1026A0007060D5E7154A111F904203D1086840F0C9
:1026B0000F0006E0114A1432904204D1086840F03D
:1026C000F000086070470D4A2832904203D1086834
:1026D00040F47060F5E7094A3C32904203D1086843
:1026E00040F47040EDE7054A50329042EAD1086864
:1026F00040F47020E5E700000800024008040240B2
:10270000406880B2704730B5036847F6F072934373
:102710000C6A8A682243D1E904452C4322438C6920
:102720002243CC6922434C6A22438C6A22431A43D7
:102730000260CA6842600A6882604968C16030BD50
:102740000148002100F0F0B9F6D703042DE9F0416B
:102750002D4A40F26D1110899379A0F2DD7041434A
:1027600001EB9001002B4CD0C31700EB937323F0C7
:102770000303C01A134603285C781B784FF000004F
:1027800010D0224D4FF4B67615F810709F4204D148
:1027900005EB40077F78A74219D0401C80B2B042B9
:1027A000F2D917E01A4D4FF4B77600BF15F8107044
:1027B0009F4204D105EB40077F78A74204D0401C1C
:1027C00080B2B042F2D305E0B04202D302E0B042A0
:1027D00000D80144D0784FF4616358431379C3EBB8
:1027E000031300EB83005379184440F2A3235943A9
:1027F00000EBC110D06005F017F8BDE8F04105F01E
:102800003FB8BDE8F08100004801002058C0000832
:1028100032C30008704710B5052003F093FBBDE8F4
:1028200010400A2003F08EBB30B54FF0E0240022A8
:10283000A169094B094D5B68B3FBF5F34343A069FC
:10284000884201D2114402E06569114429440A1A00
:1028500001469A42F3D330BD1002002040420F00DF
:1028600010B5FDF75FFC0446042003F06BFB052068
:1028700003F068FB0C2003F065FB102003F062FB03
:10288000112003F05FFB0A2003F05CFB092003F03A
:1028900059FB0D2003F056FB0E2003F053FB0F20D5
:1028A00003F050FB2046BDE81040FDF73FBC0000A0
:1028B0002DE9FC5F5148DFF84C914FF0000890F88B
:1028C000A56390F89A534E4FA9F8288002F056FE5F
:1028D0004D4C4FF0010BCDF8008095B105EB051084
:1028E000044422460F230021042002F0C9FD04F114
:1028F0002202102303210020CDF8008002F0C0FD49
:1029000010E0002122461023084602F0B9FD04F130
:102910002202102303210020CDF8008002F0B0FD38
:1029200034E095B306EBC60007EB800A0AEB05041A
:10293000052314F8202F0321202002F022FECDF8D9
:1029400000B00AEB0512A3782078032102F098FD6D
:102950002078A178052300EBC100C0B260220321DA
:1029600002F00FFE294801AA4FF4FA61006803F053
:10297000D9F89DF8041029B3B9F82810B1F5967F5D
:102980002CD2491CA9F82810CBE7FFE706EBC600BC
:1029900007EB8004052394F820200321282002F06F
:1029A000F0FD22462034CDF800B0A3782078032132
:1029B00002F066FD2078A178052300EBC100C0B2CB
:1029C0005822CCE7A9F82880012809D0042810D083
:1029D00008280ED06FF400414018A2D1BDE8FC9F3A
:1029E0000648012180F8A56300F2A53008F020F820
:1029F000F4E70EB1002694E7012692E7F0020020EA
:102A0000581B010800000020141B01084001002091
:102A100070B51E4A04468EB0D2E90202CDE90B021F
:102A2000022909D20BA850F82100491C201AC9B26A
:102A3000FFF7EEFF0EB070BD154E00213046FFF7D8
:102A4000DBFD144D3046FFF7E9FD13480621204415
:102A5000CDE900050020CDE902014021049180214B
:102A60000591490006918900CDE9071009900801F8
:102A70000A9069463046FFF746FE01213046FFF7CF
:102A8000BBFD142003F0BAFBD4E7000080BD0008B2
:102A90001C000240C0210020D7E6EE0070B51E4A9F
:102AA00004468EB0D2E90002CDE90B02022909D218
:102AB0000BA850F82100491C201AC9B2FFF7EEFFFD
:102AC0000EB070BD154E00213046FFF795FD144D38
:102AD0003046FFF7A3FD134802212044CDE900054D
:102AE0000020CDE902014021049180210591490097
:102AF00006918900CDE90710099008010A906946FE
:102B00003046FFF700FE01213046FFF775FD142027
:102B100003F074FBD4E7000080BD00081C000240F5
:102B2000B0010020A8F2E50730B51D4B04468FB078
:102B30000DCB0BAD03290DC509D20BA850F8210010
:102B4000491C201AC9B2FFF7EFFF0FB030BD154D79
:102B500000212846FFF750FD2846FFF75FFD124889
:102B6000009012480221204401900020CDE902018A
:102B70004021049180210591490006918900CDE909
:102B80000710099008010A9069462846FFF7BBFD27
:102B900001212846FFF730FD142003F02FFBD4E776
:102BA000F0BE000830000240FC0000200928FD1B98
:102BB00030B51D4B04468FB00DCB0BAD03290DC5B1
:102BC00009D20BA850F82100491C201AC9B2FFF7FE
:102BD000EFFF0FB030BD154D00212846FFF70CFD6B
:102BE0002846FFF71BFD124800901248022120449E
:102BF00001900020CDE9020140210491802105913E
:102C0000490006918900CDE90710099008010A9052
:102C100069462846FFF777FD01212846FFF7ECFCBF
:102C2000142003F0EBFAD4E7FCBE000830000240A9
:102C3000FC000020F278E0072DE9F04F474F8DB0FF
:102C40000C460646022905D2491CFFF7F5FF0DB0D8
:102C5000BDE8F08FDFF808810125002140460B9583
:102C6000FFF7CAFC4046FFF7D9FC4FF010093D487A
:102C7000CDE9029500900BA8019000254FF4007A51
:102C80000495CDE9055A4FF40060CDE907054FF4EE
:102C9000804BCDE9095B69464046FFF734FD0121D1
:102CA0004046FFF7A9FC0A2003F0A8FAA846D1463F
:102CB00042F210702A4D4FF4006A07440021284662
:102CC000FFF79AFC2846FFF7A9FC10200097CDE9F2
:102CD00001600220039005A94046CDF81080A1E8CC
:102CE0000106CDF82080CDE9098B69462846FFF71B
:102CF0000AFD01212846FFF77FFC2846FFF700FD6B
:102D00000028FAD10A2003F079FA641ED6D10021F6
:102D10002846FFF771FC2846FFF780FC0121CDE92A
:102D2000028105A94046CDF81080A1E80106CDF842
:102D30002080CDE9098BCDE9007669462846FFF76A
:102D4000E2FC01212846FFF757FC2846FFF7D8FC94
:102D50000028FAD10A2003F051FA78E7F00802407F
:102D60006C000240083002402DE9F04F474F8DB013
:102D70000C460646032905D2491CFFF7F5FF0DB0A6
:102D8000BDE8F08FDFF808810125002140460B9552
:102D9000FFF732FC4046FFF741FC4FF010093D4879
:102DA000CDE9029500900BA8019000254FF4007A20
:102DB0000495CDE9055A4FF40060CDE907054FF4BD
:102DC000804BCDE9095B69464046FFF79CFC012139
:102DD0004046FFF711FC0A2003F010FAA846D1463E
:102DE00042F6F8202A4D4FF4006A07440021284695
:102DF000FFF702FC2846FFF711FC10200097CDE9F1
:102E000001600620039005A94046CDF81080A1E896
:102E10000106CDF82080CDE9098B69462846FFF7E9
:102E200072FC01212846FFF7E7FB2846FFF768FC04
:102E30000028FAD10A2003F0E1F9641ED6D100215E
:102E40002846FFF7D9FB2846FFF7E8FB0121CDE92B
:102E5000028105A94046CDF81080A1E80106CDF811
:102E60002080CDE9098BCDE9007669462846FFF739
:102E70004AFC01212846FFF7BFFB2846FFF740FC2C
:102E80000028FAD10A2003F0B9F978E708050240D2
:102E90006C0002400830024070B51F4A05468EB0F3
:102EA000D2E90102CDE90B021C4C022909D20BA880
:102EB00050F82100491C281AC9B2FFF7EDFF0EB0E7
:102EC00070BD174E00213046FFF796FB3046FFF7E6
:102ED000A5FB1448A4F5C054683C2844CDE9004043
:102EE00000200221CDE902014021049180210591B9
:102EF000490006918900CDE90710099008010A9060
:102F000069463046FFF7FFFB01213046FFF774FBAF
:102F1000142003F073F9D2E7DC20010844390108DA
:102F20001C0002402948150010B501F06DFEBDE8F7
:102F3000104004F0CFBA00002DE9F04F614D624817
:102F40008DB02F1801200B90604E00216048FFF7D4
:102F500053FB5F48FFF762FB5E4800900BA84FF001
:102F60001009CDE9010901200024CDE9030405A8D9
:102F70004FF400784FF4006AA0E810054FF4804B3E
:102F80000894CDE9094B69465148FFF7BCFB012184
:102F90004F48FFF731FB0A2003F030F94E484F4904
:102FA000281A084480080B9000214948FFF724FBA9
:102FB0004748FFF733FB474803A9083800904FF014
:102FC0000060CDE901090B984FF08009CDF8188019
:102FD000A1E81102CDE907A4CDE9094B69463C48B7
:102FE000FFF791FB01213A48FFF706FB384D2846D1
:102FF000FFF786FB0028FAD10A2003F0FFF80B98B0
:1030000047F6FF71081A0B9000212846FFF7F4FAE3
:103010002846FFF703FB324803A9064431483844E9
:10302000CDE90060102002900B98CDF81880A1E83F
:103030001102CDE907A4CDE9094B5746D9466946A7
:103040002846FFF760FB01212846FFF7D5FA2846FE
:10305000FFF756FB0028FAD10A2003F0CFF82248E8
:103060000B9000212846FFF7C7FA2846FFF7D6FA4B
:103070000B98009600F5BA306530CDE901040120C7
:10308000CDE90304CDE90548CDE90774CDE9094947
:1030900069462846FFF737FB01212846FFF7ACFABF
:1030A0002846FFF72DFB0028FAD10A2003F0A6F8E6
:1030B0000B98002100F5BA306530FFF7BDFD0DB06B
:1030C000BDE8F08FDC200108BA7CEDFE6865F33FB7
:1030D0006C00024008300240DFFCA806DFFCA8FEBE
:1030E00098CA0E004A831201CB8BFE1F2DE9F04FC8
:1030F000614D62488DB02F1801200B90604E002169
:103100006048FFF779FA5F48FFF788FA5E48009059
:103110000BA84FF01009CDE9010901200024CDE9E9
:10312000030405A84FF400784FF4006AA0E81005E6
:103130004FF4804B0894CDE9094B69465148FFF79D
:10314000E2FA01214F48FFF757FA0A2003F056F838
:103150004E484F49281A084480080B9000214948DE
:10316000FFF74AFA4748FFF759FA474803A90838D2
:1031700000904FF00060CDE901090B984FF08009F5
:10318000CDF81880A1E81102CDE907A4CDE9094BDB
:1031900069463C48FFF7B7FA01213A48FFF72CFA95
:1031A000384D2846FFF7ACFA0028FAD10A2003F080
:1031B00025F80B9847F6FF71081A0B900021284656
:1031C000FFF71AFA2846FFF729FA324803A90644FE
:1031D00031483844CDE90060102002900B98CDF8BA
:1031E0001880A1E81102CDE907A4CDE9094B5746A3
:1031F000D94669462846FFF786FA01212846FFF797
:10320000FBF92846FFF77CFA0028FAD10A2002F0E1
:10321000F5FF22480B9000212846FFF7EDF92846DC
:10322000FFF7FCF90B98009600F5BC304D30CDE966
:1032300001040120CDE90304CDE90548CDE9077477
:10324000CDE9094969462846FFF75DFA012128467C
:10325000FFF7D2F92846FFF753FA0028FAD10A20DF
:1032600002F0CCFF0B98002100F5BC304D30FFF789
:103270007BFD0DB0BDE8F08FDC200108BA7CDDFEDF
:103280004817F33F6C00024008300240DFFC98060C
:10329000DFFC98FEB8180F004A832201E787FE1F63
:1032A00008B5012000F01CF820B1012000F012F850
:1032B00005F00AFB06208DF8000000208DF80100C3
:1032C0000A218DF802108DF80300684602F074F8A8
:1032D00008BD000001490860704700001404014067
:1032E000064A014600201268044B0A4014331B684A
:1032F0000B4202D0002A00D0012070470004014098
:1033000030B51A498379026853B30B6893430B6055
:103310000A1D13680468A343136002790A44136802
:10332000046823431360114A083213680468A343F6
:103330001360131D1C680568AC431C604479102C95
:1033400005D021440A68006802430A6030BD116854
:10335000046821431160196800680143196030BD99
:103360000079084401689143016030BD00040140C8
:1033700008B50220ADF8000003208DF802001820E7
:103380008DF803006946084800F00AFC0748D0E9B8
:103390000710814201D0012000E00020044951F8CB
:1033A0002000804708BD0000000801400000002008
:1033B0000002002008B506208DF8000000208DF8DE
:1033C00001000A208DF8020001208DF803006846F4
:1033D00001F0F2FF08BDC0B202F0B4BD30B5034643
:1033E00000200246074C0AE013F8015B521C85EAF4
:1033F000102592B234F8155085EA002080B28A4236
:10340000F2D330BDDC1C010802F0B0BA02F016BBEA
:103410002DE9F04FDFF84081002489B02546A8F857
:10342000284002F0ABF8DFF834A14FF010039AF80F
:103430009A030095C0B14AA20021084602F020F884
:10344000A94607234BA203210820009501F0F2FFB3
:1034500000202A2706AD2F54401CC0B20428FAD3FE
:1034600000264FF0200B04E044A2E5E70026B4421A
:1034700006D1A85D0A2803D230308DF8040001E09F
:103480008DF80470B44201D1012000E000200090CA
:103490000BEB0610C0B2012301AA032101F0CAFF01
:1034A000761CF6B2042EE2D3394807AA4FF4FA612B
:1034B000006802F037FB9DF81C1041B1B8F82810E5
:1034C000B1F5967F45D2491CA8F82810CEE74946A9
:1034D000A8F8289001280AD004282CD0082831D038
:1034E0006FF400414018C1D109B0BDE8F08F032C42
:1034F00002D2641CE4B2B9E79AF895139DF818203B
:103500005046914225D190F896139DF8192091428A
:103510001FD190F897139DF81A20914219D19AF86B
:1035200098039DF81B10884213D188F82A90012037
:10353000C8F85090D8E7285D092801D2401C06E061
:10354000295593E7285D401E092800D309202855F6
:103550008CE70020C8E7000000000020F0020020F7
:1035600020456E7465722050617373776F726420AA
:10357000000000005B20202020205D00202020C7CC
:10358000EBCAE4C8EBC3DCC2EB2020200000000043
:103590004001002090B00025DFF8C8B140F287312B
:1035A000AA460F9106465446ABF8285001F0E6FFB4
:1035B000B2B26DA109A807F05BFA082309AA00219D
:1035C0002020009401F05CFF320C6AA109A807F0EA
:1035D0004FFA082309AA02212020009401F050FF8D
:1035E000082367A204212020009401F049FF08234A
:1035F00068A206212020009401F042FF00202A2129
:1036000004AC89462154401CC0B20828F9D3402795
:1036100000264FF00408A05D0A2801D2303002E0F5
:10362000102803D237308DF8240001E08DF8249063
:10363000B54201D1012000E000200090B00808EB65
:10364000400106F0030007EBC000012309AA01F0C6
:1036500017FF761CF6B2082EDDD353480EAA4FF49E
:10366000FA61006802F05EFA9DF838100029CFD1A7
:103670005646ABF828A001280AD0042869D00828AB
:10368000C6D1615D491E0F2900D30F216155BFE7E7
:10369000072D02D26D1CEDB2BAE7002003A94FF648
:1036A000FF7800BF21F8106014F8202008EA0233E8
:1036B00004EB800221F8103092F801C003EB0C23D8
:1036C00021F8103092F802C003EB0C1321F81030EF
:1036D000D2781A4421F81020401CC0B20228E1D34D
:1036E0000A2002F08BFD01F049FF30480399406940
:1036F00002F0A4F9B04610232DA203211820009651
:1037000001F0BEFE0F99042362310E4603AAA020E9
:1037100008F027F83146042306AAA02007F056FF38
:103720004FF47A6002F06AFD01F028FF06990398D1
:103730004FF010038842CDF8008001D11FA200E0B5
:1037400023A20321002001F09BFEFF2002F0FAFBE0
:103750005EE7605D0F2802D2401C605558E7665551
:1037600056E70000000000204944313A2530345823
:10377000000000004944323A25303458000000006F
:103780005247313A202020202020202020202020B5
:10379000000000005247323A202020202020202024
:1037A000202020200000000040010020B001002067
:1037B000C7EBC9D4BAF2A1ADA1AD0000202020C74B
:1037C000EBD6D8D0C2C9CFB5E7202020000000003A
:1037D00020D7A2B2E1C2EBB1A3B4E6CAA7B0DC2005
:1037E0000000000070B5324E0025324CF0790128FF
:1037F00004D0E571307A012838D044E0E0791F2800
:103800001FD00FDC0B281CD005DCD0B1012818D04C
:103810000A2825D115E0142813D0152811D01E2808
:103820001ED10EE033280CD006DC282809D0292828
:1038300007D0322814D104E03C2802D03D280FD113
:1038400003E0032004F0FEFD0AE0032004F0FAFD8B
:103850004FF4FA6002F0D2FC01F0ACFF03F030FA52
:10386000E079642810D2401CE0710DE0607A08B164
:10387000012802D1032004F0E5FD607A0A2802D273
:10388000401C607200E06572B079012801D0257299
:1038900070BD207A18B1012801D0022802D103207E
:1038A00004F0D0FD207A6428F2D2401C207270BD52
:1038B000000000201401002010B50021094A0AE090
:1038C0000478A34206D1531844785B78A34201D10F
:1038D000080110BD891C535C002BF1D14FF6FF701D
:1038E00010BD00000EEF00082DE9F843012104206F
:1038F00003F056FD0121082003F052FD00211020A5
:1039000003F04EFD0021202003F04AFD002140205D
:1039100003F046FD0021802003F042FD00214FF41A
:10392000807003F03DFD0121084603F039FD0121BF
:10393000874800F085F90126DFF81882864F0025B8
:103940004FF6FF7405EB4500ADF80060395C384474
:103950008DF8031041788DF80210807831460128E7
:1039600040467DD000F09FF96946404600F018F9C6
:103970006D1CADB204EA4606102DE3D3764F012646
:10398000DFF8D8813037002505EB4500ADF8006041
:10399000395C38448DF8031041788DF80210807836
:1039A0003146012840467CD000F07DF9694640460A
:1039B00000F0F6F86D1CADB204EA4606102DE3D314
:1039C000654F0126DFF898816037002505EB45003B
:1039D000ADF80060395C38448DF8031041788DF8FB
:1039E000021080783146012840467BD000F05BF918
:1039F0006946404600F0D4F86D1CADB204EA4606B4
:103A0000102DE3D3544F0126DFF85881903700255D
:103A100005EB4500ADF80060395C38448DF80310C3
:103A200041788DF80210807831460128404678D0E0
:103A300000F039F96946404600F0B2F86D1CADB2AD
:103A400004EA4606102DE3D3434F0126DFF8188120
:103A5000C037002505EB4500ADF80060395C00E09B
:103A600060E038448DF8031041788DF802108078BA
:103A700031460128404661D000F015F969464046BC
:103A800000F08EF86D1CADB204EA4606102DE1D3AD
:103A9000314F0126DFF8D480F0370025ADF8006003
:103AA00000E042E005EB4500395C38448DF8031036
:103AB00041788DF80210807831460128404640D088
:103AC00000F0F1F86946404600F06AF86D1CADB2AE
:103AD00004EA4606102DE1D30126DFF89480254F35
:103AE000002500E024E005EB4500ADF80060395CFE
:103AF00038448DF8031041788DF8021080783146F3
:103B00000128404620D000F0CEF86946404600F03B
:103B100047F86D1CADB204EA4606102DE1D3BDE8AE
:103B2000F88308E000F0C1F81EE700F0BEF83DE7BA
:103B300000F0BBF85CE700F0B8F87BE700F0B5F800
:103B40009CE700F0B2F8BDE700F0AFF8DDE7000059
:103B5000000230000008014008BF0008000C0140CE
:103B6000001001400014014000180140001C0140F9
:103B70000020014028C0000810B58A0721F0030486
:103B80000649130F21440F228C689A4094438C609D
:103B90008A68984002438A6010BD0000000001401E
:103BA000F0B5CA78002502F00F03D20601D58A7855
:103BB00013430C784FF00F0E0122ECB1D0F8004007
:103BC0000F8802FA05F63740B74211D14FEA850C4B
:103BD0000EFA0CF724EA070703FA0CF43C43CF78FB
:103BE000282F02D0482F02D002E0466100E0066193
:103BF0006D1C082DE4D304600C88FF2C1ED944688A
:103C00005FF0000606F1080702FA07F50F882F405B
:103C1000AF420FD14FEA860C0EFA0CF7BC4303FA01
:103C20000CF73C43CF78282F00D14561CF78482F3F
:103C300000D10561761C082EE4D34460F0BD00007D
:103C4000F0B5144C002801DAE36900E06368420D26
:103C5000120185B2C0F301579540C0F30346032F0C
:103C600005D0C2020AD50322B240934307E023F0F5
:103C70007062636823F07063636002E0AB4343F0FB
:103C8000706201B12A43002801DAE261F0BD62608E
:103C9000F0BD0000000001400246002092680A4288
:103CA00000D00120704741617047016170470000FA
:103CB0002DE9F04FDFF8E080DFF8E0904FF0000AE8
:103CC00087B098F89A63B8F8A6435546A9F828A093
:103CD00001F054FC324806EB06110A180021174681
:103CE00010230846009501F0CBFB07F122021023B8
:103CF00003210020009501F0C3FBDFF8A8B00127E5
:103D00004D462246DEB128A101A806F0B1FE0323EC
:103D100001AA19465020009701F0B2FB06AA4FF401
:103D2000FA61DBF8000001F0FDFE9DF8181081B18A
:103D3000288DB0F5967F18D2401C2885E1E71CA19C
:103D400001A806F095FE0423032101AA4C20009748
:103D5000E2E7A5F828A001280AD004280FD00828F7
:103D600013D06FF400414018CBD107B0BDE8F08FFD
:103D7000A8F8A6430221104806F05AFEF5E73C2CAD
:103D800001D2641C04E00A24BBE70A2C02D9641E99
:103D9000A4B2B6E73C24B4E7F00200200000002003
:103DA000A01B0108400100202530326453000000B0
:103DB00025303264C3EB0000960600202DE9F05F49
:103DC0004648474C002590F8A523A2B994F8541012
:103DD000012910D1B0F8A633B4F8561003EBC3068E
:103DE00006EB0313B1EB830F03D2491CA4F8561062
:103DF00001E084F85450B0F87D0308286BD2DFF856
:103E0000E4A0DFF8E4B00127384E4FF064084FF02B
:103E10000209012A11D0607901285CD0207E90B37C
:103E200001215846FFF738FF70B320215046FFF7B5
:103E30003AFFF5723573BDE8F09F20215046FFF739
:103E400034FF6079012846D0207EE0B10121584638
:103E5000FFF722FF10B184F85450EAE7F07A032804
:103E600004D2401CF07286F80C80E4E7207E012822
:103E700006D184F81890062004F0E4FA84F838504B
:103E8000A4F856501FE026E007E0401C3073D2E74C
:103E9000357304F82B7F6770CDE7F07A0328E0D301
:103EA000207E012806D184F81890062004F0CAFA72
:103EB00084F83850A4F8565020215046FFF7F5FEFC
:103EC00094F8540008B984F854706564A564307B94
:103ED0006428DDD2D9E784F85450ACE7F002002022
:103EE0000000002000080140000C014014010020E7
:103EF00030B5034600200246074C0AE013F8015B88
:103F0000521C85EA102592B234F8155085EA00203B
:103F100080B28A42F2D330BD80BB000800210F4A34
:103F2000084600BF32F81030401C19440C28F9DB59
:103F300001EB810040000C2190FBF1F04042084968
:103F400000EB800001EB400000EB8000400040F2FD
:103F5000162190FBF1F0FA3000B270477202002097
:103F60002AB5020070B5064642F2D36081EA000429
:103F700043F2F26044400D4640F29160444044F602
:103F800082014C4043F282714C4049F6C8114C40CA
:103F900042F6B3214C4048F648114C4044F294217B
:103FA0004C404DF67C714C4049F679314C4043F61B
:103FB00082014C40444045F6644044404AF2EB10D4
:103FC000444041F6D020444041F291614C4046F6D5
:103FD00017614C40444047F2C74044401C21AFF2B7
:103FE0007B00FFF7FBF960400021084A0BE000BFAF
:103FF00016F8013B491C83EA102389B232F81330CA
:1040000083EA002080B2A942F2D370BDDC1E010811
:1040100030B50023184A1846194600BF32F8104040
:10402000401C21441828F9DB182091FBF0F0134CB8
:1040300000F00F020011B4F90010072A03DA4D1C3A
:10404000A84200D1401E082A03DD491E884200D143
:10405000401C0B49208031F910000A49FF2807D085
:10406000184400EB8000400000224A7200B230BDCC
:1040700001204872FA2030BD420200200A010020CF
:1040800080B900080000002000200C4A014600BF53
:1040900032F81130491C18440429F9DBC11700EB30
:1040A00091700749B1F8A813C1EBA00064214843FF
:1040B00040F6263190FBF1F040B270470C01002031
:1040C000F002002000210A4A084600BF32F81030F2
:1040D000401C19440C28F9D30C20B1FBF0F0C0EBC4
:1040E0000010000140F68C21B0FBF1F080B2704767
:1040F0008A020020134849F66073418A828A11447B
:10410000C28A1144028B1144428B808B11440844B3
:1041100000EB800040000621B0FBF1F000210A4ACC
:10412000984205D901235371084A82F8381000E0FB
:10413000517140F6AC51484345F68841B0FBF1F06F
:10414000704700002402002000000020B002002080
:10415000FEE700002DE9F04FFD48FE4A93B090F8CD
:104160009A534FF0000A042010761046FA49A0F83E
:1041700028A0FA480E9024300D9038380C90243046
:104180000B9024300A9001EB05100F902430129010
:104190000F98F34B4830119005EB051018444F1958
:1041A000109056462230D3465446B14609900DE051
:1041B0005FEA0B0009D0012878D0022877D0BBF144
:1041C000030FF5D1002E73D04EE21EBB012601F085
:1041D000D5F90021C846CDF8009010230846109A62
:1041E00001F04EF9CDF80080102302210020099A39
:1041F00001F046F9CDF80080102304210020099A2F
:1042000001F03EF9CDF80080102306210020099A24
:1042100001F036F9BAF1000F36D00020009097F87F
:10422000223097F8200002210F9A01F029F9504618
:10423000BAF1010F00D00020009097F8463097F8AF
:1042400044000421129A01F01BF9BAF1020F1DD0AB
:104250000020009097F86A3097F868000621119ABC
:1042600001F00EF9BF4808AA4FF4FA61006801F0A6
:1042700059FC9DF8201059B1B648018DB1F5967FD3
:1042800070D2491C0185A0E70120C7E70120E0E7C3
:10429000B04A0128A2F828900BD004285AD0082848
:1042A00061D06FF4004140188FD1F5E065E018E16E
:1042B000BEE1BAF1000F0AD0BAF1010F19D0BAF17C
:1042C000020F7FF475AFA348A0F82490E7E0A64959
:1042D000A0484FF0010B81F838904FF4D2718184DF
:1042E000B0F90E100A2091FBF0F000F5D27084B204
:1042F00044E00026FDF7C8FE0128E2D10021782223
:1043000093484FF4D2744FF4A075DC23B0F87D636A
:10431000491C00EBC606C9B2A6F80B20B0F87D63B5
:10432000042900EBC606A6F80D30B0F87D6300EB5B
:10433000C606A6F80F50B0F87D6300EBC606A6F8D7
:104340001140E3D3834A02211176B0F87D1300EBCC
:10435000C10023E2BAF1020F02D20AF1010007E024
:10436000002008E0F2E0BAF1000F03D0AAF101004A
:10437000C0B200E00220824627E7DEB9012601F044
:10438000FDF8CDF80090E5B30021102308460C9A03
:1043900001F076F81023CDF80090032100200B9A4D
:1043A00001F06EF8CDF800901023062100200A9A43
:1043B00001F066F86748B0F90E100A2091FBF0F1A1
:1043C0006448808C0A1869A101A806F051FB634873
:1043D000CDF80090243800EB050801AA98F82230A7
:1043E00098F82000002101F04BF85A4881890A20F2
:1043F000B1FBF0F25DA101A806F03AFBCDF8009008
:1044000000E028E098F8463098F8440001AA03211B
:1044100001F036F8224655A101A806F029FB01203B
:10442000009098F86A3098F8680001AA062101F017
:1044300027F84C4808AA4FF47A71006801F072FB23
:104440009DF82010E9B14348018DB1F5167F7DD26A
:10445000491C0185ACE6414A0F23243A002104207F
:1044600001F00EF80F23CDF80090032104200E9ADE
:1044700001F006F80F230621CDF8009004200D9AD4
:1044800096E734490128A1F8289073D10CE000BFC9
:104490006FF400414018DDD12E48A0F8249002218D
:1044A000017613B0BDE8F08FB1F90E200A2092FB1F
:1044B000F0F0221AADF81E204FF4A07200F5A070A3
:1044C0004FF0020B8A8484B20CE000BF4FF41670E8
:1044D00084427DD304466BE6002CBBD0641EA4B29C
:1044E00066E6DEB9012601F049F8CDF8009075B313
:1044F0000021102308460C9A00F0C2FF1023CDF8CB
:104500000090032100200B9A00F0BAFFCDF8009034
:104510001023062100200A9A00F0B2FF0D48B0F9DE
:104520000E100A2091FBF0F10A48808C0A180FA1A6
:1045300001A806F09DFA0948CDF80090243800EB58
:10454000050898F8223098F8200014E02DE147E0A3
:10455000F002002000000020A4180108341901080E
:104560006018010840010020B002002025303364AB
:1045700000000000CBE001AA002100F081FF8D487F
:1045800081890A20B1FBF0F2AFF2200101A806F008
:104590006FFACDF8009098F8463098F8440001AAD8
:1045A000032100F06DFF2246AFF2400101A806F0A2
:1045B0005FFA0120009098F86A3098F8680001AA24
:1045C000062100F05DFF08AA4FF47A717A4800E0F6
:1045D000E9E0006801F0A6FA9DF82010A9B18EE08C
:1045E0000F23764A0021042000F04AFF0F23CDF864
:1045F0000090032104200E9A00F042FF0F230621B1
:10460000CDF8009004200D9A86E76A490128A1F8A8
:1046100028907CD1B1F90E200A2092FBF0F0221AEA
:10462000ADF81C20DC22DC304FF0030B8A8484B20E
:10463000012600F0A3FFCDF80090EDB30021102378
:1046400008460C9A00F01CFF1023CDF800900321BF
:1046500000200B9A00F014FFCDF8009010230621E3
:1046600000200A9A00F00CFF5248B0F90E100A2000
:1046700091FBF0F14F48808C0A18AFF2101101A89D
:1046800006F0F6F94D48CDF8009000EB050801AAB8
:1046900098F8223098F82000002100F0F1FE4548FB
:1046A00081890A20B1FBF0F2AFF2401101A806F0B7
:1046B000DFF9CDF8009000E02AE098F8463098F84D
:1046C000440001AA032100F0DBFE2246AFF2641190
:1046D00001A806F0CDF90120009098F86A3098F80A
:1046E000680001AA062100F0CBFE334808AA4FF467
:1046F0007A71006801F016FA9DF82010E9B12D4991
:10470000088DB0F5167F50D2401C088550E519E0A1
:104710000F232A4A0021042000F0B2FE0F23CDF817
:104720000090032104200E9A00F0AAFE0F23062118
:10473000CDF8009004200D9A94E71E490128A1F8B5
:10474000289006D004283FF4C1AE08283FF4C4AE38
:104750009EE6184A0A2006ABB2F90E1091FBF0F063
:10476000201AADF81A007820ADF81800144900207E
:10477000B1F87D5333F8104001EBC50505EB40055A
:10478000401CC0B2A5F80B400428F1D302201076DB
:10479000A2F82490B1F87D0301EBC0000B30082192
:1047A00006F046F97DE6641C99E602490220087687
:1047B00077E60000000000204001002010190108E9
:1047C000F00200202DE9F04F97B0002085490290BB
:1047D00083460C9091F89A03834A14900020108528
:1047E0004FF0400A02E01398002826D101201390D0
:1047F00000F0C4FE14984FF0100300284FF00000A2
:1048000000902ED079A20021084600F039FE002445
:1048100010237BA202212046009400F031FE1023D9
:1048200077A204210020009400F02AFE102374A235
:1048300006210020009400F023FE0024029862214B
:104840002044B0FBF1F201FB1205724805EB0511A3
:1048500008440646FBF7D6FCC7B2A34503D10120A6
:1048600002E06DA2CFE700200090324602207B429A
:1048700000EB44060AEB8309F1B209F0FF003B4666
:1048800000F0FEFD042000EB440808F0FF0309F0EF
:10489000FF02F1B2282000F074FE0AEB870008F056
:1048A000FF03F1B2C0B2582200F06BFE6A1C5FA198
:1048B0000DA806F0DDF84B4FB7F87D03A84201D1F3
:1048C000012000E000200090F1B202230DAA082090
:1048D00000F0D6FD781990F81B03012806D00021BE
:1048E000544808F0FF03CDE900010BE0B7F87D0361
:1048F000A84201D1012000E000204F49CDE900107D
:1049000008F0FF03F1B27822682000F003FE641C77
:10491000E4B2032C92D3494812AA4FF4FA6100681A
:1049200001F000F99DF8481039B12F49088DB0F514
:10493000967F0FD2401C088555E72B4A002101289D
:1049400011850AD0042827D0082836D06FF40041FA
:104950004018F1D117B0BDE8F08F00200C900298FC
:1049600000EB0B026220B2FBF0F100FB11211D48AD
:10497000B0F87D238A42DFD0084490F81B1349B178
:104980005FF0000180F81B1300F21B30012106F0DC
:104990004FF828E70121F5E7BBF1020F02D20BF136
:1049A00001000FE002985F2801D2401C12E05F2056
:1049B000029012E0401CC0B207E0BBF1000F06D02D
:1049C000ABF1010000F0FF0B00200C900BE7029808
:1049D00018B1401EC0B2029005E70C980328E9D335
:1049E000B8E70000F0020020000000202020205442
:1049F000697020456E61626C652020200000000017
:104A00005B20205D5B2020202020205D5B20205D3E
:104A100000000000FF05010820202020BAB8BED702
:104A2000B9DCC0ED202020200000000025303264D9
:104A30000000000027F1000807F1000840010020F5
:104A40002DE9F04F684F0025A1B04FF001092C4629
:104A50002E4687F8269000F091FD64480DF1040879
:104A6000B0F87D13821992F81B23012A06D108F8A9
:104A700005608E4200D12C466D1CEDB2761CF6B25C
:104A8000622EEFD359480026009690F89A0310231F
:104A900000EB001156480A183146304600F0F0FC91
:104AA0003E854FF0400B01A8005D00EB001151481E
:104AB00001441AA8FBF7ADFB1AA8FBF7A3FBC6B28B
:104AC00077422C204FF0000800EBC700C0B2012352
:104AD00049A20321CDF8008000F0ACFC01200BEBD3
:104AE000C70A00900AF0FF0033461AAA032100F01B
:104AF000A1FC442000EBC60909F0FF0001233FA2FE
:104B00000321CDF8008000F095FC302000EBC708B1
:104B100008F0FF0207230321002000F032FD3C20B3
:104B200000EBC7000AF0FF02C0B20723032100F028
:104B300028FD08F0FF0207230321002000F021FDDB
:104B40000BEBC60009F0FF02C0B20723032100F0FF
:104B500018FD502000EBC600C0B2072380220321BD
:104B600000F00FFD26481FAA4FF4FA61006800F01C
:104B7000D9FF9DF87C1039B11B48018DB1F5967FA6
:104B80000FD2491C01858EE7174A002101281185A3
:104B90000ED004281AD008281FD06FF40041401806
:104BA00081D11149002081F8260021B0BDE8F08FA5
:104BB00001A8015D0D48A0F87D130B49002081F884
:104BC000260002210F4805F033FFEEE7681E8442FD
:104BD00001DA641C03E0002465E714B1641EE4B24A
:104BE00061E7681EC4B25EE700000020F00200200A
:104BF000E30C0108FF0501085B0000005D000000F8
:104C0000400100206D06002001480021FDF700BF93
:104C10001011121F2DE9F00F3649022382468B72C4
:104C2000C8240C80FA2048804FF4967088804FF496
:104C3000AF70C8806000088100207825DFF8B89048
:104C4000DC264FF4A0774FF4D27C00BF01EBC0020A
:104C500001EB000822F80B5F56809780A2F806C08F
:104C600019F80020401CC0B288F81B236228EDD33D
:104C700001F56071032021F8030C21F8014C4B7001
:104C80004FF4617048800B714000A1F8050032209C
:104C900088810522CA810120C87107240C814881BE
:104CA0000A8200258D74A1F8132008244C758C7598
:104CB000CC750C764876C8768D7781F82050B42470
:104CC000A1F82340C624A1F82140CB778A831E2275
:104CD000CA8481F8250040F60A20088581F81AA0C8
:104CE000D3204885BDE8F00F4FF46B71014805F003
:104CF0009FBE0000F0020020810C01082DE9FC415C
:104D0000044600F03BFC00260F2338A202210420B9
:104D1000009600F0B5FB0F2334A205210420009675
:104D200000F0AEFB364D2E850CB9012000E00020CE
:104D30000090082333A20221202000F0A1FB012CC7
:104D400037D000200090072331A20521242000F055
:104D500097FB012C4FF007034FF024024FF00501A1
:104D60004FF0200027D000F00CFC07236022052123
:104D70005C2000F006FC642001F040FA02F0A8FD7F
:104D80000028F8D1642001F039FA234F386800F088
:104D9000B9FE01AA4FF4FA61386800F0C3FE9DF82D
:104DA000041089B1288DB0F5967F1CD2401C28854F
:104DB000BAE70120C6E700F026FC072360220521A0
:104DC0005C2000F020FCD6E72E85012806D00428C0
:104DD00001D00828A8D124B10024A6E72046BDE8C8
:104DE000FC810124A3E70020F9E7000020205B20DC
:104DF00020202020202020205D20202000000000F6
:104E000000000020BCF2CCE5D6D0CEC400000000EB
:104E1000454E474C495348004001002070B52A4C8C
:104E20002078002825D002F053FD20614FF6FF7650
:104E30000025E06190B325494D648D64E1688842A6
:104E400001D0E06033E06069401C6061A2788AB103
:104E5000627A012A0DD1E27890420AD341F40041EE
:104E6000A06900F0CBFE6561E078042801D9401EFE
:104E7000E07070BD0122032806D09628F9D1A270F7
:104E80006078012802D007E0627070BD657041F45F
:104E90000041A06900F0B2FE656170BDFFE7607877
:104EA000012803D1E168A06900F0A8FEE560656112
:104EB0006570A570607A0128EFD165723146A069EE
:104EC000BDE8704000F09ABE2801002000000020DC
:104ED00010B50A21054800F0D7FD0549886100207A
:104EE000487288720120087010BD0000A00F0020D9
:104EF000280100202DE9FC473A4F3B4D002697F84A
:104F00009A432E8500F03AFB0F2338A20221042099
:104F1000009600F0B5FA0F2334A205210420009674
:104F200000F0AEFADFF8D8804FF4FA690CB901202E
:104F300000E000200090082332A20221202000F08F
:104F40009FFA012C29D000200090072330A20521D0
:104F5000242000F095FA012C4FF007034FF02402B3
:104F60004FF005014FF0200019D000F00AFB072395
:104F7000602205215C2000F004FB01AA4946D8F814
:104F8000000000F0CFFD9DF8041089B1288DB0F528
:104F9000967F18D2401C2885C8E70120D4E700F08E
:104FA00032FB0723602205215C2000F02CFBE4E7A4
:104FB0002E85012809D004280ED008280CD06FF4C3
:104FC00000414018B2D1BDE8FC8787F89A4301211F
:104FD000114805F02DFDF6E70CB10024A7E70124E8
:104FE000A7E70000F00200200000002020205B2046
:104FF00020202020202020205D20202000000000F4
:1050000040010020BCF2CCE5D6D0CEC400000000A8
:10501000454E474C495348008A06002010B50648C3
:105020000021FDF739FF05480021FDF735FFBDE8F8
:10503000104000F005B80000C6B8EB1FF6B7EB1F34
:105040002DE9F04F8BB0284D00212848FDF7D4FA08
:105050002648FDF7E3FA02A8002402274FF0400893
:105060004FF080094FF4807A4FF4806BA0E8900FE6
:105070001F4E0894F013CDE909401035CDE90065C5
:1050800069461A48FDF73FFB01211848FDF7B4FABD
:10509000142001F0B3F80021284600F02BF8103D51
:1050A00000211248FDF7A8FA1048FDF7B7FA02A848
:1050B0001435A0E8900FF0130894CDE90940CDE92C
:1050C000006569460948FDF71EFB01210748FDF709
:1050D00093FA142001F092F80021284600F0A2F87B
:1050E0000BB0BDE8F08F0000000000201C00024063
:1050F000F00000202DE9F04F474F8DB00C460646DA
:10510000022905D2491CFFF7F5FF0DB0BDE8F08F6D
:10511000DFF808810125002140460B95FDF76CFA68
:105120004046FDF77BFA4FF010093D48CDE9029566
:1051300000900BA8019000254FF4007A0495CDE96A
:10514000055A4FF40060CDE907054FF4804BCDE9D7
:10515000095B69464046FDF7D6FA01214046FDF756
:105160004BFA0A2001F04AF8A846D14644F62060DE
:105170002A4D4FF4006A074400212846FDF73CFA07
:105180002846FDF74BFA10200097CDE90160022078
:10519000039005A94046CDF81080A1E80106CDF89E
:1051A0002080CDE9098B69462846FDF7ACFA01213C
:1051B0002846FDF721FA2846FDF7A2FA0028FAD181
:1051C0000A2001F01BF8641ED6D100212846FDF705
:1051D00013FA2846FDF722FA0121CDE9028105A93B
:1051E0004046CDF81080A1E80106CDF82080CDE939
:1051F000098BCDE9007669462846FDF784FA01213E
:105200002846FDF7F9F92846FDF77AFA0028FAD181
:105210000A2000F0F3FF78E7E0E101406C00024073
:10522000083002402DE9F04F474F8DB00C4606463E
:10523000032905D2491CFFF7F5FF0DB0BDE8F08F3B
:10524000DFF808810125002140460B95FDF7D4F9D0
:105250004046FDF7E3F94FF010093D48CDE90295CE
:1052600000900BA8019000254FF4007A0495CDE939
:10527000055A4FF40060CDE907054FF4804BCDE9A6
:10528000095B69464046FDF73EFA01214046FDF7BD
:10529000B3F90A2000F0B2FFA846D14645F2082033
:1052A0002A4D4FF4006A074400212846FDF7A4F96F
:1052B0002846FDF7B3F910200097CDE901600620DC
:1052C000039005A94046CDF81080A1E80106CDF86D
:1052D0002080CDE9098B69462846FDF714FA0121A3
:1052E0002846FDF789F92846FDF70AFA0028FAD181
:1052F0000A2000F083FF641ED6D100212846FDF766
:105300007BF92846FDF78AF90121CDE9028105A93B
:105310004046CDF81080A1E80106CDF82080CDE907
:10532000098BCDE9007669462846FDF7ECF90121A5
:105330002846FDF761F92846FDF7E2F90028FAD181
:105340000A2000F05BFF78E7F8DD01406C000240C6
:105350000830024008B540F2F33104236A46A02029
:1053600006F0E6F8009808BD70B540F2AE330F4A7B
:105370000021A02006F08EF84FF46B710B48FEF769
:10538000B7FD0A4C0A4DB4F8AC13814203D1B4F80E
:10539000AA03D32805D00020FFF73CFC0120A5F884
:1053A000420094F89F03287670BD0000F0020020B0
:1053B00000000020FEE77047F0B50F21C4780278A6
:1053C00001234FF0E026DCB1124C2468457804F448
:1053D000E064C4F5E064240AC4F10407E140847881
:1053E000BD400C402C4321010B4C1155007800F0BE
:1053F0001F018B40400906EB8000C0F80031F0BD72
:1054000002F01F008340500906EB8000C0F8803195
:10541000F0BD00000CED00E000E400E002490843AC
:1054200002490860704700000000FA050CED00E03A
:10543000704700002DE9FC4F00241E4691468A4625
:105440000E4F0D1DDDF82CB014E000BF19F804104C
:10545000702811D807EB8111CDE9001B00F1100174
:105460008846CAB2EBB2514600F054F8641C08F00A
:10547000FF00E4B2B442E9D3BDE8FC8F0ECF0008D0
:105480002DE9FE4F002598461746894604468E1C96
:10549000DDF830B035E0454536D2A0281BD9702C58
:1054A00032D88DF80800781940788DF8090002A8E4
:1054B000FEF702FA154A04F1100A1044CDE9000B78
:1054C000F3B20AF0FF024946204600F023F80AF042
:1054D000FF04AD1C14E0782C16D80D4A8DF8080096
:1054E00002EB0010CDE9000B04F1080AF3B20AF058
:1054F000FF024946204600F00DF80AF0FF046D1C3B
:10550000EDB2785D0028C6D1BDE8FE8F67F10008D6
:105510000EC700082DE9F04F0024DDE9099A9846EE
:1055200017468346802A00D98027B8F1080F01D991
:105530004FF008080D461DE02946584600F03DF999
:1055400000F088F8402000F0A7F85E460CE000BFAD
:1055500019F80400BAF1010F01D1C043C0B2641CB4
:1055600000F09AF8761CF6B2BE42F1D300F084F84F
:105570006D1CEDB24545DFD3BDE8F08F002000F093
:1055800027B82DE9F0411F4616468046802A00D9EB
:105590008026082F00D908270C4615E021464046F2
:1055A00000F00BF900F056F8402000F075F8454681
:1055B00004E0002000F070F86D1CEDB2B542F8D3A5
:1055C00000F05AF8641CE4B2BC42E7D3BDE8F081B5
:1055D00070B5064600242146002000F0EEF800F0E9
:1055E00039F8402000F058F80025304600F054F813
:1055F0006D1CEDB2802DF8D300F03EF8641CE4B2CF
:10560000082CE8D370BD2DE9F0411F4616468046B0
:10561000802A00D98026082F00D908270C4615E0DB
:105620002146404600F0C9F800F014F8402000F090
:1056300033F8454604E0FF2000F02EF86D1CEDB273
:10564000B542F8D300F018F8641CE4B2BC42E7D3CA
:10565000BDE8F081064A10201060064B0021197049
:1056600008211160121D10601160782000F014B83C
:10567000100C0140AC010020054910200860054ACB
:105680000021117002490822091F0A600860704752
:10569000140C0140AC010020F0B5114E00220F4D5A
:1056A0001024331D0821070601D5346000E01C607A
:1056B0004006000E002731601960521CD2B2082A41
:1056C000F1D32F70346031600548083800681960E4
:1056D000C00601D40120F0BD0020F0BDAC010020C7
:1056E000100C014000B5FFF7B5FF0020FFF7D4FF15
:1056F000AE20FFF7D1FFAE20FFF7CEFF0020FFF76F
:10570000CBFF1020FFF7C8FF4020FFF7C5FF812027
:10571000FFF7C2FF6620FFF7BFFFA120FFF7BCFF26
:10572000C820FFF7B9FFA620FFF7B6FFA820FFF7B4
:10573000B3FF3F20FFF7B0FFD320FFF7ADFF0020FE
:10574000FFF7AAFFD520FFF7A7FF8020FFF7A4FFF0
:10575000D920FFF7A1FFF120FFF79EFFDA20FFF726
:105760009BFF1220FFF798FFDB20FFF795FF4020FB
:10577000FFF792FF2020FFF78FFF0220FFF78CFF3B
:105780008D20FFF789FF1420FFF786FFA420FFF785
:1057900083FFA620FFF780FFAF20FFF77DFFFFF715
:1057A0006BFF0020FFF714FF002108465DF804EBB3
:1057B00000F003B8AE20FFF76FBF30B50D460446CA
:1057C000FFF748FF0020FFF767FFB035E8B2FFF7AB
:1057D00063FF102040EA1410FFF75EFF04F00F0093
:1057E000FFF75AFFBDE83040FFF746BF70B586B0FF
:1057F00000F06CF82E4D00242C63AC70EC702C7211
:10580000EC71EC60EC61AC616C616C70AC71204669
:1058100005F134010C54401CC0B20828FAD32C7195
:105820006C71AC622C6200F0FBFD4FF4C871214832
:1058300000F028FE1F4A0020411C00EB80008BB2C4
:1058400002EB800003EB830302EB830304704360ED
:1058500088B21328F0D300EB800002EB80000470C4
:1058600044602A6100F018FE80261348CDE9010645
:105870004FF6FF70009003253F23104A0021104887
:10588000CDE9034500F00EFB0E48CDE901064FF6C9
:10589000FE70094A00903E23121F00210A48CDE9FC
:1058A000034500F0FFFA06B0BDE8704000F00FB805
:1058B00058010020C80F0020581300205415002064
:1058C0002966000858110020456600087047704797
:1058D00070B5144CE079012822D1FAF723FC054673
:1058E000A07820B1401E10F0FF00A07013D1E07826
:1058F00088B900F015FE0C48617950F82100A062CB
:105900002279914207D0416B491C4163E068401CF9
:10591000E060FAF723FC2846BDE87040FAF706BCC1
:1059200070BD0000580100205815002070B50546D4
:105930000C48007808B1002070BDFAF7F3FB0A4963
:105940000C680CB162680A60FAF7F0FB3CB1012008
:105950002070002020812046656000F057FD204621
:1059600070BD00005A010020680100202DE9F047B9
:10597000074600788A461446012801D0012008E035
:105980002B48007808B1022003E02A48007820B1B3
:105990000D2010700020BDE8F087FAF7C3FB7D688A
:1059A000064600213DB1884630467960FAF7BEFBD5
:1059B00084F8008039E0DFF880908846D9F800004C
:1059C00010F82C2F42F002020270417040F804AC33
:1059D000384600F0F7FC3046FAF7A8FB00F07CFDF3
:1059E000FAF7A0FB0646D9F8000090F82D1031B167
:1059F000022908D0394600F0C1FC0A2004E0456ABB
:105A000084F8008001E00E202070D9F800103046A4
:105A10001C3181F8108081F81180C1F80080C1F834
:105A20000480C1F80880FAF781FB2846B3E700003C
:105A30005A0100205B0100207801002070B5044667
:105A400000780D46012801D0012070BDFAF76AFBED
:105A50000646A07A58B1002302222946204600F0CB
:105A600051FC3046FAF762FB00F036FD0AE0606850
:105A700020B13046FAF75AFB142070BD30466560FD
:105A8000FAF754FB002070BD2DE9F04107461A4893
:105A90008846007810B10020BDE8F081FAF742FB9B
:105AA000164E34680CB161683160FAF73FFB04B3FD
:105AB000FAF738FB12490D68ADB12A680A60FAF7A7
:105AC00035FB07EB8800C5E90170EF602F61A5F891
:105AD00014800020E8820221217020812046656028
