:020000040800F2
:10000000501C0020750200087D0200087F020008D5
:100010008102000883020008850200080000000039
:10002000000000000000000000000000870200083F
:1000300089020008000000008B0200088D02000801
:100040008F0200088F0200088F0200088F0200084C
:100050008F0200088F0200088F0200088F0200083C
:100060008F0200088F0200088F0200088F0200082C
:100070008F0200088F0200088F0200088F0200081C
:100080008F0200088F020008B92800088F020008BC
:100090008F0200088F0200088F0200088F020008FC
:1000A0008F0200088F0200088F0200088F020008EC
:1000B000517D0008857D00088F0200088F0200082E
:1000C0008F0200088F0200088F0200088F020008CC
:1000D0008F0200088F0200088F0200088F020008BC
:1000E0008F0200088F0200088F02000800F002F85B
:1000F00000F0B0F80AA090E8000C82448344AAF112
:100100000107DA4501D100F0A5F8AFF2090EBAE80F
:100110000F0013F0010F18BFFB1A43F0010318473B
:10012000C4D60000E4D600000A444FF0000C10F8DA
:10013000013B13F0070408BF10F8014B1D1108BF65
:1001400010F8015B641E05D010F8016B641E01F805
:10015000016BF9D113F0080F1EBF10F8014BAD1C55
:100160000C1B09D16D1E58BF01F801CBFAD505E073
:1001700014F8016B01F8016B6D1EF9D59142D6D3CD
:10018000704700000023002400250026103A28BFF5
:1001900078C1FBD8520728BF30C148BF0B607047F9
:1001A0006E2900F06487702900F04382662908F008
:1001B0007D85652908F07A85672908F077856129AA
:1001C00008F0768503681B0A28BF41F08001692981
:1001D00000F01E81642900F01B81752900F0188150
:1001E0006F2900F0D081782900F00F82E92900F012
:1001F000A587E42900F0A287F52900F09F87EF2961
:1002000000F0CD81F82900F00E820368DB0928BFD9
:1002100041F08001632900F06E87732900F0738735
:10022000E32900F07E87F32900F0838700207047E0
:100230001FB501F0B1FE04000020002108F00AFD06
:10024000401C60600020002108F01AFDE0601FBD26
:1002500010B510BD01F07BFE1146FFF7E9FF08F075
:100260002DFA01F04FFF03B4FFF7F2FF03BC01F0DA
:1002700053FF00000948804709480047FEE7FEE7B2
:10028000FEE7FEE7FEE7FEE7FEE7FEE7FEE7FEE746
:1002900004480549054A064B70470000DD7C00080C
:1002A000ED00000850160020501C002050180020BF
:1002B000501800207CB51D4616460C00009001D059
:1002C0002044401E074B7B442A4669460190304635
:1002D00000F0E7FE05461CB10020694600F0F4FE80
:1002E00028467CBD090E00000FB41CB5084B06AAB9
:1002F0007B4469460090059800F0D3FE0446002038
:10030000694600F0E1FE20461CBC5DF814FB0000CD
:10031000D50D00000FB47CB50C0009AA009001D0E7
:100320002044401E084B7B4469460190089800F029
:10033000B8FE05461CB10020694600F0C5FE2846FF
:100340007CBC5DF814FB0000A90D000070B50446EC
:1003500085690068C10601D5302600E02026C00767
:1003600007D070BDD4E9012130469047206A401C77
:1003700020626D1EF6D570BD70B5044685690078A3
:10038000C00707D170BDD4E9012120209047206A21
:10039000401C20626D1EF6D570BD09684A0501D566
:1003A00040B27047C905FCD500B2704709684A05DC
:1003B00001D5C0B27047C905FCD580B2704770B591
:1003C0000C460546012A05D02878800600D5EA6942
:1003D000002302E0012305E05B1C934202D2E05CB3
:1003E0000028F9D1A869E618C01AA861286A18443B
:1003F00028622846FFF7AAFF04E0D5E9012114F896
:10040000010B9047B442F8D32846FFF7B5FF70BD03
:100410002DE9F0410646002410687529314616A5DD
:1004200010D0FFF7BAFF002802DA404213A507E018
:1004300031688A0701D512A502E0490704D511A544
:10044000012401E0FFF7B2FF00210A2206F1240790
:1004500009E0B0FBF2FCB0FBF2F302FB1C00303011
:1004600078541846491C0028F3D123462A463046C2
:10047000BDE8F04100F0A2BD000000002D0000002A
:100480002B000000200000002DE9FF5F15468A4682
:100490000446DFF8AC80F8440027D8E900103E4657
:1004A000CDE9001010E03AF816106A4602A800F0F4
:1004B000FFFE411C07D02178890603D5E26939186F
:1004C00091420DD80744761C2078800602D5E06959
:1004D000B84205DDAE42E6DB3AF816000028E2D16C
:1004E000A069C01BA0612046FFF730FFD8E90010CB
:1004F000CDE90010002017E03AF818106A4602A86B
:1005000000F0D6FEB0F1FF3F81460BD000250DF183
:10051000080B05E0D4E901211BF8050090476D1C8C
:100520004D45F7D308F10100B0428046E4DB206A74
:10053000384420622046FFF71FFFBDE8FF9F000000
:10054000FEC2000030B4002100F1240408E002F0F3
:100550000705D208303542EA4372DB086554491C6E
:1005600052EA0305F3D10468002310A2250707D53A
:10057000A40600D421B1C46901230DA2641EC46184
:1005800030BC00F01BBD10B5044621461068FFF7D3
:100590000DFF02462046BDE810400023D2E7D21DE1
:1005A00022F00701D1E90023CCE7000000000000A1
:1005B00030000000F0B40D460188090502D5214C39
:1005C0007C4402E01F4C7C440E34002100F12406E0
:1005D00008E002F00F071209E75D42EA03721B0907
:1005E0007754491C52EA0307F3D10278002312071B
:1005F00004D5702D06D009B1022311342246F0BC77
:1006000000F0DCBC01231034F8E770B504460D4659
:1006100021461068FFF7CAFE024629462046BDE87B
:1006200070400023C6E7D21D22F00703D3E9002360
:10063000C0E70368126843F0200303600823C36126
:100640000023B7E7DCC100002DE9F05F89460446CE
:100650004FF0000ADFF874B1FB44C0F820A0204638
:10066000E1688847002874D0252806D0D4E9012104
:100670009047206A401C2062F1E700265F46204632
:10068000E16888472028054607DB312D05D2781917
:1006900010F8200C08B10643F1E7B00701D526F0A9
:1006A0000406C4F81CA00027C4F818A02A2D09D0FD
:1006B000284607F0F9FC38B304EB8708303DC8F84A
:1006C000185019E059F8041B204604EB8702916189
:1006D000E1688847012F054618D1E069002820DA33
:1006E00026F020061DE0D8F8180000EB800005EB8E
:1006F00040003038C8F818002046E16888470546B1
:1007000007F0D2FC0028EED1012F0AD02E2D08D1FF
:100710002046E16888477F1C0546022F46F02006E8
:10072000C4DBA069002803DA404246F00106A0615C
:10073000F00701D026F010066C2D0BD0682D09D0E3
:100740004C2D39D06A2D35D0742D35D07A2D33D03B
:1007500016E038E0E1682F4620468847B842054653
:1007600009D16C2F26D04FF48060E1680643204603
:100770008847054604E06C2F1AD04FF4807006437A
:100780000DB3A5F14100192802D8203546F40066C2
:100790004A462946204626604E46FFF701FD80B1B5
:1007A00001280BD0F61D26F0070000F1080956E7D6
:1007B0004020E4E78020D8E70020D6E706F10409CE
:1007C0004DE7284652E7206ABDE8F09F6CC1000063
:1007D0000FB400B58DB010A9099000910B904FF0A7
:1007E000FF300A9000200C90064878440690064896
:1007F00078446A4607900F9909A800F0F1FC0DB003
:100800005DF814FB130A00002B0A00002DE9FF5FBE
:100810001D464FF0FF3B91464FF000085F46D5E97B
:100820000146A96901987F1C8847296A8246884742
:100830000028F6D1BAF1FF3F0CD0002E24F4C0649A
:1008400019DD600614D5BAF12B0F09D0BAF12D0FBE
:100850000ED103E0584604B0BDE8F09F44F4806434
:10086000A96901987F1C8847761E8246002E02DD0A
:10087000BAF1300F03D0B9F1000F26D032E0A969E8
:10088000761E01987F1C44F400748847002E82462F
:1008900005DDBAF1780F06D0BAF1580F03D0B9F1DF
:1008A000000F10D01EE0B9F1000F02D0B9F1100F07
:1008B00018D1A969761E01987F1C24F4007488471A
:1008C0008246102002E0082000E00A20814609E06C
:1008D000A96908FB0908761E01987F1C44F400747E
:1008E00088478246002E05DD4946504600F064FCEC
:1008F0000028EDDAE96901988847A00502D46FF075
:100900000100A8E7E00725D1600613D5600502D5F0
:10091000C8F1000000E0404629680A1D2A60096805
:10092000220501D5087015E0220701D5088011E0E5
:1009300008600FE02868011D29600068210502D5C4
:1009400080F8008006E0210702D5A0F8008001E0D1
:10095000C0F8008038467EE72DE9FF5F4FF00008C1
:100960009946144646469169D2E901A7DDF838B0A8
:1009700001988847054659EA0B0005D009E0A169AE
:100980000198761C88470546216A28468847002832
:10099000F5D1681C03D05FEACA7005D015E04FF0AE
:1009A000FF3004B0BDE8F09F2068011D2160D0F841
:1009B00000800AE05FEACA7001D108F8015BA16912
:1009C000761C01987F1E88470546002F1ADD681C9B
:1009D00018D0B9F1000F0DD0E81705EBD060421127
:1009E00020F01F0059F822102A1A012090400142DD
:1009F000E0D107E0BBF1000FDCD12846216A88472F
:100A00000028D7D0E16901988847BBF1000F07D1D2
:100A1000002E05DD5FEACA7002D1002188F80010BF
:100A2000A068B84203DDBBF1000F03D017B16FF02F
:100A30000100B6E73046B4E770B5064600F0BAFAF2
:100A40000468054630460A22002100F0F9FB2C60BC
:100A500070BD40EA0103024630B59B0710D14FF04C
:100A6000013400E008C208C91D1B9D4315EAC41FDC
:100A7000F8D013F0FF0102F8011B0DD01B0AF8E7B4
:100A800011F8013B002B02F8013B05D011F8013BA6
:100A9000002B02F8013BF3D130BD421E12F8013F9A
:100AA000002BFBD111F8013B002B02F8013BF9D1DF
:100AB0007047032A40F2308010F0030C00F01580DC
:100AC00011F8013BBCF1020F624498BF11F801CB51
:100AD00000F8013B38BF11F8013BA2F1040298BFB6
:100AE00000F801CB38BF00F8013B11F0030300F020
:100AF0006780083AC0F0088051F8043B083A51F882
:100B000004CBA0E80810F5E7121D5CBF51F8043BC8
:100B100040F8043BAFF30080D20724BF11F8013B3B
:100B200011F801CB48BF11F8012B24BF00F8013B9D
:100B300000F801CB48BF00F8012B7047431A28BFCB
:100B40009A427FF6B6AF032A1044114440F2268041
:100B500010F0030F1EBF11F8013D521E00F8013DB9
:100B600010F0030F7FF4F6AF11F0030300F0D3830E
:100B7000083AC0F00B8051F8043D083A51F804CD12
:100B800040F8043D40F804CDFFF7F3BF121D5CBFF1
:100B900051F8043D40F8043DAFF30080D20724BF74
:100BA00011F8013D11F801CD48BF11F8012C24BF07
:100BB00000F8013D00F801CD48BF00F8012C704756
:100BC00010B5203AC0F00B80B1E81850203AA0E8E8
:100BD0001850B1E81850A0E81850BFF4F5AF5FEA1C
:100BE000027C24BFB1E81850A0E8185044BF18C9CF
:100BF00018C0BDE810405FEA827C24BF51F8043B76
:100C000040F8043B08BF7047D20728BF31F8023BC9
:100C100048BF11F8012B28BF20F8023B48BF00F85D
:100C2000012B704702F0FF0343EA032242EA02422B
:100C300000F002B84FF000020429C0F0128010F05A
:100C4000030C00F01B80CCF1040CBCF1020F18BFA8
:100C500000F8012BA8BF20F8022BA1EB0C0100F03B
:100C60000DB85FEAC17C24BF00F8012B00F8012B0E
:100C700048BF00F8012B70474FF0000200B5134643
:100C800094469646203922BFA0E80C50A0E80C50AC
:100C9000B1F12001BFF4F7AF090728BFA0E80C505D
:100CA00048BF0CC05DF804EB890028BF40F8042B56
:100CB00008BF704748BF20F8022B11F0804F18BFC3
:100CC00000F8012B704700004FF0013C50F8042B56
:100CD00051F8043B9A4221D1A2EB0C03934313EA4F
:100CE000CC1317D150F8042B51F8043B9A4215D17C
:100CF000A2EB0C03934313EACC130BD150F8042B53
:100D000051F8043B9A4209D1A2EB0C03934313EA36
:100D1000CC13DBD04FF00000704700BFD01A01BAEF
:100D2000B1FA81F101F0180122FA01F0CB40C1F1D2
:100D30002001DBB2C0B2C01A2CFA01F3D11A9143E0
:100D400011EAC311E6D1704710B503681C1404EB17
:100D500021449BB289B2194494FBF2F302FB134382
:100D600094FBF2F401EB034393FBF2F102FB11312C
:100D700093FBF2F301E05B1E11440029FBDB0160F1
:100D800003EB044010BDF0B504464FF0FF3585B0CD
:100D90000068049060680290A0680390E068019089
:100DA00020690090666906F18040B0F1004F7CD860
:100DB0003C22002104A8FFF7C7FF3C22014602A8FD
:100DC000FFF7C2FF1822014603A8FFF7BDFF411E2F
:100DD00040F2B55201A8FFF7B7FF0C22074668465C
:100DE0000021FFF7B1FF414B00EB870030440026A4
:100DF0007B4411E0511A01910099491C022900918C
:100E000002D00C2908D105E0810705D00199491CC1
:100E1000019101E0401C00960099019A595C9142B1
:100E2000E8DD0099012906D11C2A04D1810702D0EE
:100E30000221CDE90016A0F146018B293CD2DDE963
:100E40000061002202E09F5C521C3944B242FADB8E
:100E5000012E02DD820700D0491E40F2B55340F258
:100E60006D16C21700EB927292105A4300F0030302
:100E700003FB062283070A4400D1521E039E02EBA5
:100E80004203049F06EBC303029EC3EB031306EB6E
:100E90008303174E33441E149BB2C6EB0616C3EBF6
:100EA0000313B60007EB830300E005E006EB1346EF
:100EB00066F31F43360C02D0284605B0F0BD80C44F
:100EC000029E40C4039E40C4019E761C44F80C6BF5
:100ED000009E44E902600720521C92FBF0F600FBE2
:100EE000162084E823001846E7E70000E5B9000073
:100EF000A039CEFD70B50C46016800204A1C3ED0DA
:100F00003C22B1FBF2F302FB1313B1FBF2F12360BD
:100F1000B1FBF2F302FB1313B1FBF2F11822636091
:100F2000B1FBF2F302FB1313B1FBF2F146F2E03234
:100F30000A440721A360B2FBF1F301FB132140F245
:100F4000B553B2FBF3F5A161B2FBF3F103FB15223C
:100F50008900B2F5B77F08D39B10521EB2FBF3F5A0
:100F60002944B2FBF3F503FB15220F4BE2616161EB
:100F700089077B440CD03B2A0AD3521C08E02C2161
:100F80002046FFF779FE0120E0600AE0521A401C7B
:100F9000195C9142FAD9521CC4E903204FF0FF308A
:100FA0002062204670BD000063B8000070477047A3
:100FB0007047000000487047F01500202DE9F04709
:100FC0000D4699469246044600F1240801688806B9
:100FD00004D5E06921F01001216000E00120A84261
:100FE00001DD471B00E00027A1697A1902EB090027
:100FF000081AA0612078C00602D42046FFF7A6F99F
:10100000002608E0D4E901211AF806009047206A7A
:10101000401C761C20624E45F4DB2078C0060AD5C1
:101020002046FFF793F906E0D4E9012130209047EC
:10103000206A401C2062381EA7F10107F4DC07E09B
:10104000D4E9012118F805009047206A401C20626D
:10105000281EA5F10105F3DC2046FFF78DF9207865
:10106000000602D50220BDE8F0870120FBE71168E9
:101070000268006A530501D508700AE0D30501D55E
:10108000088006E0130603D5C217C1E9000200E09C
:10109000086001207047000001694A1C026108785D
:1010A000704700B58FB0CDE90131002105910549A8
:1010B0007944CDE9031011466846FFF7C5FA0FB031
:1010C00000BD0000E5FFFFFF0A6802F8010B0A609F
:1010D0007047D1E900239A4202D2531C0B60107072
:1010E000704710B5436913B1AFF3008001E0FFF71B
:1010F00066F9012010BD127800F124010A70002267
:101100004A700122EDE711684FF0FF32E9E710B5B0
:10111000436913B1AFF3008001E0FFF7B5F9012097
:1011200010BD128800F1240182840022C2840122B1
:10113000EDE711684FF0FF32E9E700002DE9F041DB
:101140008046D21D22F007020025D2E90002F529CF
:1011500015A614D0011E72F1000106DA0023D0EBAF
:10116000030063EB020211A608E0D8F800108B0719
:1011700001D50FA602E0490701D50EA601251146AB
:10118000002408F1240704E000F0FCF830323A555E
:10119000641C50EA0102F7D12B46324621464046F4
:1011A000BDE8F041FFF70ABF000000002D0000007D
:1011B0002B000000200000003A2800D2303820F038
:1011C0002002412A01D3A2F13700884201D34FF017
:1011D000FF30704702681144137801601846704769
:1011E000D160054979445161044979441162002173
:1011F0001161114600F0A2BCEDFFFFFF21020000CB
:10120000426842B1016811F8013B23B1521EC0E9A6
:101210000012184670470121C160881E704742685D
:101220005AB1C368016843B983688B4205D0491E2F
:10123000521CC0E90012002070474FF0FF30704789
:101240002DE9F04791460F4680460446002614F8E3
:10125000015B2DB100F08EF80068405DC007F6D14B
:101260002B2D02D02D2D18D0641E4A46394620461B
:1012700000F01EFE27B13968A14201D1C7F80080F5
:101280004FF0020471050BD54042002803DDFFF743
:1012900091FE0460A007BDE8F08746F48066E4E7AD
:1012A0000028F8DAFFF786FE04606FF00040F2E7EE
:1012B00070B516460C46054600F05CF8036893F8D6
:1012C0000101012806D0FF2C0FD8185D68B101205C
:1012D0002C7070BDD3F807013246214603F2071384
:1012E00003442846BDE8704018474FF0FF3070BDFA
:1012F000431A28BF9A427FF663AC104410F0030FE4
:1013000011441EBF11F8013D521E00F8013D10F0BE
:10131000030F7FF4F6AF103AC0F00A8010B531E940
:101320001850103A20E91850BFF4F9AFBDE810404A
:10133000530724BF31E9081020E9081044BF51F8D1
:10134000043D40F8043D12F0030F08BF7047D20778
:1013500028BF31F8023D48BF11F8012C28BF20F802
:10136000023D48BF00F8012C70470000004870475C
:10137000F015002010B500F00FFE001D10BD00BFDD
:10138000D578000030B5B0F10A024FEA900E71F145
:1013900000034EEA817EB0EB0E0061EB91014FEA53
:1013A000101E4EEA017E10EB0E0041EB11114FEAC8
:1013B000102E4EEA016E10EB0E0041EB11214FEAA8
:1013C000104E4EEA014E10EB0E0041EB1141401859
:1013D00041F100014FEAD00040EA41704FEAD101EB
:1013E00010EB80054FEA810444EA907444EB010459
:1013F0006D1944EB0404521BA3414FF0000348BF96
:101400000A3200D530BD401C41F1000130BD10B59D
:101410000446FFF7AFFF0068005D00F0010010BD5B
:1014200070472DE9FF4F0C461E464FF0FF378BB03B
:10143000D2E90001DDF860800A908A46C1F30A55BE
:1014400005B93D46002108464FF00000BAF1000FF3
:1014500000F4400005DA00EB80004FF4400101EA9F
:1014600050004FEA9059B9F1010F00DDB9460A98D2
:1014700050EA4A000ED044F61050A5F2FF3545431D
:101480002F14B8F1000F1ED07542291E1EDDC9F1C0
:1014900000021CE0B8F1010F4FF0000001D0302134
:1014A00003E0F24305E02154401CB042FBDB304630
:1014B0000022002121540B99C1F80880C1E90020C5
:1014C0000FB0BDE8F08FBD1B6D1CDEE74A4600DAA9
:1014D000694206A800F0A4FD06AB93E8070003AB41
:1014E00083E8070050460A9900F01DFE8DE80700CA
:1014F000A0F500501F3800900398002D0ADD42F23D
:101500001F014A460844002303A90390684601F0DE
:1015100086F809E0A0F500504A461F38002303A9C9
:101520000390684601F090F88DE807000004000C75
:1015300003D04FF0FF30410800E01046B8F1000F33
:1015400003D00022009215461EE0751E05D4FFF759
:1015500019FF303262556D1EF9D5B346012208439A
:1015600002D000227F1C04E02078302801D1002224
:101570007F1E002A099784D01DE0112D07DAFFF79E
:1015800001FF303262556D1C50EA0102F5D108436B
:1015900002D00098C8B10EE00021681E05E0235C6F
:1015A000625C63542254401E491C8142F7DBAB4607
:1015B000A81B401E0990002004F80B000B98099A04
:1015C000C0F80880C0E9002B7AE711264FF0000828
:1015D00057E72DE9F04F88460446D21D22F0070157
:1015E00091B0D1E90001CDE90A0106F049FD0246BA
:1015F0000B98C00F01D02D2007E02068810701D58E
:101600002B2002E0202101EAC000032A099001D02A
:10161000072A05DB03464146204600F0C1FC0BE1EA
:101620002078800601D5E06900E00620B8F1650F5A
:10163000814606D0B8F1660F18D0B8F1670F70D1A7
:1016400031E00020B9F1110F009001DB112301E01E
:1016500009F101030AAA01A90CA8FFF7E2FEDDE9DE
:101660000C70002609F10105834647E001204B4636
:1016700000904FF000470AAA01A90CA8FFF7D1FE7D
:10168000DDE90DB00C995D46002610B909F10100A5
:101690000D18B9EB050003D4C0F1FF3609F10105BF
:1016A000A5EB09002BE0B9F1010F01DA4FF00109B8
:1016B0000020B9F1110F0090484601DD112300E030
:1016C00003460AAA01A90CA8FFF7ABFEDDE90C70DE
:1016D0004D4600268346207800070AD4AB4500DA41
:1016E0005D4601A8012D04DD411911F8011C3029C6
:1016F00007D04F4502DA17F1040F04DA01208246C1
:101700000FE06D1EEEE7002F02DCED1B3E4403E010
:10171000781CA84200DD7D1CB81B00F1010A4FF0C7
:1017200000472078000703D4AA4501DB4FF0FF3AB9
:101730000021B7F1004F0DF143088DF8431024D07C
:1017400002202B23002F01DA7F422D230A21021EC3
:10175000A0F1010000DC5FB197FBF1FC97FBF1F217
:1017600001FB1C7C17460CF1300C08F801CDEEE7AC
:10177000A8F1010003702188090501D5452100E089
:101780006521A0F1010800F8011C09980FA9A1EB3F
:101790000807FF1D00B10120411901EBEA70A169A2
:1017A0003844081A401EA0612078C00602D42046A2
:1017B000FEF7CCFD099828B1D4E901219047206AB1
:1017C000401C20622078C00622D52046FEF7BEFDD0
:1017D0001EE0002E04DBB34502DD01A8805D00E0C1
:1017E0003020D4E901219047206A401C2062761CF9
:1017F000AAF101005FEA000A0AD100F0CDFBC0683F
:101800000168405CD4E901219047206A401C2062B5
:10181000281EA5F10105DCDC07E0D4E9012118F858
:10182000010B9047206A401C2062381EA7F1010777
:10183000F3DC2046FEF7A0FD032011B041E60000D6
:101840002DE9F04F04460D46D21D22F0070089B065
:10185000D0E900974846394606F012FC0246F80FD8
:1018600001D02D2307E02068810701D52B2302E05A
:10187000202101EAC0038DF820300BB1012000E0E7
:101880000020032A824601D0072A04DB294620468D
:1018900000F086FB3FE12078800601D40D2500E0B2
:1018A000E569C7F30A560D2D49DA00214FEA175BA7
:1018B00008464FF00000002F00F4400007DA00EB6C
:1018C00080004FF4400100EBD07001EA6000811508
:1018D000012901DD4FF0FF3100224FEA850CBCF1F8
:1018E000180F06D31346ACF118004FF08052C240D7
:1018F00003E04FF4801323FA0CF30CF10C0CBCF151
:10190000200F04D3ACF1200C09FA0CF001E007FA27
:101910000CF000294FF0004801DD18B90FE00ED19E
:1019200040450CD319EB02095F4121B9404502D172
:101930009F4329EA0209BBEB175F00D0761C208881
:10194000000502D57B48784402E07A48784419388B
:1019500008AA302302F80A30037C0AF10101002EA4
:101960000AF1020A53546A4602DC4FF0300101E0EA
:101970004FF031014FF001088DF8001002D0A6F2AF
:10198000FF3603E059EA470100D06B4E002D02DC20
:101990002178090704D54FF002082E218DF8011097
:1019A000C44600210BE0C7F303433F01C35C491C5D
:1019B0006D1E02F80830052908F1010801DA002D32
:1019C000F1DC00210CE000EB1973491C1B786D1E43
:1019D000082902F808304FEA091908F1010801DA6C
:1019E000002DF0DC21688B0602D516E0A8F1010875
:1019F000E04505DD02EB080313F8013C302BF5D080
:101A0000B8F1000F09DD02EB080313F8013C2E2B9F
:101A100003D1090701D4A8F10108002D05DD3E21FD
:101A200002F808106D1E08F10108407C002E02F833
:101A3000080008F1010804DA2D20764202F80800B7
:101A400002E02B2002F808000A214FF47A70864247
:101A500008F101080BDB96FBF0F3303302F8083095
:101A600096FBF0F308F1010800FB136601E0642E19
:101A70000CDB642096FBF0F3303302F8083096FB61
:101A8000F0F308F1010800FB136601E00A2E06DB03
:101A900096FBF1F0303002F8080008F1010896FBDF
:101AA000F1F001FB1060303002F80800A16908F184
:101AB000010808EB050202EB0A00081AA061207871
:101AC000C00602D42046FEF741FC216A08AE01EBB5
:101AD0000A00206204E0D4E9012116F8010B9047C6
:101AE000BAF1010AF7D22078C00602D52046FEF7E7
:101AF0002DFC6E4609E016F8010B3E280FD0D4E904
:101B000001219047206A401C2062B8F10108F2D2FE
:101B10002046FEF731FC09B00320BDE8F08F206AB3
:101B20002844206203E0D4E90121302090476D1E53
:101B3000EBD3F8E7AEAE000002FCFFFF2DE9F34F58
:101B40004FF0000A0C4656468DB001200C9001F172
:101B50000C000B9062690B9801219047051E2DD057
:101B6000252D2CD0216A8847C0B162690B980121CC
:101B70009047216A88470028F7D16269411E0B9877
:101B8000904700E0761CA1690D988847216A884734
:101B90000028F7D1E1690D988847DBE7A1690D9826
:101BA0008847A842074601D1761CD3E7E1690D9822
:101BB00088477F1C02D1BAF1000F6FD06BE16269D8
:101BC0000B9800273D46394690472A2804D1626980
:101BD0000B98012190470125DFF8D08262690B98AC
:101BE00001219047A0F130010A290AD24745E5DCDE
:101BF00007EB870100EB4107303FDFD445F01005CC
:101C0000ECE7E90601D46FF000476C280AD04C28B5
:101C100014D0682815D06A280DD074281CD07A28D2
:101C20001AD01DE062690B98012190476C2802D000
:101C300045F0040514E045F002050DE045F02005EF
:101C40000AE062690B9801219047682802D045F0AC
:101C5000080505E045F4006562690B98012190478D
:101C6000C4E9015765283DD019DC58287AD00CDC2E
:101C7000452837D004DC252826D041289ED131E0E4
:101C800046282FD0472899D12CE05B2877D06128AF
:101C900028D063287CD0642823D15AE0F6E06F284E
:101CA00048D008DC66281DD067281BD0692821D0C1
:101CB0006E2816D127E0702845D0732868D0752883
:101CC00047D078280DD14DE0A1690D988847252887
:101CD00005463FF469AFE1690D9888476D1C3FF4F4
:101CE0006AAFD8E00D9923466A466FF00100AFF362
:101CF0000080C5E045F0400023464FF000026060E0
:101D0000A80736D43EE0E8077FF447AF2068011DFE
:101D100021600068290501D506701BE7290701D558
:101D2000068017E7A90703D5F117C0E9006111E79D
:101D300006600FE745F0400023464FF00802606060
:101D4000A80716D41EE040F60E0125EA01006060E7
:101D500016E045F0400023464FF00A026060A807F5
:101D600007D40FE045F040006060A80708D523467F
:101D700010220D996FF00100AFF3008080E007E0C2
:101D8000102223460D996FF00100FEF73FFD77E02A
:101D90004FF0000963284F46C8464B46CB4602D059
:101DA0005B2806D038E0E80601D40120A0600127B6
:101DB00032E06269D4F80CB00B98012190475E289C
:101DC00007D14FF0010949466269D4F80CB00B986D
:101DD0009047216939B900210A4603AB43F8212015
:101DE000491C0829FADBD8B3216949B308F1010875
:101DF00062690B98012190475D28F4D1B9F1000F79
:101E000009D0002003A951F82020D24341F8202016
:101E1000401C0828F7DB03AB2069002820794FEA33
:101E200040701ED05B462246CDF80080CDE9019778
:101E30000D9900286FF0010020DAAFF300801FE059
:101E4000C11703AA00EBD1614B1121F01F0102EB76
:101E50008302411A13680120884003431360C7E7D7
:101E600019E00D99224600286FF00100009702DA70
:101E7000AFF3008004E0FEF76FFD01E0AFF30080F8
:101E800000280ADA401C06D10C9820B14FF0FF3030
:101E90000FB0BDE8F08F5046FAE7E90701D10AF12B
:101EA000010A064400200C9054E60000CCCCCC0C77
:101EB0002DE9F05F824615468B4600270AF10104A2
:101EC000B9460078302801D09DB113E014F8010B19
:101ED0000127782803D0582801D045B10AE00DB178
:101EE000102D07D1002714F8010B102502E008255A
:101EF00000E00A250026B0460EE005FB080005FBC1
:101F000006F101271FFA80F801EB1046B6F5803F75
:101F100000D3B94614F8010B2946FFF74DF9002804
:101F2000EBDABBF1000F05D00FB1641E00E05446A0
:101F3000CBF80040B9F1000F06D0FFF73BF80221C3
:101F40000160C81EBDE8F09F48EA0640FAE7754602
:101F5000FFF70CFAAE4605006946534620F007002D
:101F6000854618B020B5FEF793F9BDE820404FF044
:101F700000064FF000074FF000084FF0000B21F073
:101F80000701AC46ACE8C009ACE8C009ACE8C00940
:101F9000ACE8C0098D467047004870471016002015
:101FA0002DE9F0411F46044603260168072A01F483
:101FB000006004DB08B116A505E016A503E008B132
:101FC00015A500E015A521F010002060A069C01E35
:101FD000A0610FB1401EA0612046FEF7B7F94FB1D6
:101FE000D4E9012138469047206A401C2062C01C79
:101FF000206206E0206AFAE7D4E9012115F8010B16
:102000009047761EF8D22046FEF7B6F9BDE8F0817B
:102010004E414E006E616E00494E4600696E66008C
:102020002DE9F047814616468AB0354878440DC8F8
:102030008DE80D0032487844801C03AC0DC884E85C
:102040000D0041F69B300844372190FBF1F290FBE4
:10205000F1F5A5F1800501FB12041B3C02D5644299
:10206000012000E00020DFF898A080460027FA4415
:10207000AAF1BE0A0EE0E0070AD03246684607EB36
:10208000470101230AEB810100F0DEFA8DE8070029
:1020900064107F1C002CEED1194F7F44AE3F19E035
:1020A000E80715D007EB04100DF1180A90E80E00B0
:1020B0008AE80E00C068F04201D1981908903246B3
:1020C000012306A903A800F0BFFA03AB83E80700C9
:1020D0006D10641C002DE3D14FF0010332466946B8
:1020E000B8F1000F03A802D000F099FA01E000F067
:1020F000ABFAC9E90001C9F808200AB0BDE8F087C9
:1021000058A8000010B50446AFF300802046BDE893
:102110001040FEF7A8B8000001491820ABBEFEE74A
:102120002600020070475FEA400C08BF91F0000FE4
:102130004FEA8C234FEAC12243EA51514FEA1C5027
:1021400018BF00F5F0404FEA300018BF41F00041E1
:102150005FEA6C5C00F02980BCF1FF3F08BF40F0F3
:1021600080407047130C06BF12044FF0100C4FF064
:10217000000C130E04BF12020CF1080C130F04BF65
:1021800012010CF1040C930F04BF92000CF1020C2D
:10219000D30F04BF52000CF1010C11464FF00002A6
:1021A000A0F11F00A0EB0C00704711F0004F08BF1A
:1021B000704731F000413FF4D5AF0B0C06BF090466
:1021C0004FF0100C4FF0000C0B0E04BF09020CF185
:1021D000080C0B0F04BF09010CF1040C8B0F04BF9A
:1021E00089000CF1020CCB0F04BF49000CF1010C6B
:1021F000CCF12003A0EB0C0022FA03F302FA0CF25C
:1022000041EA030100F10100704720F07F4C80EAB1
:10221000030023F07F47ACEB070303F57C5300F08A
:10222000004003F1FF032DE980494FEA154B09B443
:102230004FEA144325EA0B4E24EA03480FF2042622
:1022400006EB132749083E785FEA320203FB066774
:10225000C7F5000707FB06F64FEA54374FEAD646A4
:1022600006F1020607FB066CCCF1005C4FEA1C4746
:102270002CEA074C07FB06F40CFB06F504EB1546AD
:102280004FEA961634BF00204FF000404FEAD13796
:1022900006FB07FC4FEA1C4C0CFB0BF7D21B03FBA5
:1022A0000CF761EB07010CFB0EF7B0EB074072EB8C
:1022B00017420CFB08F734BFA2EB0742B2EB074210
:1022C00061EB17414FEA0C444FEA910706FB07FC0C
:1022D0004FEA1C4C0CFB0BF7B0EBC74072EB5732CC
:1022E00003FB0CF734BFA2EBC742B2EBC74261EB72
:1022F00057310CFB0EF7B0EBC70072EB57720CFBBB
:1023000008F734BFA2EBC702B2EBC70261EB57710B
:10231000039F4FEA816141EA921104EBCC044FEA3A
:10232000D1374FEA826206FB07FC42EA90124FEA7D
:1023300080604FEA1C4C0CFB0BF7D21B03FB0CF725
:1023400061EB07010CFB0EF7B0EB074072EB174295
:102350000CFB08F734BFA2EB0742B2EB074261EB7C
:1023600017414FEA8C554FEA910704EB9C2406FB7A
:1023700007FC4FEA1C4C0CFB0BF7B0EBC74072EBB1
:10238000573203FB0CF734BFA2EBC742B2EBC74294
:1023900061EB57310CFB0EF7B0EBC70072EB5772D5
:1023A0000CFB08F734BFA2EBC702B2EBC70261EB2C
:1023B000577115EB4C254FEA816141EA92114FEAC2
:1023C00082624FEAD13742EA901206FB07FC44F1E1
:1023D00000044FEA80604FEA1C4C0CFB0BF7D21B49
:1023E00003FB0CF761EB07010CFB0EF7B0EB0740AA
:1023F00072EB17420CFB08F734BFA2EB0742B2EBBB
:10240000074261EB174115EB1C154FEA813141EA98
:1024100092414FEA823242EA90424FEA80304FEADC
:102420000C7644F1000448EA03434EEA0B484FF0AF
:10243000000EB2EB080C71EB030724BF624639466D
:102440004EEB0E0E4FF0000B0018524149414BEB82
:102450000B0BB2EB080C71EB03077BF1000B24BFF5
:10246000624639464EEB0E0E4FF0000B00185241FB
:1024700049414BEB0B0BB2EB080C71EB03077BF103
:10248000000B24BF624639464EEB0E0E51EA02079E
:1024900018BF46F0010616EB0E7655F1000254F116
:1024A000000103D5BDE88901BDE80088BDE88901C8
:1024B000BDE80048B619524141EB0101A3F1010307
:1024C000704780807F7E7D7C7B7A797877767675A1
:1024D0007473727171706F6E6E6D6C6C6B6A6A6919
:1024E0006868676666656464636362616160605FB3
:1024F0005F5E5E5D5D5C5C5B5B5A5A59595858572C
:102500005756565555555454535352525251515093
:1025100050504F4F4F4E4E4D4D4D4C4C4C4B4B4BE6
:102520004A4A4A494949484848474747474646462C
:102530004545454444444443434343424242424167
:102540004141002B9C4630D477002BD01CB54FEA7C
:10255000370703B44FF010004FF01001BAF1000F2D
:1025600006D0BCF1000FDCBF40F0080040F00801CD
:102570004FF000000FBCBDE810400BF1010BBBF1A8
:10258000010F08BF5FEA170722BF12F1010211F124
:1025900001014FF0004143F1000300F0004043EA25
:1025A00000007047F9D35708D0E746EA064613F112
:1025B000400F4FEA16461FDD13F1200FDFBF164311
:1025C0000A46002120335B42BED0C3F1200746EA11
:1025D000064602FA07F74FEA164646EA0706C3F12F
:1025E000200722FA03F201FA07F721FA03F14FF06C
:1025F000000342EA0702A7E746EA020646EA064661
:102600004FEA164646EA0106BCBF46EA0646360CC5
:102610004FF000034FF000024FF0000194E72DE966
:10262000804C9A46934670B491E8380007C831EA66
:10263000400C48BF34EA430C03D5FFF7E6FDFFF733
:1026400080FFF0BCBDE8008C2DE9804C9A46934693
:1026500070B491E8380007C810F0804F08BF13F03D
:10266000804F03D100F005F8FFF76BFFF0BCBDE829
:10267000008C20F07F4780EA030023F07F4C07EBBB
:102680000C03A3F57C5300F00040A3F1FE0392F08D
:10269000000F00F0B38095F0000F00F077802DE977
:1026A00001494FEA11404FEA144621EA004800FB75
:1026B00006FC24EA064708FB06F607FB08F800FBC1
:1026C00007F718EB06484CEB164C4FEA124B18EB89
:1026D00007484FEA15464CEB174022EA0B4E0BFB1E
:1026E00006FC25EA06470EFB06F607FB0EFE0BFB73
:1026F00007F71EEB064E4CEB164C4FF000061EEB98
:10270000074E4CEB174B18EB0B0840F1000018EB91
:102710000E0B58EB000840F100008F1A4FF000013B
:102720003CBFC943661B14BFB5EB040C00213CBF82
:10273000C943F61B4FEA17444EEA8E0E27EA0445BA
:102740004FEA1C4704FB07622CEA074C05FB07F71E
:102750000CFB05F604FB0CFC16EB074642EB17429C
:1027600016EB0C4642EB1C421BEB060658EB020232
:10277000414146EA9E0601D5BDE80189B61952419C
:1027800041EB0101A3F10103BDE801894FEA1445C2
:102790004FEA114724EA054621EA074C05FB07F4F6
:1027A00006FB07F70CFB06F105FB0CFC11EB0741E0
:1027B00044EB17444FEA124711EB0C4144EB1C4425
:1027C00022EA074C05FB07F206FB07F70CFB06F6AF
:1027D00005FB0CFC16EB074642EB174216EB0C46CA
:1027E00042EB1C456A1854F1000148BF7047B61906
:1027F000524141EB0101A3F10103704795F0000F35
:1028000037D04FEA11424FEA144721EA024624EA40
:10281000074C02FB07F106FB07F70CFB06F402FB73
:102820000CFC14EB074441EB17414FEA154714EB3E
:102830000C4441EB1C4125EA074C02FB07F506FB63
:1028400007F70CFB06F602FB0CFC16EB074645EB04
:10285000174516EB0C4645EB1C42121951F10001CD
:1028600048BF7047B619524141EB0101A3F1010382
:1028700070474FEA14454FEA114724EA054621EA1A
:10288000074C05FB07F106FB07F70CFB06F24FF0C0
:10289000000605FB0CFC12EB074241EB174112EB63
:1028A0000C4251EB1C4148BF7047921841EB0101AB
:1028B000A3F101037047000010B54FF408713F48C1
:1028C00000F0EDF870B34FF408713C4800F088F860
:1028D0003A4800F0E0F83A49096808443849086085
:1028E00038480088401C3749088008460088FF287F
:1028F00018D9334800688030000A3149086008461A
:10290000006800EB401000EB400101EBC00000F557
:102910000060C0F30F302C4908800020284908606F
:10292000284908804FF4A071244800F0B8F820B17D
:102930004FF4A071214800F053F84FF490611F4804
:1029400000F0ADF8C8B34FF490611C4800F048F8AF
:1029500014211A4800F0B5F81C49088018211748BE
:1029600000F0AFF81A49088008460088B0F57A6F81
:102970000ADA0846008805F033FD164991F900107F
:1029800008441549088003E04FF416701249088086
:1029900003F06CF9044610480188204605F0A8FFB2
:1029A0000E4908700846007804F00AFD05F008FC9E
:1029B00010B1204605F080FB00BF10BD002401408F
:1029C000500100204E010020300100201C01002099
:1029D0001E010020110100201A0100201801002012
:1029E00000220A12D3430360704721B1826842F08B
:1029F0000102826003E0826822F001028260704777
:102A000010B504461248844208D10121401503F054
:102A100087FF0021601503F083FF17E00D48844213
:102A200008D10121001503F07BFF0021201503F0E0
:102A300077FF0BE00848844208D10121C80303F066
:102A40006FFF00214FF4004003F06AFF10BD00004B
:102A50000024014000280140003C014021B182686F
:102A600042F40042826003E0826822F40042826005
:102A700070470A460021816821F4E04111438160DA
:102A80007047014600208A6802F004020AB1012062
:102A900000E0002070470146C86C80B2704770B5F6
:102AA00002460020002300240B125568CEB205EA2E
:102AB000060415681D4015B10CB1012000E000208E
:102AC00070BD08B5024600200090009201F1280078
:102AD000009B184400900098006880B208BD014631
:102AE00000208A6802F008020AB1012000E00020FC
:102AF000704710B50023CBB21AB144681C43446040
:102B000002E044689C43446010BD000030B50246BA
:102B10000020002350680F4C20400D790C6844EAD7
:102B200005242043506090680B4C2040D1E90254AA
:102B30002C434D7944EA450420439060D06A20F448
:102B400070000C7C641EE4B2234340EA0350D06260
:102B500030BD0000FFFEF0FFFDF7F1FFF0B50446C9
:102B60001546002000220026092911DDE068A1F1A8
:102B70000A0707EB470C072707FA0CF29043A1F16D
:102B80000A0707EB470703FA07F21043E0600CE07F
:102B9000206901EB410C072707FA0CF2904301EB87
:102BA000410703FA07F210432061A06BC0F30156FE
:102BB000EF1C06F1010CA7EB0C0707EB870C1F2796
:102BC00007FA0CF29043EF1C06F1010CA7EB0C077F
:102BD00007EB870701FA07F21043A063F0BD10B5B9
:102BE0000A4600210023816B21F44011531E41EA63
:102BF0000351816310BDF0B504460D46002000214D
:102C0000092D11DDE068A5F10A0606EB4607072647
:102C100006FA07F18843A5F10A0606EB460603FA11
:102C200006F10843E0600CE0206905EB4507072644
:102C300006FA07F1884305EB450603FA06F1084357
:102C40002061072A0FDA606B561E06EB86071F26E7
:102C500006FA07F18843561E06EB860605FA06F1CA
:102C60000843606322E00D2A0FDA206BD61F06EBC3
:102C700086071F2606FA07F18843D61F06EB86064D
:102C800005FA06F10843206310E0E06AA2F10D06A0
:102C900006EB86071F2606FA07F18843A2F10D0608
:102CA00006EB860605FA06F10843E062F0BD81688E
:102CB00041F008018160704721B1826842F4A002AE
:102CC000826003E0826822F4A0028260704721B132
:102CD000826842F40212826003E0826822F40212E7
:102CE00082607047816841F0040181607047000094
:102CF00010B501210148FFF7DFFF10BD002401409E
:102D000010B501210148FFF7E2FF10BD002401408A
:102D100000B587B000208DF807002020ADF8040032
:102D200001A9324802F01CFC0220ADF8040001A900
:102D30002F4802F015FC0120ADF8040001A92C4831
:102D400002F00EFC2B48FFF75BFE002002900120F2
:102D50008DF80C0000208DF80D004FF460200490D9
:102D60000020059001208DF8180002A92148FFF7E6
:102D7000CDFE0723012208211E48FFF73CFF022158
:102D80001C48FFF72CFF0723012205211948FFF7F4
:102D9000E5FE0723022209211648FFF7DFFE4FF464
:102DA000E0411448FFF765FE01211248FFF756FE87
:102DB00001224FF4FC610F48FFF79BFE01210D48F3
:102DC000FFF713FE0B48FFF772FF00BF0948FFF73C
:102DD00086FE0028FAD10748FFF784FF00BF0548A8
:102DE000FFF74FFE0028FAD107B000BD00080140F0
:102DF000000C01400024014010B5012003F0A0FDAB
:102E0000002003F09DFD10BD08B501460020009094
:102E1000034800900098084400900098008808BD7E
:102E2000006C004008B500220092044A0092009A0B
:102E300002440092009A116008BD0000006C00403E
:102E40000749097D012902D10649087002E00021E5
:102E5000044A11700021044A1170044A118070471D
:102E60006C150020141400201C1400201A140020DB
:102E70002148006821490968401A214908601E4814
:102E800000681E4908601F4890F900001E49097833
:102E9000884218D11A480068C8280EDA1B48007802
:102EA000401C1A4908701A480078FF2815D01848A5
:102EB0000078401C164908700FE000201349087084
:102EC0001349087009E01048007840B20D490870B5
:102ED00000200E4908700E4908700C4800780A2836
:102EE00002D30920094908700A4808490978405C5A
:102EF0000949087070470000FC000020980100207C
:102F00009C010020940100207E010020820100200D
:102F1000810100208301002080010020F8B50446D3
:102F20000D4616461F460A48007840B1FF203B4632
:102F3000324629460090204602F0DEFA07E00020E3
:102F40003B46324629460090204602F0D5FAF8BDAD
:102F50000C01002070B50546002430E004EB84002D
:102F600000EBC4011748405CA84227D1FF2104EBC5
:102F7000840000EBC4021348815400BF04EB8400BA
:102F800000EBC4010F48415C04EB840000EBC40279
:102F90000C48815404EB840202EBC40302461A4439
:102FA000A0F14103D21A91B204EB840202EBC403F4
:102FB00002469818012201F04BF900BF641C052C51
:102FC000CCDB70BDAD15002000B5A9B06022094969
:102FD00011A8FDF7F5FD40220649603101A8FDF773
:102FE000EFFD11A8049001A801F0E4FEC0B229B0E1
:102FF00000BD000054AE0008274890F83F000128AB
:1030000043DB254890F83F0008283EDC2348006851
:1030100000F00100A8B9204890F82A00012809D141
:1030200080201F4908604020091D086000201D49BC
:10303000086030E040201A4908608020091D0860BF
:1030400029E0154890F82A00012819D1154801688F
:103050000068401C134A10600F4890F82B0000EBEA
:103060004002C2EBC010B1EBC00F14D90D4800688C
:10307000401E0C49086080200949091D08600AE0CB
:1030800040200749091D086005E040200449091D4A
:1030900008608020086070476C1500200808014017
:1030A000100C01402C1400202DE9FC4707460D466A
:1030B00016461C4611A103C9CDE9000106F13000F6
:1030C000C0B28DF8010004F13000C0B28DF80500E7
:1030D0000C4850F82400B5FBF0F100FB11580948EA
:1030E00050F82400B5FBF0F943464A466946384695
:1030F000FDF7FAF83846BDE8FC8700002532642E5B
:1031000025326400B4900008F1B582B000247648FE
:10311000006840797449096809794843C5B2BDF827
:1031200008000A280BD10020704908706E4800681A
:1031300040796F49097808446D490870BAE06A48D7
:1031400000680088BDF80810884276DC6648006890
:103150004088BDF8081088426FDBBDF80800C0B297
:10316000802842DA60480068007901905E48006873
:103170008068D0B15C4800680078BDF80810081A73
:10318000C6B206FB05F7584800688068C41956485F
:1031900000940068437954480068027954480178E3
:1031A0005248007800F066FC18E04F480068C0689C
:1031B000A0B14D48006801A9C26802A89047041E4A
:1031C0000CD0494800940068437947480068027968
:1031D000474801784548007800F04CFC43480078A7
:1031E000019908444149087064E0BDF80800802155
:1031F000B1EB202F4DDA3C480068007901903A4845
:1032000000688068D0B1384800680078BDF80810C0
:10321000081AC6B206FB05F7334800688068C4196F
:1032200031480094006843790198C2B2304801786F
:103230002E48007800F01EFC24E033E02A480068A5
:10324000C068F8B12848006801A9C26802A8904780
:10325000041E0CD024480094006843790198C2B23F
:10326000234801782148007800F004FC0AE01E4859
:10327000006843790198C2B21D4801781B48007864
:10328000FFF74CFE19480078019908441749087067
:1032900010E015480068007914490978084413497A
:1032A000087007E010480068007910490978084460
:1032B0000E4908700C48006800790C4909780844E8
:1032C00080280ADD00200949087007480068407915
:1032D00007490978084406490870054801780348F9
:1032E000007803F03DFAFEBD080100200401002033
:1032F0000501002070B505460E46144631462846A5
:1033000003F08EFF2046FFF7FFFE70BD2DE9F04170
:1033100004460D461646611C11A000F0EBFB01208F
:1033200003F0CEFF00BF10480068007900EB4000BA
:1033300047002A463946012000F03CFD002003F0FA
:10334000BFFFE1B2304602F0FBF918B107A000F070
:1033500037FC02E007A000F033FCBDE8F08100007C
:103360005B253032645D5B00080100205D5B82817B
:103370005D0000005D5B81815D0000002DE9F04192
:1033800004460D461646611C0EA000F0B3FB00BFBC
:103390000E480068007900EB400047002A46394695
:1033A000012000F007FDE1B2304602F0C9F918B182
:1033B00007A000F005FC02E007A000F001FCBDE85A
:1033C000F08100005B253032645D5B000801002065
:1033D0005D5B82815D0000005D5B81815D000000BE
:1033E00010B5002003F0FFF80021084603F018FF95
:1033F00010BD00002DE9F04786B006460F46144682
:1034000098460E9D13A103C9CDE9010108F13000D2
:10341000C0B28DF8050005F13000C0B28DF809008A
:103420000E4850F82500B4FBF0F100FB11490B48A1
:1034300050F82500B4FBF0FA4B46524601A903A808
:10344000FCF752FFF9B2F0B203AA00F03DFD06B05E
:10345000BDE8F0872532642E25326400B490000860
:1034600008B54FF4784000680A49884209D14FF600
:1034700004000823802200210090084600F0FAFA98
:1034800007E005480823802200210090084600F04C
:10349000F1FA08BDA55A5AA5B48C00087FB50025DD
:1034A00002F01AFC70B301283CD0022802D0032895
:1034B0004FD110E0554805F0BDFB044622460021DF
:1034C000084600F001FD02F0D1FB0446214650A061
:1034D00000F010FB3EE0012003F0F2FE4E4805F044
:1034E000A9FB044622460021084600F0EDFC00201E
:1034F00003F0E6FE02F0BAFB0446214644A000F0C9
:10350000F9FA27E0012003F0DBFE444805F092FBC6
:10351000044622460021084600F0D6FC002003F0B5
:10352000CFFE17E0012003F0CBFE3D4805F082FB03
:10353000044622460021084600F0C6FC002003F0A5
:10354000BFFE02F093FB0446214631A000F0D2FA00
:1035500000E000BF00BF00BF324800684479324835
:103560000078C0F15800C2B22346304801782E4896
:103570000078FFF7D3FC2E48407D10B32D4800782B
:1035800090B1012003F09CFE0120022300902A4804
:10359000028800215820FFF72DFF28A000F0AAFA8A
:1035A000002003F08DFE1FE001200223009022483E
:1035B000028800215820FFF71DFF20A000F09AFA92
:1035C00012E01F48007810B1012003F079FE02F0EC
:1035D00099F904462823022200210090582000F087
:1035E000FBFB002003F06CFE164803F043FE01A82D
:1035F00002F078FB0446234613A20221082000F0C3
:103600008CFA124803F036FE7FBD00000000002057
:103610003A25303364A1E600300000201800002075
:103620000C000020080100200401002005010020FA
:103630006C150020E400002030010020560000003E
:103640002E01002088C7000825730000C4AD0008C3
:1036500070B590B0002502F03FFB20B3012838D0B0
:10366000022802D0032846D10BE0A84805F0E2FA70
:10367000044622460021084600F026FC00F068FAC5
:103680003AE0012003F01CFEA14805F0D3FA0446FD
:1036900022460021084600F017FC002003F010FE2F
:1036A00000F056FA28E09B480088312810DB012002
:1036B00003F006FE984805F0BDFA04468023012277
:1036C00000210090084600F087FB002003F0F8FD81
:1036D00012E0012003F0F4FD904805F0ABFA044637
:1036E00022460021084600F0EFFB002003F0E8FD31
:1036F00000F02EFA00E000BF00BF02F0EDFA002853
:1037000060D18448008831285CDA012505A802F0E0
:1037100034FA834805F08EFA044608980090099818
:10372000431C22460021084600F0F7F90B9901EBF3
:1037300041017C4A02EB810005F07CFA04460090CE
:1037400079480078C0F180030222784801787648F1
:10375000007800F041FB764803F08CFDDDE90510B0
:10376000CDE9000173A202210020079B00F0D5F9EA
:10377000744803F07FFD02A802F0B4FA04467248D0
:1037800005F058FA0646234632460621002000F08E
:10379000C4F900BF6D480068007900EB8000C0F1FB
:1037A00080046B4890F9000000906A48007808B1E6
:1037B000212000E07F20034667A20621204600F07A
:1037C000ACF9A1E015B10025FFF70AFE584803F057
:1037D00051FD02A802F086FA0646334661A2022194
:1037E000002000F09AF9574803F044FD05A802F0C4
:1037F000C4F9059800F0010080B900BF5348006883
:10380000007900EB8000C0F180060698009056A277
:1038100003213046079B00F080F90FE000BF4B48C2
:103820000068007900EB8000C0F1800606980090E7
:1038300050A203213046079B00F06FF95048407DAD
:1038400080B350480078C8B1012003F039FD012051
:10385000022300904C48028806210020FFF7CAFD91
:103860004A48007808B14AA000E04AA001464AA0B0
:1038700000F040F9002003F023FD26E001200223A0
:1038800000904148028806210020FFF7B3FD3F4821
:10389000007808B13EA000E03EA001463EA000F046
:1038A00029F912E0FFE702F02DF80646324606211C
:1038B000002000F009FB3548007808B134A000E092
:1038C00034A0014636A000F015F9214890F9000017
:1038D00000902048007808B1212000E07F200346B6
:1038E0001DA2092102A8FCF715FD044600BF1748D8
:1038F000006800796043C0F18000C6B202AA0621C8
:10390000304600F0E1FA00BF10B070BD00000020AA
:103910003000002012010020180000200C000020C0
:103920003C00002048000020040100200501002088
:103930007CBF0008253032643A253032643A2530A5
:1039400032640000C4AD00082400002008010020FB
:103950001101002021010020256325303264A1E6F9
:103960000000000025730000253032643A25303213
:1039700064000000253032642025303264000000ED
:103980006C150020E4000020300100202E010020F2
:103990002A0000003000000056282573290000008E
:1039A000282573290000000070B588B004460D4634
:1039B00020216846FDF760F900BF00BF00BF10A0DE
:1039C00000F0FEF82B4622460EA16846FCF78CFC60
:1039D000012003F075FC00BF0C480068007900EB83
:1039E000400086006A463146002000F0E3F90020DE
:1039F00003F066FC06A000F0E3F808B070BD00001C
:103A0000205B0000253032642E2573000801002061
:103A10005D0A000070B588B004460D462021684656
:103A2000FDF72AF900BF00BF00BF0DA000F0C8F8E5
:103A30002B4622460BA16846FCF756FC00BF0B48FC
:103A40000068007900EB400086006A46314600209D
:103A500000F0B0F906A000F0B3F808B070BD0000A7
:103A6000205B0000253032642E2573000801002001
:103A70005D0A00002DE9F05F074688461446994626
:103A8000DDF828A000250026A3464146384602F06E
:103A900067FE3819802803DDC7F1800000F0FF0BB6
:103AA000002521E0002613E01148007840B105FB15
:103AB00004611AF80110C943C8B202F095FE05E08E
:103AC00005FB04611AF8010002F08EFE701CC6B2FC
:103AD0005E45E9DB08F1010000F0FF084146384689
:103AE00002F03EFE681CC5B24D45DBDBBDE8F09F31
:103AF0000C0100200FB400B591B013A80090402134
:103B000001A8009B129AFCF7D5FB0020009001A8A9
:103B100000F056F811B05DF814FB0FB430B591B059
:103B200004460D46E9B2E0B203F07AFB17A8009014
:103B3000402101A8009B169AFCF7BCFB00200090D6
:103B400001A800F03DF811B030BC5DF814FB000096
:103B500070B500BF12480068007900EB4000C0F16A
:103B6000800402F083F8054629460EA0FFF7C2FF45
:103B700000BF0B48006845790C480078201AC2B293
:103B80002B460B48017809480078FFF7C7F9094828
:103B9000037809A200212046FFF7BFFF70BD000097
:103BA000080100203A25303364A1E600040100201A
:103BB00005010020100100202532642525000000A9
:103BC0002DE9FC470446002677480068407976498D
:103BD000096809794843C7B20025D9E020788028D0
:103BE00001DA257803E06078217840EA01250A2D82
:103BF0000BD100206D4908706B48006840796C4912
:103C0000097808446A490870AEE06748006800888F
:103C1000A8427DDC644800684088A84278DB62489E
:103C2000006800790190802D3DDA5F480068806867
:103C3000D0B15D4800680078281A00F0FF0808FB42
:103C400007F959480068806800EB09065648009655
:103C50000068437954480068027955480178534810
:103C60000078FFF707FF17E04F480068C06898B179
:103C70004D48006801A9C26820469047061E0BD037
:103C800049480096006843790198C2B248480178D3
:103C900046480078FFF7EEFE444800780199084452
:103CA0004249087057E0607880284CDD3E48006843
:103CB0008068D0B120783C4909680978401A00F042
:103CC000FF0808FB07F938480068806800EB090620
:103CD00035480096006843790198C2B234480178AB
:103CE00032480078FFF7C6FE25E02F480068C0681C
:103CF00008B32D48006801A9C26820469047061EF7
:103D00000ED029480096006843790198C2B200E0BD
:103D100022E02748017825480078FFF7ABFE0AE04B
:103D20002148006843790198C2B2214801781F48B0
:103D30000078FFF7F3F81D480078019908441B4903
:103D40000870641C07E01848006800791749097872
:103D500008441649087007E01348006800791349C1
:103D60000978084411490870641C0F4800680079FC
:103D70000E490978084480280ADD00200B490870A4
:103D80000948006840790A490978084408490870D8
:103D9000207800287FF422AF054801780348007896
:103DA00002F0DEFCBDE8FC870801002004010020D1
:103DB00005010020F8B504460D4616462B4622465E
:103DC0000348009601780348007800F005F8F8BD34
:103DD00005010020040100202DE9F04F91B00446B8
:103DE0008A4691461D461BA80090402101A8009BD1
:103DF0001A9AFCF75FFA0020009000BF3148006873
:103E00000746394601A804F055FE0646A046B9F11A
:103E1000000F06D0B9F1010F11D0B9F1020F3ED158
:103E20002EE0A04600BF274800684779A91BCAB208
:103E3000A119C8B23B465146FFF770F82FE0A81B06
:103E400000EBD0714F1000BF1E48006890F805B01D
:103E5000FAB25B4651462046FFF760F807EB0408CC
:103E600000BF1848006890F805B0E91B891BCAB26A
:103E700039193144C8B25B465146FFF74FF80EE09E
:103E800000BF104800684779A81BC2B23B465146A4
:103E90002046FFF743F8A81B00EB040800BF00BF53
:103EA00008F0FF00514603F0BBF901A8FFF788FEB8
:103EB0002919C8B2514603F0B3F9404611B0BDE824
:103EC000F08F00000801002070B505460E4614462C
:103ED0003146284603F0A4F92046FFF771FE70BD75
:103EE0002DE9F04104460D46012003F0E9F900BF39
:103EF0000C48006840796043C6B204F0ADFAC7B21E
:103F00003146384603F08CF904F0B0FA06462A46EA
:103F100031460120FFF74EFF002003F0D1F9BDE844
:103F2000F0810000080100202DE9F04788B0044628
:103F30000D460027A06960B16846A169884706461A
:103F4000204604F077FE80462A46314600F02EF8DF
:103F500028E06069C0B1606980470646E06802F009
:103F6000ADFA8046464500DB0026E16801EB4610CD
:103F700004F060FE8146204604F05CFE82462A463C
:103F8000494600F013F80DE0E16801EB471004F03A
:103F900051FE0646204604F04DFE80462A46314634
:103FA00000F004F808B0BDE8F08700002DE9F0410A
:103FB00005460C46164604F08BFA07462A46394653
:103FC0000020FFF7F7FE11A0FFF7FAFD44B104F05F
:103FD0004DFA0746224639460120FFF7EBFE07E07F
:103FE00004F044FA07460AA239460120FFF7E2FE30
:103FF00008A0FFF7E5FD1EB107A0FFF7E1FD02E015
:1040000006A0FFF7DDFDBDE8F08100005B000000C9
:10401000000000005D0000003C00000020000000E7
:1040200030B587B04D4803F025F901F055FE00EB9F
:1040300040004B4901EB8005284604F0FBFD044697
:10404000484A00901178484A107870230122FFF7FF
:10405000C3FE464803F00EF901A801F043FE0446F2
:10406000224643A104A8FCF73FF904A83B4A00906C
:1040700052793C4B1B781A44521CD1B23A4A107800
:1040800070230122FFF7A8FE344803F0F3F83A4802
:104090000068C83039490968401A5DD5374800685A
:1040A000354908602F48006868BB2F480068401CED
:1040B0002D49086008460068703080284CD1274A96
:1040C0005379284A1178284A1278521ED0B27022A9
:1040D000FEF724FF254A5379204A5279214C24784F
:1040E0002244521CD1B2204A1278521ED0B2702201
:1040F000FEF714FF1C480068401E1B4908600120A1
:104100001849086028E018480068401E16490860F1
:104110000846006800281FDA104A5379114A1178BE
:10412000114A1278521CD0B27022FEF7F7FE0F4AE5
:1041300053790A4A52790B4C24782244521CD1B24A
:10414000094A1278521CD0B27022FEF7E7FE002016
:10415000054908600349086007B030BDC4AD0008D8
:104160009C000020F4000020F00000207CBF00082C
:104170005B25735D00000000F8000020FC000020BB
:1041800008B54FF40040ADF8000048208DF803005A
:1041900003208DF8020069460A4801F0E1F9182071
:1041A000ADF8000048208DF8030003208DF80200D0
:1041B0006946054801F0D4F90448006804490860DC
:1041C00008BD000000080140000C0140FC00002078
:1041D0007801002010B501F0FDFD10BD70B5054659
:1041E0000C46164600BF04F013FA062101EAE4115A
:1041F00041F0A00004F03CFA04F08CF900B9F2E7B9
:10420000E0B204F035FA04F085F900B9EBE704F008
:10421000FFF9062101EAE41141F0A001481C04F075
:1042200027FA04F077F900B9DDE709E004F09EF918
:10423000287016B904F0D8F901E004F0C1F96D1C3A
:10424000301EA6F101018EB2F0D104F0FBF970BD71
:1042500070B506460C46154600BF04F0D9F9062194
:1042600001EAE41141F0A00004F002FA04F052F96E
:1042700000B9F2E7E0B204F0FBF904F04BF900B941
:10428000EBE713E0307804F0F3F904F043F900B9F8
:10429000E3E7601C84B2761C681E85B204F00F0050
:1042A00020B9002D02DD04F0CDF9D6E7002DE9D1CB
:1042B00004F0C8F970BD00000020084908700848E3
:1042C000008808490988884203DA002006490870F6
:1042D00002E0012004490870704700002A14002001
:1042E00012010020281400202B1400203EB50446A3
:1042F0000F48008902904FF0FF3064210A2302AA80
:10430000CDE900100B480168204600F0C7F968B1FC
:1043100000BF07490298088101F108000A46801A87
:1043200081B2022202A8FFF793FF00BF01203EBD29
:104330006C150020BC0100203EB504461148807A6F
:104340000290114804F076FC05464FF0FF303C2106
:10435000012302AACDE900102946204600F09EF96B
:1043600068B100BF07490298887201F10A000A4645
:10437000801A81B2012202A8FFF76AFF00BF012064
:104380003EBD00006C15002000AF000810B50022F3
:104390000249034800F0EEF910BD0000D4120020DD
:1043A000541300202DE9F74F82B00E461746FFF751
:1043B00017F8029804F03EFC0190802301220021AE
:1043C00000900846FFF708FD00BF58480068407994
:1043D00001460190002002F023FFB3460024A046CE
:1043E000A146A246002503E009F101090BF10C0BDF
:1043F000DBF800000028F7D197E000BF4B480068C9
:10440000407901460190002002F00AFFA04501DD3D
:10441000A04606E001E008F10108A4EB080003282B
:10442000F9DA45460CE005EB450106EB810004F0A6
:1044300001FC3A46014601902846FEF79FFF6D1C9D
:10444000A542F0DB04EB440106EB810004F0F2FB33
:104450003A46014601902846FEF758FF6D1C11E0D0
:10446000A5EB0800032800DB0EE005EB450106EB99
:10447000810004F0DFFB3A46014601902846FEF732
:104480007DFF6D1C4D45EBDB00BF00BF2848007869
:1044900018B9284800780028F8D02648007848B194
:1044A00000202449087024480078802802D105B0F3
:1044B000BDE8F08F1E480078B8B300201C49087092
:1044C0001D480078012813D0022802D080282BD163
:1044D0001CE0641C4C4508DB0AF1010ABAF1050F27
:1044E00000DBE4E7A9F1010401E04FF0000A1BE062
:1044F000641E002C07DA0AF1010ABAF1050F00DB8D
:10450000D5E7002401E04FF0000A0DE0E0B207EB30
:10451000E001097800F0070301229A40514007EBBF
:10452000E002117000BF00BF00BF66E70801002075
:104530007C0100207D0100207E0100203EB5044664
:104540000F48007B02904FF0FF306421002302AA45
:10455000CDE900100B480168204600F09FF868B1D3
:1045600000BF07490298087301F10C000A46801A3F
:1045700081B2012202A8FFF76BFE00BF01203EBD01
:104580006C150020C00100203EB504461248008E84
:10459000029012A54FF0FF3042F20F71002302AAE1
:1045A000CDE900102946204600F078F888B102993C
:1045B00088B202F0D1FE00BF07490298088601F1D7
:1045C00030000A46801A81B2022202A8FFF740FE9C
:1045D00000BF01203EBD00006C1500202530346472
:1045E0000000000010B50446014800F0E3FB10BDD8
:1045F000C408002010B50446014800F0DBFB10BDE4
:10460000540E00203EB504461248C08D029012A5FB
:104610004FF0FF3042F20F71002302AACDE90010E3
:104620002946204600F03AF888B1029988B202F093
:1046300099FE00BF07490298C88501F12E000A467D
:10464000801A81B2022202A8FFF702FE00BF0120F9
:104650003EBD00006C1500202530346400000000D1
:1046600038B50546FEF7B0FC98B1FEF7B9FE09482B
:1046700004F0E0FA0446802301220021009008465D
:10468000FFF7AAFB00BF044800684479204601F008
:10469000BDFB38BD24AF0008080100202DE9F0471C
:1046A00086B081468A4616461F46DDE90E85346887
:1046B00044E0444501DD444602E0BC4200DA3C46A9
:1046C0002246514601A8FBF70FFE01A94846FFF715
:1046D00007FC00BF1A48007818B91A48007800286B
:1046E000F8D01848007848B117480078802805D1DC
:1046F00000201449087006B0BDE8F087002010497A
:1047000008701148007801280CD0022802D08028B7
:1047100013D10FE0681C18B901F0D8F8044400E088
:104720002C440AE0681C18B901F0D0F8241A00E003
:10473000641B02E034600120DDE700BFB9E7000040
:104740007C0100207D0100207E01002010B5044680
:10475000014800F02FFB10BD140F002010B50122FE
:104760000249034800F006F810BD0000D40F0020F5
:10477000941200202DE9FC4105460E461446FEF732
:104780002FFE204602F082FD3348807B002853D064
:104790003248006832490968411A2F48C07B4FF4FB
:1047A0007A725043C0EB0010B1EB800F44DD2D480E
:1047B00004F040FA80468023012200210090084640
:1047C000FFF70AFB284802F05BFD28A0009029486B
:1047D0004179802301220020FFF7FEFA264909686B
:1047E0000979471800BF2448006800794FEA80081B
:1047F0002048417901AB4246384601F0FBFCB8B194
:104800001C4802F03DFD1448008ABDF8041088429F
:1048100005D0BDF8040041F2B351884208D100220E
:104820003146284600F02AF80C4800680C49086018
:10483000104802F025FD08E000223146284600F02D
:104840001DF80648006806490860002002F01EFDB9
:10485000FEF7C6FDBDE8FC816C150020FC000020C1
:10486000B8010020A8AF00087CBF00085B2A2A2AF4
:104870002A5D0000C4AD0008080100202DE9F84FB2
:1048800082460E46174606EB4714304601F06EF995
:1048900081464FF000080025FEF7A2FD504604F0C7
:1048A000C9F9834680230122002100900846FFF7C2
:1048B00093FA9DE000BF4F48006890F805B0594654
:1048C000002002F0ADFC4C4501D9344602E0B44270
:1048D00000D24C46A01BC0F34717B84501DDB846CF
:1048E00008E003E008F1010000F0FF08A7EB080072
:1048F0000328F7DA454609E006EB451004F09AF97B
:1049000083465946681CFFF785F86D1CBD42F3DBF2
:1049100006EB451004F08EF983465946681CFFF7F4
:1049200043F86D1C0EE0A5EB0800032800DB0EE049
:1049300006EB451004F07EF983465946681CFFF7E4
:1049400069F86D1CA9EB0600B5EB601FEBDD00BF3D
:1049500000BF2948007818B9284800780028F8D006
:104960002648007840B126480078802804D10020ED
:1049700022490870BDE8F88F00201F4908702048C0
:104980000078012806D0022802D080282ED103E02A
:1049900020342CE0203C2AE04C4500D9EAE7E068CE
:1049A00030B100222046E16800F0ACFC80B9E1E7BC
:1049B000206928B1A21BC2F347102169884707E08C
:1049C000E06920B12846E169884708B1D2E7D1E71C
:1049D000FEF706FD504604F02DF9834680230122A0
:1049E000002100900846FFF7F7F900E000BF00BF84
:1049F00060E70000080100207C0100207D0100200C
:104A00007E0100203EB504461248808D029012A51A
:104A10004FF0FF3042F20F71012302AACDE90010DE
:104A200029462046FFF73AFE88B1029988B202F083
:104A30009FFC00BF07490298888501F12C000A46B7
:104A4000801A81B2022202A8FFF702FC00BF0120F7
:104A50003EBD00006C1500202530346400000000CD
:104A600010B50446014800F0A5F910BD2408002047
:104A70003EB50446124890F82B000290114804F00D
:104A8000D9F805464FF0FF303C210A2302AACDE9B0
:104A9000001029462046FFF701FE70B100BF08490B
:104AA000029881F82B0001F12B000A46801A81B28E
:104AB000012202A8FFF7CCFB00BF01203EBD000091
:104AC0006C1500200CAF000838B505460E4991F86A
:104AD0003F00FEF73FFA02F0C7F9FEF781FC0B48F2
:104AE00004F0A8F80446802301220221009000204F
:104AF000FFF772F90120FEF7A3F94FF4FA7003F003
:104B000053FBFEF76DFC38BD6C1500209CAF000810
:104B10002DE9FC41012002F0B9FBFEF761FC56488B
:104B200090F83F000190554802F0AAFB544804F069
:104B300081F8054680230122002100900846FFF7F6
:104B40004BF9504802F09CFB4C484079411C4EA266
:104B50000020FEF7E2FF8DE0012002F0B1FB4948A2
:104B600002F08EFB019901EB41014A4A02EB810000
:104B700004F060F805464848006800798021A1EB00
:104B800040064548006807793C4800954079401C3C
:104B9000C1B2334601223846FFF71EF9374802F00A
:104BA0006FFB002002F08CFB00BF3C48007818B976
:104BB0003B4800780028F8D038480078002849D0D1
:104BC00000203649087037480078012815D002289F
:104BD00002D080283DD121E0019C00BF641C632CE1
:104BE00000DB0024E1B22448323000F0B8FD10B9F7
:104BF00001988442F2D101942BE0019C00BF641E15
:104C0000002C00DA6224E1B21B48323000F0A7FD2C
:104C100010B901988442F2D101941AE000BF1649FC
:104C2000019881F83F0001F13F000A46801A81B2E5
:104C3000012201A8FFF70CFB00BF0F4991F83F00CC
:104C400001F0ACF8FEF7CCFB002002F01FFBBDE842
:104C5000FC8100BF1248007860B1124800788028BB
:104C600008D100200E490870FEF7BAFB002002F0C0
:104C70000DFBECE770E700006C150020C4AD0008E8
:104C8000B4AF00087CBF00085B2020202020205DFE
:104C90000000000044090020080100207C010020E1
:104CA0007D0100207E0100203EB504461148C07BF6
:104CB0000290114803F0BEFF05464FF0FF303C2143
:104CC000012302AACDE9001029462046FFF7E6FCA1
:104CD00068B100BF07490298C87301F10F000A4686
:104CE000801A81B2012202A8FFF7B2FA00BF0120A8
:104CF0003EBD00006C15002000AF0008F8B504466A
:104D000003F0B4FB064610480068407900FB04F548
:104D100003F0A2FB07466B463246294601F06AFAC9
:104D200001280ED100BFBDF800000849088201F13A
:104D300010000A46801A81B202226846FFF788FAFC
:104D400000BF0120F8BD0000080100206C15002004
:104D50003EB504461148C07C0290114803F06AFF3A
:104D600005464FF0FF303C21012302AACDE9001097
:104D700029462046FFF792FC68B100BF0749029818
:104D8000C87401F113000A46801A81B2012202A8F8
:104D9000FFF75EFA00BF01203EBD00006C15002049
:104DA00000AF000810B50446014800F003F810BD3C
:104DB000E40600202DE9F84F0446FEF711FBE068F9
:104DC00018B94FF0FF30BDE8F88FE568606918B199
:104DD0006069804705EB4015E06800F0C7FE80463B
:104DE000204603F059FB064600BF4A490968097985
:104DF000B21C5143C1F1800000EBD0714F1020462E
:104E000003F018FF8146802301220021009008460C
:104E1000FEF7E2FF00BF3F4800684079401C00F009
:104E2000FF09F8B25B224946FEF764FA00BF394831
:104E300000684079401C00F0FF093648006801799D
:104E4000701C00FB017000F0FF0A5D2249465046CD
:104E5000FEF750FA00BF2F4800680079074457E07A
:104E6000454500D9E568E068A84200D945460120DB
:104E700002F026FA284603F0DDFE81462548006848
:104E8000007900FB06FA234800684079401C00F0D6
:104E9000FF0BF8B2534601225946CDF80090FEF7B9
:104EA0009BFF002002F00CFA00BF1B48007818B9E5
:104EB0001A4800780028F8D01848007840B11848FF
:104EC0000078802804D1002014490870401E7AE739
:104ED00000201149087012480078012806D00228E5
:104EE00002D0802810D103E0203510E0203D0EE0F4
:104EF000206928B1A289AA1AC2F3471021698847FC
:104F0000E068281A40115EE74FF0FF305BE700BF12
:104F1000A6E70000080100207C0100207D010020A0
:104F20007E0100203EB5044610488079029010486A
:104F300003F080FE05464FF0FF303C21012302AA1A
:104F4000CDE9001029462046FFF7A8FB60B100BF5D
:104F5000064902988871881D821F801A81B2012239
:104F600002A8FFF775F900BF01203EBD6C150020B7
:104F700000AF00083EB504461048C07802901048C3
:104F800003F058FE05464FF0FF303C21002302AAF3
:104F9000CDE9001029462046FFF780FB60B100BF35
:104FA00006490298C870C81CC21E801A81B201222C
:104FB00002A8FFF74DF900BF01203EBD6C1500208F
:104FC00000AF00083EB504460F48808802904FF0BD
:104FD000FF304FF49671322302AACDE900100B483E
:104FE00001682046FFF75AFB60B100BF06490298EE
:104FF0008880081D021F801A81B2022202A8FFF7D2
:1050000027F900BF01203EBD6C150020BC01002027
:105010002DE9F04F8DB0022400BFA8480068007948
:1050200000EB8000460000BFA4480068007900EB58
:1050300080090FF28C2AA44903C9CDE90201A348D3
:1050400003F0F8FD07463A4600210846FEF73CFF0C
:105050009FA0FEF7B5FD00BF984800680079C0F139
:105060008000C7B29BA200213846FEF72DFF9A4868
:1050700003F0E0FD07463A4602210020FEF724FF38
:1050800093A0FEF79DFD00BF8C4800680079C0F139
:105090008000C7B28FA202213846FEF715FF8F4865
:1050A00003F0C8FD07463A4604210020FEF70CFF36
:1050B00087A0FEF785FD00BF804800680079C0F139
:1050C0008000C7B283A204213846FEF7FDFE844863
:1050D00003F0B0FD07463A4606210020FEF7F4FE35
:1050E0007BA0FEF76DFD00BF744800680079C0F139
:1050F0008000C7B277A206213846FEF7E5FE02A877
:1051000030F81400774991F90010084485B2042062
:1051100002F01CFA8046D0E002A830F81400714971
:1051200091F90010084487B2384602F06BF93B460B
:105130005246082108A8FBF7EDF8F0B208AA0021B2
:10514000FEF7C2FE08A800F0CDFD8346F0B25A4635
:105150000221FEF7B9FE2B465246082108A8FBF7AC
:10516000D9F8012002F0ACF8F0B208AA0421FEF749
:10517000ABFE002002F0A4F85B4803885BA2082184
:1051800008A8FBF7C7F808A80090F0B24B46022227
:105190000621FEF721FE5648007800287DD0002029
:1051A0005349087053480078012865D002286BD015
:1051B000802871D1022C35DA0DF11700611C00EB4B
:1051C0004100008848490988401AB0F5C87F0CDBC7
:1051D0000DF11100611C00EB41000088414991F97B
:1051E0000010691A401A32281CDAFEF7F9F8424812
:1051F00003F020FD8346802301220221009000203D
:10520000FEF7EAFD0320FDF71BFE4FF4FA7002F0F3
:10521000CBFFFEF7E5F8404602F098F900200DB00C
:10522000BDE8F08F304801880DF1170000EB440015
:1052300001802C4890F90000281A81B20DF111006C
:1052400000EB440001806CB92C4991F83F0004A99F
:1052500002F0DCFE04A801F073FF404602F076F98C
:105260000120DCE7641E02A830F814001D4991F902
:105270000010084485B20FE0681E85B2322D00DAB6
:10528000322509E009E0FFE7681C85B2B5F5F07F3B
:1052900001DD4FF4F07500BF00BF1948007858B128
:1052A00000201749087013480078802804D1404630
:1052B00002F04CF90020B2E700BF2DE70801002002
:1052C00025303364A1E60000C0AF000860AF0008DD
:1052D000205B00005D0000006CAF000878AF0008A4
:1052E00084AF00081101002014010020253464005F
:1052F0007C0100207E01002090AF00086C1500208A
:105300007D0100202DE9F74F84B00D4691461DB96F
:10531000002007B0BDE8F08F05EB4914284600F0E7
:1053200025FC07464FF00008C3460026B246701E13
:105330000390FEF755F8049803F07CFC029080235C
:105340000122002100900846FEF746FDADE000BFB7
:1053500056480068407901460290002001F060FF45
:10536000BC4201D93C4602E0AC4200D22C46601B54
:105370004FEA6019C84502DD09F0FF0808E003E0C4
:1053800008F1010000F0FF08A9EB08000328F7DA94
:10539000464605E005EB46100021FEF7C5FD761CEC
:1053A0004E45F7DB05EB46100121FEF7BDFDA6EBF0
:1053B000080000F1010B761C0AE0A6EB08000328A8
:1053C00000DB09E005EB46100021FEF7ADFD761C81
:1053D000781BB6EB601FF0DD00BFBD4205D1012098
:1053E0003349087080203349087000BF3048007886
:1053F00018B9314800780028F8D02F48007840B11B
:105400002C480078802804D100202B490870012006
:105410007FE700202649087026480078012804D03C
:10542000022810D080283ED11BE0203CAC4207D29D
:105430002C460AF1010ABAF1050F03DB012068E7E7
:105440004FF0000A30E02034BC4207D93C460AF154
:10545000010ABAF1050F03DB01205AE74FF0000AF9
:1054600022E0BC4201D9012053E7E06888B16069BD
:105470008047029002465846E16802F083FB0390A1
:1054800000280BDB206948B1039AD0B22169884714
:1054900004E0E06910B15846E1698847BD4201D196
:1054A000012036E700E000BF00BF50E70801002000
:1054B0007C0100207E0100207D01002010B5044603
:1054C0000A4A0B490B48FEF76DFF00BF0D22074942
:1054D0000846FBF7EEFA0548A0F13202801A81B2C5
:1054E0000D220248FEF7B4FE00BF10BD9E1500203D
:1054F0004409002018AF00082DE9F05F04460E466D
:1055000015461F46DDF828B04FF00008C146AA46F0
:105510003146204601F024F96019802803DDC4F1EA
:10552000800000F0FF0A4FF0000815E04FF000097E
:1055300006E0584601F058F909F1010000F0FF09B2
:10554000D145F6DB701CC6B23146204601F008F9A1
:1055500008F1010000F0FF08B845E7DBBDE8F09F67
:105560002DE9F041024600250026002000230024FA
:10557000002791F803C00CF00F0591F803C00CF060
:10558000100CBCF1000F03D091F802C04CEA0505E5
:1055900091F800C0BCF1000F31D0146800202BE05E
:1055A0004FF0010C0CFA00F3B1F800C00CEA03064E
:1055B0009E4220D183004FF00F0C0CFA03F7BC433E
:1055C00005FA03FC4CEA040491F803C0BCF1280F6F
:1055D00006D14FF0010C0CFA00FCC2F814C00AE02E
:1055E00091F803C0BCF1480F05D14FF0010C0CFA43
:1055F00000FCC2F810C0401C0828D1D31460B1F8D8
:1056000000C0BCF1FF0F34DD546800202EE000F133
:10561000080C4FF0010808FA0CF3B1F800C00CEACE
:1056200003069E4221D183004FF00F0C0CFA03F7C2
:10563000BC4305FA03FC4CEA040491F803C0BCF136
:10564000280F05D100F1080C08FA0CF8C2F81480F4
:1056500091F803C0BCF1480F07D100F1080C4FF0DE
:10566000010808FA0CF8C2F81080401C0828CED3B4
:105670005460BDE8F0810000F0B50A460023002424
:105680000021002500F00046B6F1004F02D11D4E6A
:10569000F16901E01B4E7168C0F3034583B200F469
:1056A0004016B6F5401F08D121F07061154E76689E
:1056B00026F07066134F7E6012E000F48016B6F597
:1056C000801F06D1032606FA05F4A14341F070615C
:1056D00006E0460D360103FA06F6B14341F070616B
:1056E00022B1460D360103FA06F6314300F00046BA
:1056F000B6F1004F02D1034EF16101E0014E71603D
:10570000F0BD000000000140416170470161704739
:1057100010B504460648B0F81710012302222046AF
:10572000FDF7C2FC5620207100206071204610BD9C
:105730006C1500200148007D704700006C150020AA
:1057400010B5024602EBE100007801F007040123E6
:10575000A340184008B1012010BD0020FCE710B59F
:10576000024602EBE100007801F007040123A340A8
:10577000184008B1012010BD0020FCE710B5044618
:105780000B480089642803DD64200949088106E08C
:10579000074800890A2802DA0A2005498872044865
:1057A0000289044801682046FAF79EFD204610BD94
:1057B0006C150020BC01002070B50446054803F0BC
:1057C00039FA05460448827A29462046FAF78CFDC4
:1057D000204670BD00AF00086C1500200246002175
:1057E0000FE001EB810000EBC1030848C05C904270
:1057F00006D101EB810000EBC10304481844704757
:10580000491C0529EDDB0020F9E70000AD1500205B
:1058100010B502460B46107820280ADB10787F2846
:1058200007DC0820186010782038214C04EB0010A9
:1058300010BD1078A72819D1082018605078A12829
:1058400008DB5078C12805DC5078A138194C04EBEE
:105850000010EDE75078D12808DB5078F12805DCFE
:105860005078B038134C04EB0010E1E700211AE047
:105870001148405C1478A04214D1102018601078B0
:10588000802804DA48080D4C04EB4010D0E70A4C9D
:10589000481C205C5478A04204D14808074C04EB13
:1058A0004010C5E7891CB1F58E7FE1D30020BFE72A
:1058B000C4900008C4960008A4AC0008E49A00084C
:1058C0000148407B704700006C15002001480078BB
:1058D00070470000800100200148C07A7047000036
:1058E0006C15002010B504460448027B044801688A
:1058F0002046FAF7F9FC204610BD00006C15002088
:10590000C001002010B50A4890F83F00632803DB6F
:105910000920074981F83F00054991F83F1001EB44
:105920004101044A02EB810003F084F910BD00003C
:105930006C1500204409002070B5044604A50648F3
:10594000028E29462046FAF7CFFC204670BD0000A3
:1059500025303464000000006C15002030B58FB095
:1059600004463022144902A8FBF72AF904F1140076
:1059700004F10C030EAA11A1009013A0FAF728FF5E
:10598000231D1A1D13A116A00094FAF721FF6069C8
:10599000A0F26C706061002509E002A850F82510A3
:1059A0000EA8FBF791F908B9256102E06D1C0C2DDA
:1059B000F3DB00BF0FB030BDC8AF00082573202552
:1059C00064202564000000004170722031382032CC
:1059D0003032300025643A25643A25640000000026
:1059E00030373A35303A323800000000014890F83C
:1059F0002A0070476C1500200148007F70470000A6
:105A00006C15002001488078704700006C1500205C
:105A100010B502460B46107820280ADB10785D2866
:105A200007DC1020186010782038124C04EB80102E
:105A300010BD20201860002118E00F48405C147849
:105A4000A04212D11078802804DA48080B4C04EBED
:105A5000C010EDE7084C481C205C5478A04204D1EB
:105A60004808064C04EBC010E2E7891C0229E4D385
:105A70000020DDE7F8AF000878BF0008941300208D
:105A800010B502460B46107830280FDB1078392805
:105A90000CDC182018601078303800EB4000400013
:105AA00000EB4000204C04EBC00010BD10784128F2
:105AB00014DB10785A2811DC00210DE01B48405CF3
:105AC0001478A04207D11820186001EBC100184CCF
:105AD00004EB0010E9E7491C0429EFD330201860DB
