:020000040800F2
:1000000000220020010100086B2900084925000892
:1000100069290008D5150008857600080000000051
:10002000000000000000000000000000554F000824
:10003000C11A0008000000006701000801650008FF
:100040001B0100081B0100081B0100081B01000820
:100050001B0100081B0100081B0100081B01000810
:100060001B0100081B0100081B0100081B01000800
:100070001B0100081B0100081B0100081B010008F0
:100080001B0100081B010008F10900081B01000802
:100090001B0100081B0100081B0100081B010008D0
:1000A0001B0100081B0100081B0100081B010008C0
:1000B00075650008996500081B0100081B01000810
:1000C0001B0100081B0100081B0100081B010008A0
:1000D0001B0100081B0100081B0100081B01000890
:1000E0001B0100081B0100081B010008DFF80CD0F1
:1000F00000F03EFC00480047E1820008002200209A
:100100000648804706480047FEE7FEE7FEE7FEE7B1
:10011000FEE7FEE7FEE7FEE7FEE7FEE725650008EF
:10012000ED000008EFF3108072B6704780F310887E
:1001300070471D484FF0FF010170002080F30988CF
:100140001A48012101701A484FF08051016062B6CF
:10015000FEE717484FF080510160704714484FF098
:1001600080510160704772B6EFF3098028B12038E2
:1001700080E8F00F0F490968086000B50E48804715
:100180005DF804EB0D480E490A78027009480D49E4
:100190000A680260106890E8F00F203080F3098848
:1001A0004EF0040E62B6704722ED00E0DF00002042
:1001B00004ED00E0F8000020B9350008DC00002064
:1001C000DD0000200001002040EA01039B0703D06E
:1001D00009E008C9121F08C0042AFAD203E011F886
:1001E000013B00F8013B521EF9D27047D2B201E048
:1001F00000F8012B491EFBD270470022F6E710B52C
:1002000013460A4604461946FFF7F0FF204610BD84
:10021000421E12F8013F002BFBD111F8013B02F8FE
:10022000013B002BF9D17047034611F8012B00F870
:10023000012B002AF9D11846704730B480EA010238
:1002400002F0004530F0004221F0004015D0A0B18E
:10025000C0F3C753C2F3C754C2F31601C0F316006C
:10026000E41A41F4000140F400027D34914201D3CC
:10027000641C00E04900002C02DA30BC002070470A
:100280004FF400000023914201D3891A0343400830
:100290004FEA4101F7D151B1914202D14FF00041F3
:1002A00005E002D24FF0010101E06FF0010103EB24
:1002B000C450284430BC00F0ADBA2DE9FE4F804652
:1002C00081EA0300C00F0C46009021F0004123F0AA
:1002D0000045B8EB0200A94105D2404621469046B0
:1002E0001C460B46024623F00040104304D1404612
:1002F000214603B0BDE8F08F270DC7F30A00C3F312
:100300000A510290401A0190402866DAC3F31300A4
:1003100040F4801B0098924620B10023D2EB030AE0
:1003200063EB0B0B01985946C0F14002504600F0B8
:1003300040FA06460D4650465946019A00F058FAD2
:1003400010EB08006141002487EA115284EAE77348
:100350001A433BD0009A3AB3019A012A4FEA075256
:1003600010DC001B61EB02014FF0004202EA075271
:10037000CDE90042001C41F5801132462B4600F0C9
:100380008CFAB6E7001B61EB0201001C41F58013FB
:1003900000185B412018A2F5001747EB030140EA63
:1003A000D570B6196D4111E06D084FEA360645EA81
:1003B000C0754FEA0752001B61EB0201001C41F5BA
:1003C000801149084FEA30000019514132462B464E
:1003D00003B0BDE8F04F00F053BA0098012240008E
:1003E0000023D0EB020263EBE073009821464FEA52
:1003F000E074B8EB000061EB0401E9E783F000432F
:100400005BE781F0004158E72DE9FE4F81EA0304E4
:1004100004F0004421F0004100944FF0000B23F061
:10042000004350EA010402D052EA030404D1002040
:10043000014603B0BDE8F08FC3F30A54C1F30A5577
:100440002C44A4F2F3340194A0FB0254C1F3130131
:1004500041F48011C3F3130343F4801301FB0244FE
:1004600000FB034E840A970A44EA815447EA835703
:10047000A4FB076802958D0A05FB07854FEA932CBC
:1004800004FB0C542705029D4FEA065847EA16372D
:10049000B5EB08056EEB070C870E920E47EA811745
:1004A00042EA8312A7FB0201B6EB0B0164EB0004E6
:1004B0002B0D43EA0C335E1844EB1C50DA465146D0
:1004C000E7FB0201C5F313044FEA0B3343EA14536D
:1004D0004FEA0432019C43EA0603A4F10C0402949F
:1004E000009CCDE900B400F0D8F9A2E72DE9F04D69
:1004F00081EA030404F0004B21F0004514464FF05C
:10050000000A23F0004150EA050220D054EA01021B
:100510001DD0C5F30A570246C5F31303C1F31300F8
:10052000C1F30A5640F4801543F48013A7EB060884
:10053000101BD64608F2FD3873EB050002D308F114
:10054000010801E092185B41B8F1000F03DA0020C6
:100550000146BDE8F08D00204FF480110646844628
:100560000EE0171B73EB050705D3121B63EB0503A6
:1005700006434CEA010C49084FEA300092185B41EF
:1005800050EA0107EDD152EA030012D082EA0400DA
:1005900083EA0501084303D100224FF0004308E03D
:1005A000101BAB4102D20122002302E06FF00102D6
:1005B00053101AEB06004CEB085110EB0A0041EB0C
:1005C0000B01BDE8F04D00F05BB970B521F00043C0
:1005D00003430CD0C1F30A550024D5EB040564EBAA
:1005E0000403D617AD1AB34102DB0020014670BDEB
:1005F000201841EB025170BD96230022114600F0F5
:1006000012B90EB5C10F80EAE0700844CA07002194
:1006100040F233438DE80E000A460B4600F03DF9E8
:1006200003B000BD0EB540F2334102910021CDE987
:1006300000110A460B4600F030F903B000BD70B55A
:10064000C1F30A5201F000450024C1F3130140F246
:10065000FF3341F480119A4201DA002070BD40F26C
:1006600033439A42A2F2334203DC524200F0B0F824
:1006700000E090402C43F1D0404270BDC1F30A52DB
:1006800010B5C1F3130140F2FF3341F480119A42D7
:1006900001DA002010BD40F233439A42A2F2334205
:1006A00003DC524200F094F810BD904010BD00F001
:1006B000004230F000400AD0C10D01F56071C0F376
:1006C000160042EA0151C20840071143704700205A
:1006D0000146704730B5002904DB4FF0004440422A
:1006E00064EB0101002B04DB4FF00044524264EB49
:1006F00003038B4208BF824230BD000030B50029A1
:1007000004DB4FF00044404264EB0101002B04DBAA
:100710004FF00044524264EB0303994208BF9042F9
:1007200030BD000030B50B460146002020220124D8
:1007300009E021FA02F59D4205D303FA02F5491BAF
:1007400004FA02F52844151EA2F10102F1DC30BDC5
:100750002DE9F05F0546002092469B4688460646F6
:10076000814640241BE0284641464746224600F089
:100770002FF853465A46C01A914110D311461846D5
:10078000224600F016F82D1A67EB01084F46224664
:100790000120002100F00DF817EB00094E41201E4A
:1007A000A4F10104DFDC484631462A464346BDE851
:1007B000F09F202A04DB203A00FA02F10020704763
:1007C0009140C2F1200320FA03F31943904070478F
:1007D000202A04DB203A21FA02F00021704721FA96
:1007E00002F3D040C2F120029140084319467047FD
:1007F000202A06DBCB17203A41FA02F043EAE073E5
:1008000006E041FA02F3D040C2F1200291400843D1
:10081000194670470029A8BF7047401C490008BF0F
:1008200020F00100704710B4B0FA80FC00FA0CF020
:1008300050EA010404BF10BC704749B1CCF1200458
:1008400021FA04F411FA0CF118BF012121430843E5
:10085000A3EB0C01CB1D0106000A002BBEBF00203C
:1008600010BC704700EBC35010440029A4BF10BC5B
:100870007047401C490008BF20F0010010BC7047C1
:1008800010B5002B08DA401C41F1000192185B41C1
:100890001A4301D120F0010010BD2DE9F04D924620
:1008A0009B4611B1B1FA81F202E0B0FA80F2203237
:1008B0009046FFF77EFF04460F4640EA0A0041EAF1
:1008C0000B0153465A46084303D120463946BDE83A
:1008D000F08D114653EA010015D0C8F14002504690
:1008E000FFF776FF05460E46504659464246FFF74B
:1008F00060FF084301D0012000E00020054346EAE4
:10090000E0762C4337430A984FEA4453A0EB0800A3
:100910004FEAD4240A304FF0000244EA47544FEA29
:10092000D72502D500200146D1E7010510196941FC
:10093000DDE9084500196941BDE8F04DA0E7C1F3C4
:100940000A52C1F3130140F2FF3341F480119A427D
:1009500002DA00200146704740F233439A42A2F285
:10096000334202DC5242FFF733BFFFF722BF0000E1
:10097000064C074D06E0E06840F0010394E80700EC
:1009800098471034AC42F6D3FFF7B4FB9C3B010808
:10099000BC3B010870B501EB020410F8015B15F0D7
:1009A000070301D110F8013B2A1106D110F8012BE1
:1009B00003E010F8016B01F8016B5B1EF9D12B0706
:1009C00005D40023521E0FD401F8013BFAE710F8BA
:1009D000013B02F10202A1EB030303E013F8015B08
:1009E00001F8015B521EF9D5A142D6D3002070BD9B
:1009F0002DE9F0433B496FF00200086039480830A8
:100A0000016841F4A0010160374B394D184693F855
:100A10000180D0E9032186780127DFF8D090491CB6
:100A2000288800244FF4006CB8F1000F23D06045F3
:100A300004D9A2F500620244C3E90321012E2BD0A0
:100A4000B0F5106F00D39F701878012846D1294A5D
:100A500058796988284E22F810101979AA886328D5
:100A600026F81120254E9A79ED8826F812502AD2C0
:100A7000401C587128E0604504D2121A02F5006249
:100A8000C3E90321012E03D0B0F5E06FDBD3DBE730
:100A90006045D9D95F7002E06045D5D25C709C702A
:100AA000002005F021FCD3E90301B0FBF1F1D87877
:100AB000092829F810101C61DC6002D2401CD87093
:100AC000C2E7DC70C0E75C71632902D2491C19716E
:100AD00000E01C71632A03D2521C9A71BDE8F083B6
:100AE0009C71FBE70024014094000020A00300203B
:100AF000480000204801002010020020D8020020F9
:100B000010B5134C8CB00021204600F0D9FE2046D1
:100B100000F0E2FE0F4800900F480021CDE90101EE
:100B20000420CDE90301802005904000069080005C
:100B300007902020CDE908010A916946204600F07F
:100B40003DFF0121204600F0BBFE0CB010BD0000AF
:100B5000080002404C240140480000200029816820
:100B600002D041F0010101E021F0010181607047F4
:100B70000029816802D041F4807101E021F4807184
:100B800081607047014600208968490700D501202F
:100B90007047014600208968090700D50120704789
:100BA000002A4268C9B201D00A4300E08A43426089
:100BB0007047000010B542680E4B0C791A400B6864
:100BC00042EA04221343436083680B4A1340D1E98D
:100BD000024222434C7943EA44031A438260C26AC8
:100BE000097C22F47002491EC9B242EA0151C16275
:100BF00010BD0000FFFEF0FFFDF7F1FF70B5072408
:100C000009290AD9C568A1F10A0606EB4606B440CF
:100C1000A543B3401D43C56007E0056901EB4106EC
:100C2000B440A543B3401D4305611F23072A09D2E1
:100C3000446B521E02EB820293409C4391400C4352
:100C4000446370BD0D2A09D2046BD21F02EB8202ED
:100C500093409C4391400C43046370BDC46A0D3AB9
:100C600002EB820293409C4391400C43C46270BDEE
:100C7000816841F00801816070470029816802D0D5
:100C800041F4A00101E021F4A00181607047816876
:100C900041F004018160704705490028086802D0CE
:100CA00040F4000001E020F40000086070470000FC
:100CB000082401402DE9F04F002591B0A848069581
:100CC0002F46867D90F82A802C4601F04BFB0A21A6
:100CD00090FBF1F000B2049001F080FB40F2DE31B5
:100CE000884201DD192003E00A2190FBF1F000B2F7
:100CF000824616B1012E06D00BE09948B0F81710C5
:100D00000498401A04E09648B0F81910AAEB0100C4
:100D100004B2DFF850B24FF00009ABF8009001F0D8
:100D2000FDFE914808EB08110A1800219046102397
:100D30000846CDF8009001F073FE08F1220210235E
:100D400003210020CDF8009001F06AFE08F1440272
:100D5000102306210020CDF8009001F061FEC84666
:100D600000E0A5B9DFF80492CDE9009805238022C0
:100D70000321782001F09EFE01237DA20621782028
:100D8000CDF8008001F04CFEDFF8E8B10FE0CDE9CE
:100D90000098082380220621782001F08BFE012391
:100DA00073A203217820CDF8008001F039FE16B13E
:100DB000012E0AD014E00DB9012F04D00020032326
:100DC0006DA2009008E00120F9E70DB9012F0BD0CA
:100DD0000020032369A200900321502001F020FE8F
:100DE000632C03DD632406E00120F2E76FF00800C6
:100DF000844200DA0446224661A108A806F062FC9B
:100E000061A108A8FFF704FA012D01D1012F19D023
:100E100000200090052308AA06214C2001F000FEC6
:100E20000FAA4FF4FA61DBF8000002F0FBF89DF81E
:100E30003C1049B14B490888B0F5967F11D2401C4F
:100E400008808EE70120E4E7464A0128A2F80080E6
:100E50000AD0042851D0082868D06FF40041401807
:100E6000EFD111B0BDE8F08F27B13DB196B3012E9F
:100E700037D040E001270020069072E7DFF8E090CD
:100E8000012109F1160089F8166006F0FDFB01F05A
:100E900069FA0A2790FBF7F000B2049001F09EFA7D
:100EA00040F2DE31884201DD192002E090FBF7F0CC
:100EB00000B2824616B1012E05D009E0B9F817102C
:100EC0000498401A03E0B9F81910AAEB010004B223
:100ED000002747E7FFE70498011B2148A0F81710F7
:100EE00005E01F4AAAEB0401901CA2F81910173064
:100EF000022106F0C9FB002733E727B185B1632C37
:100F000011DA641C19E0002D4FF0010506D0069897
:100F10000328A6D2401CC0B2069038E70020FBE7A9
:100F2000D6B100261EE76FF008041AE73FB1002D86
:100F3000F6D014F1090F11DD641E24B211E7012D62
:100F40004FF0000506D0069803288AD2401CC0B294
:100F5000069007E70020FBE7012603E7632400E78C
:100F60002004002088000020BA350108BB300108A9
:100F700020000000C0000020435055004E544300A4
:100F80002530326400000000A1E600002DE9F84F92
:100F90000024204602F0E8F86C4E306300F0AAF915
:100FA00003F0CAFD6A484FF4FA6500274068B0FBB9
:100FB000F5F0B0F1807F0BD220F07F414FF0E020C0
:100FC000491E4161634AF021117087610721016167
:100FD00001F0DCFB07F021F84FF4FA6002F0EEFAC2
:100FE00001F0B8FE03F0CEFD5FF0000503F0AEFEA9
:100FF000012806D1641C142002F0E0FA6D1C0A2DB1
:10100000F4D3052C17D9002001F0DAFA044601F0D8
:1010100085FD4FF010030097CCB14FA203210420AF
:1010200001F0FEFC204601F091FA4FF4FA6002F064
:10103000C5FA01F073FD01F057FC01F04BFC4A4882
:101040004FF0010890F82200012804D005E00321A8
:1010500046A21820E4E786F8088000244FF47A7747
:10106000DFF8149141F6573547E0DFF810B140F250
:10107000E93ABC4208D1BBF80010A9F800100120E1
:1010800002F09CFA5446F4E7B4F5FA6F0CD0A4F5DC
:101090003060B8380ED13948001D0188A9F8041015
:1010A000012002F08BFA1BE03448801C0188A9F86B
:1010B00002100BE0B4F57A6F0CD0A4F59850883884
:1010C0000ED12E4808300188A9F80810012002F03E
:1010D00075FA12E02948801D0188A9F80610F5E785
:1010E000A4F5B850703808D124480A300188A9F80E
:1010F0000A10012002F062FA641C641CAC42B4D3F2
:101100001C221F491F48FFF75FF81D491C2211319F
:101110001D48FFF759F805231C4A00211C4802F01E
:101120005DF809231B4A00211B4802F057F800F024
:1011300053FA384602F042FA0A2005F045FE86F8D6
:101140000380BDE8F84FFF2002F0DCB8500000201B
:101150003401002023ED00E0506C65617365207759
:10116000616974A1ADA1AD0020040020C7EBC9D412
:10117000BAF2A1ADA1AD0000C8030020E8F7FF1F3F
:10118000ACF1000804000020240000205C0A0020CC
:10119000693E00085C0C0020A95F0008704770479A
:1011A0007047704770477047074910B50878142892
:1011B00002D2401C087003E00020087001F090FA91
:1011C000BDE8104004F050B90000002010B5012027
:1011D00003F036FBBDE81040002003F031BB0000F7
:1011E0000248008800F07F00704700002C6C00402F
:1011F00008B5024908440090008808BD006C004012
:10120000034A118821F07F010143118070470000DB
:101210002C6C004008B5024A10440090016008BDE3
:10122000006C004030B587B0002003F017FAFFF7DC
:1012300067FC00214FF46020CDE9020101248DF804
:10124000044004202A4D00918DF805108DF81000FF
:1012500069462846FFF7AEFC0523012200212846F7
:10126000FFF7CCFC0523022201212846FFF7C6FC2C
:101270000322052311462846FFF7C0FC052304225C
:1012800010212846FFF7BAFC0120FFF705FD0121D8
:101290002846FFF76DFC01224FF408712846FFF73E
:1012A0007FFC01212846FFF759FC2846FFF7E0FCA8
:1012B0002846FFF76EFC0028FAD12846FFF7E7FC26
:1012C0002846FFF75FFC0028FAD112208DF81400A1
:1012D0008DF815408DF816408DF8174005A801F0DF
:1012E00045FB01212846FFF7C8FC07B030BD0000D0
:1012F0000024014010B5074803F0B0FA03F0C4F928
:1013000000F04AFEFFF78EFF00F036F8BDE810400F
:1013100000F002B83401002030B587B06320ADF88A
:101320001400144841F27071002400684FF08045A9
:10133000B0FBF1F0401EADF81000ADF81640ADF86E
:10134000124004A9284605F0C3FA6020ADF8000059
:101350000120ADF802006420ADF80600ADF80840A9
:101360006946284605F042FA0121284605F0A0F911
:1013700007B030BD3401002030B589B04FF6FF70A2
:10138000ADF814003448354900240068344DB0FBF2
:10139000F1F0401EADF81000ADF81640ADF8124067
:1013A00004A9284605F094FAADF80040ADF80240D3
:1013B000ADF80640ADF808406946284605F096F9B4
:1013C000ADF80040ADF80240ADF80640ADF8084079
:1013D0006946284605F0CAF9ADF80040ADF802406C
:1013E000ADF80640ADF808406946284605F0FEF91C
:1013F000ADF80040ADF80240ADF80640ADF8084049
:101400006946284605F030FA01220221284605F0F7
:1014100065F901220421284605F060F9012208211E
:10142000284605F05BF901221021284605F056F9FF
:101430001D208DF81C0001218DF81D1002208DF853
:101440001E008DF81F1007A801F090FA0121284610
:1014500005F02EF909B030BD3401002000093D002F
:10146000000400402DE9FE4F3B48DFF8F480DFF830
:10147000ECB0067845780020A8F8000001F04EFB9B
:10148000384C4FF000070097A5B105EB0510021985
:1014900014460F230021084601F0C2FA04F122028B
:1014A000102304210020009701F0BAFADFF8B89069
:1014B000C24605E022461023ECE70298012810D12D
:1014C0000623542204212C2001F02BFB002006EBE4
:1014D000C60102900BEB81004FF0010800EB0517ED
:1014E0004419CDF800803A4694F8223094F8200050
:1014F000042101F095FA01AA4FF4FA61D9F800002D
:1015000001F090FD9DF8041041B1BAF80010B1F55A
:10151000967F10D2491CAAF80010CEE70021AAF845
:101520000010012809D0042810D008280ED06FF42C
:1015300000414018C1D1BDE8FE8F0748012129387C
:1015400080F82960293006F09FF8F4E70EB10026F4
:10155000B6E70126B4E7000049040020523701082D
:10156000880000200E370108C000002070B5154823
:101570000025164C90F8292013484FF48071012A59
:1015800019D12278BAB102EBC20303EB0212104B5D
:1015900003EB42026378D25C3AB100F0CAFE607895
:1015A000312805D2401C607070BD00F0C0FEF6E727
:1015B0006570257070BD65702570BDE8704000F0E5
:1015C000B6BE000020040020000C014050000020A6
:1015D00008E80008FEE700002DE9F0411B4C002759
:1015E000032001F0EBFF0621194800F0A5FE064696
:1015F00017480621801D00F09FFEA6830546E08364
:101600002021204600F0D2FE124C202120801248DA
:101610008683C58300F0CAFE6080012001F0CEFF02
:101620000E4821880E4D0288914203D1618840887E
:10163000814205D0072001F0C1FF6F72BDE8F08143
:10164000032001F0BBFF01206872F7E704000020CF
:10165000C8030020D40300202400002053040020ED
:10166000500000202DE9F0410027032001F0A6FFE3
:101670000621194800F060FE064617480621801F23
:1016800000F05AFE0546154820218583C68300F0E8
:101690008DFE134C2021608012488583C68300F0A4
:1016A00085FE2080012001F089FF0F4821880F4D21
:1016B0000288914203D161884088814205D0072089
:1016C00001F07CFF6F72BDE8F081032001F076FF2E
:1016D00001206872F7E70000CE03002024000020FC
:1016E000D4030020040000205304002050000020F8
:1016F0002DE9FC47012401F011FA0026102360A215
:1017000002213046009601F08BF910235CA20521DE
:101710000020009601F084F95E4D5F4FDFF87C8178
:101720002E804FF4FA6900BF97F82A0000284CD0A9
:10173000002C6CD000200090072359A20221242005
:1017400001F06EF9012C64D000200090062356A20F
:101750000521282001F064F9002C4FF004035AD031
:1017600024220221202001F0DCF90423602202213E
:101770005C2001F0D6F9072323220521202001F067
:10178000D0F9072328220521232001F00CFA072392
:101790005D220521582001F006FA07236022052169
:1017A0005FF05D0001F0BDF901AA4946D8F80000DC
:1017B00001F038FC9DF8041000294ED02888B0F5BF
:1017C000967F55D2401C2880AEE7E4B100200090FF
:1017D000062337A20221282001F022F9012C14D07F
:1017E00000200090062334A20521282001F018F9DA
:1017F000042328220221202001F093F904236022EF
:10180000022158201CE00120E1E70120E9E7012046
:1018100091E7012099E723220221202001F081F99C
:10182000042324220221232001F0BDF904235D2298
:1018300002215C2001F0B7F90423602202215D201F
:1018400001F06FF9072328220521202001F069F912
:101850000723602205215820A4E72E80012806D006
:10186000042801D00828AFD13CB100245CE714B1B2
:101870000020BDE8FC870120FBE7012454E70000BD
:101880002020205B20202020202020205D202020E0
:10189000000000008800002020040020C00000207C
:1018A000436F6D6669726D0043616E63656C000025
:1018B000C8B72020C8CF0000C8A12020CFFB00005F
:1018C0000029016802D041F0010102E04FF6FE72EA
:1018D000114001607047000001684FF6FE72114030
:1018E00001600021016041608160C1603149314A7D
:1018F0000839904203D1486840F00F0006E02D4AB5
:101900001432904204D1486840F0F00048607047BB
:10191000284A2832904203D1486840F47060F5E7C5
:10192000244A3C32904203D1486840F47040EDE7CD
:10193000204A5032904203D1486840F47020E5E7D5
:101940001C4A6432904203D1486840F47000DDE7DD
:10195000184A7832904203D1486840F07060D5E769
:10196000154A111F904203D1086840F00F0006E0AD
:10197000114A1432904204D1086840F0F000086027
:1019800070470D4A2832904203D1086840F47060D5
:10199000F5E7094A3C32904203D1086840F47040B0
:1019A000EDE7054A50329042EAD1086840F47020D1
:1019B000E5E70000080002400804024030B5036873
:1019C00047F6F07293430C6A8A682243D1E90445D2
:1019D0002C4322438C692243CC6922434C6A224324
:1019E0008C6A22431A430260CA6842600A688260B5
:1019F0004968C16030BD00002DE9F0412D4A40F238
:101A00006D1110899379A0F2DD70414301EB9001D3
:101A1000002B4CD0C31700EB937323F00303C01AC1
:101A2000134603285C781B784FF0000010D0224D3D
:101A30004FF4B67615F810709F4204D105EB4007BD
:101A40007F78A74219D0401C80B2B042F2D917E08B
:101A50001A4D4FF4B77600BF15F810709F4204D1AD
:101A600005EB40077F78A74204D0401C80B2B0420B
:101A7000F2D305E0B04202D302E0B04200D8014404
:101A8000D0784FF4616358431379C3EB031300EB31
:101A900083005379184440F2A323594300EBC1104B
:101AA000D06003F0FFF8BDE8F04103F027B9BDE8CE
:101AB000F0810000C8000020B6EA000890ED0008A0
:101AC0007047000030B54FF0E0240022A169094BB7
:101AD000094D5B68B3FBF5F34343A069884201D22B
:101AE000114402E06569114429440A1A01469A42E8
:101AF000F3D330BD3401002040420F002DE9F04FF8
:101B0000DFF84481002489B02546A8F8004001F0A0
:101B100005F8DFF838A14FF010039AF82A00009575
:101B2000C0B14BA20021084600F07AFFA946072366
:101B30004CA203210820009500F04CFF00202A272A
:101B400006AD2F54401CC0B20428FAD300264FF033
:101B5000200B04E045A2E5E70026B44206D1A85DCB
:101B60000A2803D230308DF8040001E08DF80470AB
:101B7000B44201D1012000E0002000900BEB0610E0
:101B8000C0B2012301AA032100F024FF761CF6B2A3
:101B9000042EE2D33A4807AA4FF4FA61006801F034
:101BA00041FA9DF81C1041B1B8F80010B1F5967FCC
:101BB00047D2491CA8F80010CEE74946A8F8009083
:101BC00001280AD004282ED0082833D06FF4004111
:101BD0004018C1D109B0BDE8F08F032C02D2641CBB
:101BE000E4B2B9E79AF825109DF8182050469142C2
:101BF00027D190F826109DF81920914221D190F814
:101C000027109DF81A2091421BD19AF828009DF8C0
:101C10001B10884215D11B49012081F800901A49F8
:101C2000C1F80090D6E7285D092801D2401C06E0E3
:101C3000295591E7285D401E092800D30920285521
:101C40008AE70020C6E7000088000020200400206A
:101C500020456E7465722050617373776F726420D3
:101C6000000000005B20202020205D00202020C7F5
:101C7000EBCAE4C8EBC3DCC2EB202020000000006C
:101C8000C0000020580000208C0000202DE9F04FFB
:101C90000025AA4693B0544606217D4800F04CFB2F
:101CA00006460F907A480621801D00F045FBDFF8BC
:101CB000E4B10E900746ABF8004000F02FFF32462B
:101CC00075A103A805F0FEFC082303AA002120202B
:101CD000009400F0A5FE3A4672A103A805F0F2FCBC
:101CE000082303AA02212020009400F099FE082373
:101CF0006FA204212020009400F092FE082371A21C
:101D000006212020009400F08BFE00202A2708AC3A
:101D10002754401CC0B20828FAD34FF040090026CF
:101D20004FF00408A05D0A2801D2303002E01028EC
:101D300003D237308DF80C0001E08DF80C70B542FD
:101D400001D1012000E0002006F003020090B1085C
:101D500009EBC20008EB4101012303AA00F060FE79
:101D6000761CF6B2082EDDD35B4812AA4FF4FA6156
:101D7000006801F057F99DF848100029CFD1D046EE
:101D8000ABF800A001280AD0042879D00828C6D1D1
:101D9000615D491E0F2900D30F216155BFE7072D53
:101DA00002D26D1CEDB2BAE74C4B00204FF6FF7C1F
:101DB00014F8201003EB40050CEA013204EB80011B
:101DC000401C4E78C0B202EB06228E78C97802EB36
:101DD0000612114429800228EAD303F0D5F90A201B
:101DE00001F0ECFB00F09AFE10233DA20321182025
:101DF000CDF8008000F014FE4FF47A6001F0DEFBB5
:101E0000FFF7EAFB39480078012834D0002500F0BC
:101E100085FE21A103A80F9A05F054FC082303AA0C
:101E200000212020CDF8008000F0FAFD1DA103A8BC
:101E30000E9A05F047FC082303AA02212020CDF8C2
:101E4000008000F0EDFD082319A204212020CDF828
:101E5000008000F0E5FD08231AA206212020CDF81D
:101E6000008000F0DDFD00202754401CC0B208288F
:101E7000FAD354E704E000F051FE13B0BDE8F08F50
:101E8000615D0F2901D2491C87E704F8058046E708
:101E9000C8030020880000204944313A25303458D6
:101EA000000000004944323A253034580000000058
:101EB0005247313A2020202020202020202020209E
:101EC000000000005247323A20202020202020200D
:101ED0002020202000000000C0000020530400202B
:101EE000C7EBC9D4BAF2A1ADA1AD000059000020E2
:101EF0001A4830B4418A0A22B1FBF2F30246C17992
:101F0000D27B21B1012902D002291FD11DE000217D
:101F1000134C0173962B84F83810817200D94173E9
:101F2000104C642B236808D2C46A1B1B44F620643F
:101F3000A34203D90123437302E0C362437B0BB185
:101F40000AB103E06421817300E01AB1807B30BCE8
:101F500003F0B6BB02494031497DF4E75000002050
:101F6000E00300200801002010B50021094A0AE022
:101F70000478A34206D1531844785B78A34201D178
:101F8000080110BD891C535C002BF1D14FF6FF7086
:101F900010BD0000F42E01082DE9F84301210420B2
:101FA00002F042FC0121082002F03EFC002110203A
:101FB00002F03AFC0021202002F036FC00214020F3
:101FC00002F032FC0021802002F02EFC00214FF4B0
:101FD000807002F029FC0121084602F025FC012155
:101FE000874800F071F90126DFF81882864F002536
:101FF0004FF6FF7405EB4500ADF80060395C3844DE
:102000008DF8031041788DF8021080783146012850
:1020100040467DD000F08BF96946404600F004F957
:102020006D1CADB204EA4606102DE3D3764F0126AF
:10203000DFF8D8813037002505EB4500ADF80060AA
:10204000395C38448DF8031041788DF8021080789F
:102050003146012840467CD000F069F96946404687
:1020600000F0E2F86D1CADB204EA4606102DE3D391
:10207000654F0126DFF898816037002505EB4500A4
:10208000ADF80060395C38448DF8031041788DF864
:10209000021080783146012840467BD000F047F995
:1020A0006946404600F0C0F86D1CADB204EA460631
:1020B000102DE3D3544F0126DFF8588190370025C7
:1020C00005EB4500ADF80060395C38448DF803102D
:1020D00041788DF80210807831460128404678D04A
:1020E00000F025F96946404600F09EF86D1CADB23F
:1020F00004EA4606102DE3D3434F0126DFF818818A
:10210000C037002505EB4500ADF80060395C00E004
:1021100060E038448DF8031041788DF80210807823
:1021200031460128404661D000F001F96946404639
:1021300000F07AF86D1CADB204EA4606102DE1D32A
:10214000314F0126DFF8D480F0370025ADF800606C
:1021500000E042E005EB4500395C38448DF803109F
:1021600041788DF80210807831460128404640D0F1
:1021700000F0DDF86946404600F056F86D1CADB23F
:1021800004EA4606102DE1D30126DFF89480254F9E
:10219000002500E024E005EB4500ADF80060395C67
:1021A00038448DF8031041788DF80210807831465C
:1021B0000128404620D000F0BAF86946404600F0B9
:1021C00033F86D1CADB204EA4606102DE1D3BDE82C
:1021D000F88308E000F0ADF81EE700F0AAF83DE74C
:1021E00000F0A7F85CE700F0A4F87BE700F0A1F8A6
:1021F0009CE700F09EF8BDE700F09BF8DDE70000EB
:10220000000230000008014066E90008000C0140AF
:10221000001001400014014000180140001C014062
:102220000020014086EA0008F0B5CA78002502F0D7
:102230000F03D20601D58A7813430C784FF00F0EA6
:102240000122ECB1D0F800400F8802FA05F63740C1
:10225000B74211D14FEA850C0EFA0CF724EA0707B2
:1022600003FA0CF43C43CF78282F02D0482F02D039
:1022700002E0466100E006616D1C082DE4D30460B5
:102280000C88FF2C1ED944685FF0000606F1080791
:1022900002FA07F50F882F40AF420FD14FEA860CA4
:1022A0000EFA0CF7BC4303FA0CF73C43CF78282F07
:1022B00000D14561CF78482F00D10561761C082EEA
:1022C000E4D34460F0BD0000F0B5144C002801DAFE
:1022D000E36900E06368420D120185B2C0F3015763
:1022E0009540C0F30346032F05D0C2020AD503224E
:1022F000B240934307E023F07062636823F0706399
:10230000636002E0AB4343F0706201B12A430028EE
:1023100001DAE261F0BD6260F0BD00000000014042
:102320000246002092680A4200D0012070474161B5
:10233000704701617047000030B503460020024637
:10234000074C0AE013F8015B521C85EA102592B293
:1023500034F8155085EA002080B28A42F2D330BDAD
:102360000886000800210F4A084600BF32F81030E6
:10237000401C19446428F9DB01EB81004000642112
:1023800090FBF1F04042084900EB800001EB400077
:1023900000EB8000400040F2162190FBF1F0FA3093
:1023A00000B27047D80200202AB5020070B503467B
:1023B00000200246084C0CE013F8016B00F10B05FD
:1023C00086EA1525521C34F8155092B285EA002091
:1023D00080B28A42F0D370BD0886000830B5002371
:1023E000184A1846194600BF32F81040401C2144D4
:1023F0006428F9DB642091FBF0F0134C00F00F022D
:102400000011B4F90210072A03DA4D1CA84200D1CA
:10241000401E082A03DD491E884200D1401C0B499A
:10242000608031F910000A49FF2807D0184400EBFA
:102430008000400000220A7000B230BD0120087008
:10244000FA2030BD1002002044000020088400085B
:102450005500002010B50021114A084632F810300E
:10246000401CC0B219440A28F8D30E480024B0FB1F
:10247000F1F0A0F12E020C4B0C49132A04D33220A8
:1024800001221A700C7009E01A78012A06D10A7824
:102490000A2A02D2521C0A7000E01C70C0B210BDA1
:1024A000B4030020002D31019000002044000020E2
:1024B00000210D4A084600BF32F81030401CC0B25F
:1024C00019440A28F8D3DC20414341F29C30B1FB87
:1024D000F0F006490978372904D9DC214843C621A0
:1024E000B0FBF1F080B27047A00300206000002034
:1024F0000021124A084600BF32F81030401C19442F
:102500006428F9D301EB810040006421B0FBF1F0B5
:1025100049F6607300210A4A984205D901231370D5
:10252000084A82F8381000E0117040F6AC51484378
:1025300044F6E641B0FBF1F070470000480100208E
:1025400054000020E0030020FEE7000030B41B49E7
:10255000C8224FF4AF730A80FA224A804FF4967271
:102560008A80CB804FF4C8720A810B31642201F853
:10257000012C0A704A708A70CA700B818A72052415
:102580008C75002381F823300122CA720A258D81BF
:10259000CA818D82CB750C8308238B76CB760B7723
:1025A0004B778A7781F82020A1F82140C8776820EE
:1025B000888430BC3121014805F066B82004002031
:1025C0002DE9FC41044600F0A9FA00260F2338A2A9
:1025D00002210420009600F023FA0F2334A20521E3
:1025E0000420009600F01CFA364D2E800CB9012014
:1025F00000E000200090082333A20221202000F0F8
:102600000FFA012C37D000200090072331A20521BA
:10261000242000F005FA012C4FF007034FF02402AC
:102620004FF005014FF0200027D000F07AFA072381
:10263000602205215C2000F074FA642000F0BEFFE7
:1026400002F084FB0028F8D1642000F0B7FF234F8C
:10265000386800F0D7FC01AA4FF4FA61386800F03E
:10266000E1FC9DF8041089B12888B0F5967F1CD252
:10267000401C2880BAE70120C6E700F094FA07233F
:10268000602205215C2000F08EFAD6E72E8001281A
:1026900006D0042801D00828A8D124B10024A6E738
:1026A0002046BDE8FC810124A3E70020F9E70000F3
:1026B00020205B2020202020202020205D202020A2
:1026C0000000000088000020BCF2CCE5D6D0CEC4CB
:1026D00000000000454E474C49534800C000002010
:1026E00070B5294C2078002822D002F02FFB206101
:1026F0004FF6FF760025E06178B3E168884201D0AB
:10270000E06033E06069401C6061A2788AB1627A5F
:10271000012A0DD1E27890420AD341F40041A06928
:1027200000F0ECFC6561E078042801D9401EE070FF
:1027300070BD0122032806D09628F9D1A2706078D6
:10274000012802D007E0627070BD657041F400415D
:10275000A06900F0D3FC656170BDFFE760780128D7
:1027600003D1E168A06900F0C9FCE56065616570AE
:10277000A570607A0128EFD165723146A069BDE885
:10278000704000F0BBBC0000A800002010B50A217A
:10279000054800F0F9FB05498861002048728872FD
:1027A0000120087010BD0000600C0020A80000206F
:1027B0002DE9FC473A4F3B4D002697F82A402E80E2
:1027C00000F0ACF90F2338A202210420009600F09B
:1027D00027F90F2334A205210420009600F020F9E8
:1027E000DFF8D8804FF4FA690CB9012000E000202E
:1027F0000090082332A20221202000F011F9012CC0
:1028000029D000200090072330A20521242000F0C9
:1028100007F9012C4FF007034FF024024FF0050198
:102820004FF0200019D000F07CF907236022052129
:102830005C2000F076F901AA4946D8F8000000F0C3
:10284000F1FB9DF8041089B12888B0F5967F18D265
:10285000401C2880C8E70120D4E700F0A4F9072332
:10286000602205215C2000F09EF9E4E72E8001281B
:1028700009D004280FD008280DD06FF4004140186B
:10288000B2D1BDE8FC87064887F82A4001212A30EA
:1028900004F0FAFEF5E70CB10024A6E70124A6E750
:1028A000200400208800002020205B202020202001
:1028B000202020205D20202000000000C0000020FB
:1028C000BCF2CCE5D6D0CEC400000000454E474C4B
:1028D000495348000C23034A40F2F331A02005F08D
:1028E00003BC00005304002038B53323164A0021EE
:1028F000A02005F0F9FB31211348FFF71DFD124917
:10290000B1F83120824203D1B1F82F0068281AD0E3
:10291000002002F049FE044600F000F900214FF0CB
:10292000100300915CB109A20321042000F078F8A3
:102930002046FFF70BFEBDE8384000F0EFB803215A
:1029400006A21820F2E738BD20040020506C656113
:1029500073652077616974A1ADA1AD00C7EBC9D4DF
:10296000BAF2A1ADA1AD0000FEE77047F0B50F21AE
:10297000C478027801234FF0E026DCB1124C2468C1
:10298000457804F4E064C4F5E064240AC4F1040763
:10299000E1408478BD400C402C4321010B4C115583
:1029A000007800F01F018B40400906EB8000C0F862
:1029B0000031F0BD02F01F008340500906EB80009B
:1029C000C0F88031F0BD00000CED00E000E400E054
:1029D000704700002DE9FC4F0024994616468846B2
:1029E0000E4F0D1DDDF82CB013E04C4514D27028AD
:1029F00012D807EB8111CDE9001B00F110018A46C6
:102A0000CAB2EBB2414600F055F8641C0AF0FF0070
:102A1000E4B2315D0029E8D1BDE8FC8FF40E010875
:102A20002DE9FE4F002598461746894604468E1C20
:102A3000DDF830B035E0454536D2A0281BD9702CE2
:102A400032D88DF80800781940788DF8090002A86E
:102A5000FFF78AFA154A04F1100A1044CDE9000B79
:102A6000F3B20AF0FF024946204600F023F80AF0CC
:102A7000FF04AD1C14E0782C16D80D4A8DF8080020
:102A800002EB0010CDE9000B04F1080AF3B20AF0E2
:102A9000FF024946204600F00DF80AF0FF046D1CC5
:102AA000EDB2785D0028C6D1BDE8FE8F6CF100085C
:102AB000F40601082DE9F04F0024DDE9099A984653
:102AC00017468346802A00D98027B8F1080F01D91C
:102AD0004FF008080D461DE02946584600F099F9C8
:102AE00000F088F8402000F0DBF85E460CE000BF04
:102AF00019F80400BAF1010F01D1C043C0B2641C3F
:102B000000F0CEF8761CF6B2BE42F1D300F0A2F887
:102B10006D1CEDB24545DFD3BDE8F08F002000F01D
:102B200027B82DE9F0411F4616468046802A00D975
:102B30008026082F00D908270C4615E0214640467C
:102B400000F067F900F056F8402000F0A9F845467B
:102B500004E0002000F0A4F86D1CEDB2B542F8D3FB
:102B600000F078F8641CE4B2BC42E7D3BDE8F08121
:102B700070B5064600242146002000F04AF900F016
:102B800039F8402000F08CF80025304600F088F835
:102B90006D1CEDB2802DF8D300F05CF8641CE4B23B
:102BA000082CE8D370BD2DE9F0411F46164680463B
:102BB000802A00D98026082F00D908270C4615E066
:102BC0002146404600F025F900F014F8402000F0BE
:102BD00067F8454604E0FF2000F062F86D1CEDB296
:102BE000B542F8D300F036F8641CE4B2BC42E7D337
:102BF000BDE8F08110B4154C102323601448002167
:102C000001700278521CD2B20270022AF9D3082253
:102C1000226001700478641CE4B20470022CF9D3C1
:102C20000A4C241D2360017003785B1CDBB2037027
:102C3000022BF9D322600170C9B2491CC9B20170DC
:102C40000229F9D310BC782000F02AB8100C0140FA
:102C50002C010020104810B5102202600F480021FE
:102C6000017003785B1CDBB20370022BF9D30A4BB3
:102C700008241B1F1C6001700478641CE4B20470FB
:102C8000022CF9D31A600170C9B2491CC9B2017093
:102C90000229F9D310BD0000140C01402C010020C2
:102CA000F0B52A4E0024351F29494FF0100C22465A
:102CB0000823070602D5C5F800C001E0C6F800C029
:102CC0004006000E0A700F787F1CFFB20F70022FB3
:102CD000F9D32B600A700F787F1CFFB20F70022FA0
:102CE000F9D333600A700F787F1CFFB20F70022F88
:102CF000F9D3641CE4B2082CDBD3C5F800C00A7019
:102D00000878401CC0B208700228F9D32B600A7002
:102D10000878401CC0B208700228F9D30B480C3860
:102D200000683360C0060A7007D40878401CC0B23F
:102D300008700228F9D30120F0BD0878401CC0B209
:102D400008700228F9D30020F0BD0000140C0140E7
:102D50002C01002000B5FFF74DFF0020FFF7A0FF7A
:102D6000AE20FFF79DFF0020FFF79AFF1020FFF72E
:102D700097FF4020FFF794FFB020FFF791FF8120DD
:102D8000FFF78EFFFF20FFF78BFFA120FFF788FFE3
:102D9000A620FFF785FFA820FFF782FF3F20FFF75F
:102DA0007FFFAD20FFF77CFF8B20FFF779FF3320FB
:102DB000FFF776FFC820FFF773FFD320FFF770FF00
:102DC0000020FFF76DFFD520FFF76AFF8020FFF797
:102DD00067FFD920FFF764FF1F20FFF761FFDA20AC
:102DE000FFF75EFF1220FFF75BFFDB20FFF758FFC6
:102DF0004020FFF755FFAF20FFF752FFFFF72AFFF4
:102E00000020FFF7B5FE002108465DF804EBAFF3A4
:102E1000008030B5801C0C46C5B2FFF7EBFE0020E9
:102E2000FFF73EFFB034E0B2FFF73AFF102040EA70
:102E30001510FFF735FF05F00F00FFF731FFBDE874
:102E40003040FFF707BF000070B586B000F06CF8A7
:102E50002E4D00242C63AC70EC702C72EC71EC6085
:102E6000EC61AC616C616C70AC71204605F13401B1
:102E70000C54401CC0B20828FAD32C716C71AC629F
:102E80002C6200F0A1FC4FF4C871214800F0CEFC88
:102E90001F4A0020411C00EB80008BB202EB800037
:102EA00003EB830302EB83030470436088B21328AF
:102EB000F0D300EB800002EB8000047044602A61D4
:102EC00000F0BEFC80261348CDE901064FF6FF70E6
:102ED000009003253F23104A00211048CDE9034507
:102EE00000F0C0F90E48CDE901064FF6FE70094A20
:102EF00000903E23121F00210A48CDE9034500F04F
:102F0000B1F906B0BDE8704000F00FB8D80000205D
:102F1000880C00201810002014120020D13900085D
:102F2000180E0020ED3900087047704770B5144C3A
:102F3000E079012822D1FDF7F5F80546A07820B107
:102F4000401E10F0FF00A07013D1E07888B900F0A7
:102F5000BBFC0C48617950F82100A06222799142B3
:102F600007D0416B491C4163E068401CE060FDF7FD
:102F7000F5F82846BDE87040FDF7D8B870BD0000F0
:102F8000D8000020181200202DE9F04107461A4809
:102F90008846007810B10020BDE8F081FDF7C2F846
:102FA000164E34680CB161683160FDF7BFF804B3A8
:102FB000FDF7B8F812490D68ADB12A680A60FDF74F
:102FC000B5F807EB8800C5E90170EF602F61A5F83F
:102FD00014800020E8820221217020812046656053
:102FE00000F0E8FB05E0316861603460FDF79EF8B1
:102FF00000242046D0E70000DA000020E80000208E
:103000001401002010B50446FDF78CF801466068F5
:103010004268C26002610022C2820846FDF786F85B
:10302000002010BD2DE9F047064600788946154678
:10303000022801D0012008E02D48007808B10220C4
:1030400003E02C48007820B10D2010700020BDE86E
:10305000F087FDF767F8074670680024C18A81B1E0
:103060000269111D01611668C28A521EC2828268FD
:10307000914201D1416801613846FDF757F82C7043
:1030800034E0DFF87480D8F8000010F82C1F41F00D
:1030900004010170447040F8049C304600F066FB67
:1030A0003846FDF743F800F0EBFBFDF73BF8074629
:1030B000D8F8000090F82D1039B1022908D0314617
:1030C00000F030FB00260A2004E0466A2C7002E083
:1030D00000260E202870D8F800001C3004744474B8
:1030E0000460446084603846FDF720F83046AEE75F
:1030F000DA000020DB000020F800002070B5044654
:1031000000780E46022801D0012070BDFDF70AF8B4
:103110000546A07A58B1002304223146204600F02B
:10312000C5FA2846FDF702F800F0AAFB19E060682E
:10313000C18A828A914204D32846FCF7F7FF1E20F9
:1031400070BDC1680A1DC2600E60C18A491CC1827F
:10315000D0E902128A4201D14168C1602846FCF7D9
:10316000E5FF002070BD000070B505460C480078F2
:1031700008B1002070BDFCF7D5FF0A490C680CB1FE
:1031800062680A60FCF7D2FF3CB103202070258101
:1031900000206060204600F00DFB204670BD00005E
:1031A000DA000020E800002010B5094CE079002882
:1031B0000CD100F089FB60790649207151F820009C
:1031C000A0622062BDE81040FCF7B3BF10BD000054
:1031D000D800002018120020FDF7E0BF2DE9FE43C3
:1031E0001C4615460F468046FCF79CFF1A49097895
:1031F00021B1FCF79BFF3C20BDE8FE83174E56F83B
:10320000241019B1FCF792FF2820F5E7012146F8B8
:103210002410FCF78BFF00232A463946404600F075
:1032200047F900250146009501952B462A46204680
:10323000029500F059FB070007D0FCF773FF46F832
:103240002450FCF773FF3846D6E70548007801287C
:10325000F9D100F015FBF6E7DA0000201812002083
:10326000DF0000202DE9FF4F83B01C46DDE9138607
:10327000DDE9119792468B46FCF754FF1D4909780A
:1032800029B1FCF753FF3C2007B0BDE8F08F1A4D81
:1032900055F8241019B1FCF749FF2820F4E7012163
:1032A00045F82410FCF742FF32463946484600F004
:1032B000EFFB334652465946039800F0F9F8009761
:1032C000CDE9018601464A462046109B00F00CFBE2
:1032D000060008D0FCF726FF002145F82410FCF773
:1032E00025FF3046D0E7054800780128F9D100F0E5
:1032F000C7FAF6E7DA00002018120020DF000020ED
:10330000FDF74DBF2DE9F04706464048007810B163
:103310004020BDE8F0873F2E05D0FCF703FF0746AD
:10332000FF2E02D005E03E20F3E73948006890F810
:103330002E60DFF8E09059F826405CB1012C0ED0E9
:1033400094F83020344994F83130885C984388549C
:103350000AD00FE03846FCF7E9FE4320D9E73846AB
:10336000FCF7E4FE3D20D4E72C4894F832200178A5
:1033700091430170E16911B1204600F0D3F9216A4F
:1033800011B1204600F0DEF94FF00008C4F82880A3
:10339000234D84F82C8084F82D802878FF2801D2D2
:1033A000401C28703846FCF7C1FE00F07DF9FCF7A0
:1033B000B9FE0746287808B1401E2870204600F064
:1033C00039F818490878401E087049F82680A16924
:1033D000404681B160694861D4E9050181611248C4
:1033E0000168616104603846FCF7A0FE0F48007870
:1033F000012806D007E0616988610D4960690860AD
:10340000EDE700F03DFA002083E70000DA0000203D
:10341000F8000020181200200C010020DE0000201F
:10342000DB000020E0000020FC000020DF00002086
:1034300004010020FDF7B4BEFDF7B3BEFDF7B2BE38
:103440002DE9F0410446002008600D464860FCF775
:1034500069FE0146FF2C03D11348006890F82E4006
:10346000124850F8240058B1012809D0027CD20734
:103470000CD0D0E9027600240846FCF757FE0BE09A
:103480000846FCF753FE4320BDE8F0810846FCF7F0
:103490004DFE4520F8E7641C01CF0028FBD0301B0F
:1034A000C5E900400020EFE7F800002018120020D6
:1034B0004FF080731360131F1860A2F108006FF0C3
:1034C00001030360001F4FF012330360001F4FF031
:1034D00003330360001F4FF002330360001F5B10D3
:1034E0000360001F0160001F4FF011310160001FD9
:1034F00019010160001F4FF009310160001FD90060
:103500000160001F4FF007310160001F4FF00631CE
:103510000160001F4FF005310160980042F83C0D3A
:103520001046704770B50446FCF7FCFD03461E4884
:10353000FF2C006805D090F82E00A04204D1012590
:1035400003E090F82E40FAE70025184850F82400D0
:1035500058B101280ED090F83020154C90F8316009
:10356000A15CB143A1540AD00FE01846FCF7DEFD80
:10357000482070BD1846FCF7D9FD432070BD0D49A9
:1035800090F832400A78A2430A7010F82C1F41F0DC
:10359000080101701846FCF7C9FD012D01D100F0AA
:1035A0006FF9002070BD0000F80000201812002004
:1035B0000C010020DE000020FDF7F5BD70B50446CB
:1035C00013480078002821D11248007800281DD126
:1035D000002C1BD0FCF7A6FD03460F480F4D0168D9
:1035E00091F8300091F831602A5CB2432A5405D139
:1035F0000B4891F832500278AA43027018468C6248
:10360000FCF794FDBDE8704000F03AB970BD0000D1
:10361000DA000020DB000020F80000200C01002070
:10362000DE00002070B500F03DF8FCF77BFD1C4D7E
:10363000296B491C2963FCF779FDE87901282ED113
:10364000EC6A28E0FCF76EFDA16A09B3491EA1628D
:103650001ED194F82C1011F0370F05D001F0C801DD
:1036600084F82C10012100E0002184F82D1094F83A
:103670002C1009070CD43034AA79A1781143A97110
:1036800007492278343166788B5C303C33438B5465
:103690006469FCF74BFD94F82E003F28D2D170BD31
:1036A000D8000020FDF780BD70470000F0B505464A
:1036B000807A194C4FF00007205C05EB0006F67A83
:1036C000A45D04EBC004E6B2144C54F8264004F1A7
:1036D0002404C4E90017217A21EA020121726372ED
:1036E000A4F1240409070BD40D4994F832208B79F6
:1036F0001A438A71343194F831300A5C1A430A54FF
:103700002946204600F00EF8216A19B1204600F043
:1037100019F8E5613046F0BD6CF000081812002081
:10372000D800002010B590F8302090F831408B1868
:10373000DA7AA243DA7204D18A7A90F832008243AC
:103740008A7210BD70B510F8303F847845780868EB
:10375000002809D0C618F27AAA43F27202D1827AFE
:10376000A2438272091DF2E770BD000030B5104916
:1037700000F10B020B6A43F81C0F1C7D5B7DA55CFE
:103780001D43A5540A6A837A3032947823438372A6
:10379000107801F134045578235C303AAB4323545C
:1037A00004D192F8322088799043887130BD0000AE
:1037B000D80000200022827211464318491CC9B269
:1037C000DA720829F9D3704710B54FF4D161144863
:1037D00000F02CF84FF48071124800F027F8104ADE
:1037E0000020411C00EB400404EB0010CBB203EBC3
:1037F000430402EB800004EB031302EB83034361F9
:10380000C8B21528EDD300EB400101EB001002EB2C
:1038100080010020486104494A62C86210BD00006E
:103820001813002018120020D8000020002203E006
:10383000491E00F8012B89B20029F9D17047000018
:1038400010B560210C48FFF7F1FF0B4A0020411C26
:103850008BB200EB400003EB430302EBC30342F8DF
:10386000303088B20328F2D300EB4000002142F848
:1038700030100248026010BDA01900201401002081
:1038800070B5FCF74FFC0E4C0546A07898B9E0786F
:1038900088B900F019F80B49607951F82010A1623D
:1038A0002279904207D0486B401C4863E068401C76
:1038B000E060FCF74EFC2846BDE87040FCF736BCE3
:1038C000D8000020181200200649054A01F13403EF
:1038D0008879105C1B5CD25C02EBC00048717047B9
:1038E0006CF00008D80000202DE9F05F9846DDE973
:1038F0000ABA91460D460746FCF714FC324E746A2C
:10390000002C5DD054F8141F7162FCF70FFC44F8D2
:10391000145CA776002525766576656144F808BCB9
:1039200044E904A90C9824F8040C24F8028CE577E7
:10393000FA08227707F00701012000FA02F2E17687
:10394000A27788406077A560E56025612562A56261
:103950006562E5622563143C5FF0000004EB8001C2
:10396000401C8D6410F0FF00F8D02046FFF734FCB7
:10397000FCF7D8FB154941F82740FCF7D7FB204658
:10398000FFF7BEFCFCF7CEFB0146F06AC4E9050573
:1039900000B18461F4623034B279A0781043B07120
:1039A0000948227834306478835C23438354307A26
:1039B000401C30720846FCF7B9FB0020BDE8F09FC0
:1039C000FCF7B4FB4220F9E7D800002018120020D1
:1039D000054C00BFFCF7A6FBE169491CE161FCF75F
:1039E000A5FBFFF729FDF5E7D8000020194C4FF49F
:1039F000C87502E02846FFF7E1FD60780028F9D09D
:103A0000642160690025B0FBF1F0606118B9257090
:103A1000FF20FFF787FDFCF785FB616964225143B6
:103A2000E161FCF783FB00BFFCF77CFBE169C4E9C3
:103A30000615FCF77BFBD4E90510B0FBF1F0C0F1F3
:103A400064002070FFF7FAFC00F006F8C820FFF7CA
:103A5000B5FDE9E7D80000207CB50C4D002469468F
:103A60002046FFF7EDFC58B955F8240040B1012875
:103A700006D0D0E9021201EB820101640199416490
:103A8000641CE4B23F2CEAD97CBD0000181200206F
:103A9000D30707D0920705D50022002902D004C021
:103AA000491EFAE7704700002DE9FC5FDFF8C0A06F
:103AB000DFF8C4904FF0000B9AF82E509AF82A6065
:103AC0002C4F5C46A9F800B0FFF728F82B4806EB0E
:103AD00006110A1800219046102308460094FEF7AC
:103AE0009FFF08F122021023042100200094FEF71A
:103AF00097FF4FF001084C4605EBC50007EB80002F
:103B000000EB061230442030CDF800808378007836
:103B10000421FEF785FF1A4801AA4FF4FA610068F4
:103B2000FFF780FA9DF8041031B12088B0F5967F38
:103B30000ED2401C2080DFE7A4F800B0012809D095
:103B400004280FD008280DD06FF400414018D3D1BD
:103B5000BDE8FC9F06488AF82E5001212E3003F064
:103B600093FDF5E70DB10025C6E70125C4E7000088
:103B700020040020BA3901088800002076390108A5
:103B8000C00000202DE9F84F04460020D4E9007160
:103B90008146824688463846FCF730FC05469D48FB
:103BA0000E460078FCF73EFD8346009100229A4BBA
:103BB00038464146FCF79AFC0022984BFCF724FC5F
:103BC0005A46009BFCF720FC0022954BFCF78EFC2C
:103BD00007468846D4E90801C4E90A01C4E9085641
:103BE0000022904B28463146FCF774FD54D2002247
:103BF0008D4B28463146FCF781FD4DD200221346FD
:103C000028463146FCF77AFD59D2D4E90C012A4600
:103C10003346FCF752FBDFF81492C4E90C01002292
:103C20004B4628463146FCF769FD0BD200224B4635
:103C300028463146FCF7E2FBD4E90C23FCF73DFBB8
:103C4000C4E90C01D4E9042338464146FCF74EFC94
:103C5000D4E90C2381F00041FCF750FD09D2D4E9EE
:103C6000042338464146FCF741FC81F00041C4E999
:103C70000C01D4E90C016E4A6E4BFCF73FFD03D2F8
:103C80006C496B48C4E90C01D4E90A232846314643
:103C9000FCF7B4FB81468A46D4E90801C4E90A016D
:103CA000C4E908560022644B28463146FCF712FD51
:103CB0001BD2DFF888B19BF8000038B115E0604AEC
:103CC000604B28463146FCF79FFBB5E7D4E902017B
:103CD00000225D4BFCF798FBD4E90423FCF706FCBB
:103CE000C4E90C0101218BF800100022574B284633
:103CF0003146FCF703FD02D2504800210170D4E99F
:103D000006014A465346FCF77FFB81468A46D4E9C2
:103D10000401D4E90C23FCF777FB83460091D4E936
:103D200002012A463346FCF76FFB5A46009BFCF71C
:103D3000C4FA4A465346FCF7C0FA3A464346FCF7F3
:103D4000BCFA074688460022134628463146FCF74F
:103D5000C1FC0FD2D4E902013D4A3E4BFCF754FBB3
:103D60002A463346FCF750FB3A464346FCF7A5FA91
:103D700007468846DFF8E09000224B462846314649
:103D8000FCF7BCFC41D200224B4628463146FCF7EA
:103D900035FBD4E90223FCF737FB3A464346FCF7F0
:103DA0008CFADFF880900746884600224B4628466A
:103DB0003146FCF7A3FC0FD200224B462846314681
:103DC000FCF71CFBD4E90223FCF71EFB3A464346F2
:103DD000FCF773FA07468846DFF8809000224B46CE
:103DE00028463146FCF78AFC0FD200224B46284673
:103DF0003146FCF703FBD4E90223FCF705FB3A4606
:103E00004346FCF75AFA0746884638464146BDE81D
:103E1000F88F00005E00002000408F40009869404D
:103E20000000594000C07240000065C000003E40E4
:103E300045175D74113F0941000059C02D01002054
:103E400014AE47E17A14FE3F00006540000042C016
:103E50000AD7A3703D0AD73F00C0624000207C40D3
:103E60004021FCF7CAB900004FF000094E466F4CE4
:103E700002E0C820FFF7A2FBE0780028F9D0002577
:103E8000A5726B48FFF7ECFFDFF8A4A1694A504622
:103E90008AF838500021C0E90212684A6649C0E930
:103EA00004120021C0E90611CAF80010A04640F62D
:103EB000FF7BCAF804101E20FFF780FB5C4C4034E7
:103EC000A07DA8B1FEF78AFAA17D04EB4101B1F80B
:103ED0001710494201EB810100EB4101A8F81410D1
:103EE00098F8070098B1012817D0022842D11AE0AB
:103EF000FEF738FAA17D04EB4101B1F817104942F1
:103F000001EB810100EB4100A8F81400E8E7002173
:103F1000CAF80010CAF804102CE00022CAF80020E9
:103F2000CAF8042026E0B4F81350B8F9141005EBD1
:103F300085004446C1EB4000FCF763FB404A414B1F
:103F4000FCF7BBF9CAE90001684200EB8001608A16
:103F500000EB4100A17A69B91C304D280AD2012238
:103F6000A272022001F0A4FB37480068A062002082
:103F7000E0822273FEF7BCFAFCF754FB05460246CA
:103F80000F460B462A48FFF7FDFDFCF758FB041EC1
:103F900001DA002403E0B4F5805F00DB5C4698F8AA
:103FA000071009B1012900D1002498F8090000B9CF
:103FB0000024A0B201F046FC032E15D2B8F914007B
:103FC000FCF71FFB2A463B46FCF777F905460F46F0
:103FD0004846FCF727FB3B462A46FCF76EF9FCF700
:103FE0004DFB8146761C19E04646B8F91400FCF7F3
:103FF00008FB2A463B46FCF760F907460D46484653
:10400000FCF710FB3A462B46FCF757F9FCF736FB5A
:10401000C0F38F0070824FF000094E466420444385
:1040200094FBFBF088F8060045E7000050000020F4
:10403000E003002000001840F5DBD7817346943F71
:10404000CDCCCCCCCCCC0C4008010020014908627E
:104050007047000000000E422DE9F04F0024DFF809
:1040600064938DB009F1220008940178099199F8C0
:104070002AB0B9F823000790D348A246A0462746A5
:1040800056460480FEF74AFDD0480BEB0B110D1885
:10409000002110232A4608460096FEF7C1FC05F1D0
:1040A00022021023022100200096FEF7B9FC05F140
:1040B00044021023042100200096FEF7B1FC05F114
:1040C00066021023062100200096FEF7A9FC0020BE
:1040D0000BAEBC490A1892F825203254401CC0B2DD
:1040E0000428F6D30025D14602E00025A54210D1D0
:1040F000B749042000EB4500CDE90019C3B24FF0E9
:10410000020A0AEB4500C1B280227820FEF7D2FCF9
:1041100009E00AEB4500C1B20123AEA27820CDF838
:104120000090FEF77DFC6D1CEDB2032DDED30998E7
:10413000BBF1000F03D088B3002C64D067E008B156
:1041400054B10DE01CB94046B8F1010F00D0002079
:104150000423A1A2009007E04046B8F1010F00D06F
:10416000002004239EA2009002214C20FEF758FC60
:104170009DA102A8079A03F0A5FA9DA102A8FCF749
:1041800047F8012C03D14046B8F1010F00D00020C0
:104190000423009002AA19464C2049E0FFE714B915
:1041A000B8F1010F20D00423502202214C20FEF749
:1041B000B8FC04236C2202216820FEF7B2FCCDF883
:1041C000009003238BA202215FF05000FEF728FC31
:1041D00085A102A8079A03F075FA87A102A8FCF747
:1041E00017F8012C1AD01DE00423502202214C2084
:1041F000FEF7D9FC04236C2202216820FEF7D3FCD1
:1042000001200090DDE74046B8F1010F00D000200A
:1042100004230221009079A24C20D7E74046B8F150
:10422000010F00D000200090032302AA0421502097
:10423000FEF7F6FB0025705D30308DF80800AF42C8
:1042400005D1022C03D14046B8F1010F00D0002067
:1042500000904C2000EBC500C0B2012302AA062149
:10426000FEF7DEFB6D1CEDB2042DE4D365480AAA0F
:104270004FF4FA610068FEF7D5FE9DF8281039B1B9
:1042800051480188B1F5967F10D2491C01802CE776
:104290004D4A49460128A2F800900AD0042840D08F
:1042A000082865D06FF400414018F0D10DB0BDE88A
:1042B000F08FB8F1000F09D05CB1012C15D0022CA1
:1042C000E5D1032F1AD27F1CFFB20EE74FF0010891
:1042D0005EE03C49099881F822003A4801212230E9
:1042E00003F0D2F94FF000085BE036480799A0F8D8
:1042F00023100221233003F0C7F90FE031490020D9
:104300000B18325C401CC0B283F825200428F7D378
:104310002C480421253003F0B7F900274FF000089E
:10432000E3E6B8F1000F0AD0B4B1012C19D0022C89
:10433000ADD1F05D092842D2401CF055D5E6022CE3
:1043400001D2641C23E0089802240328AED2401C4A
:10435000C0B200250890DCE6099820B3002009903F
:104360001FE007983C2801D2401C22E0012023E0F6
:10437000B8F1000F09D0002CEED0012C15D0022C82
:1043800085D1F15DD1B1491E19E024B1641EE4B2BA
:1043900000200890A9E60898032887D2401CC0B2E4
:1043A00008900025A4E60120D9E70798012802D942
:1043B000401E80B200E03C20079096E60921F155AE
:1043C00093E60000200400208800002086360108C3
:1043D000BB30010820000000B9D8B1D500000000B2
:1043E000B4F2BFAA000000002530326400000000D3
:1043F000B7D600004F4646004D000000204F4E202B
:1044000000000000C00000202DE9F04F0026824887
:10441000824987B090F82A8035460E800727B1463A
:1044200003E000BFBAF1000F21D14FF0010AFEF7FF
:1044300075FB00214C46102379A20846CDF8009068
:10444000FEF7EEFA102376A2022100200094FEF778
:10445000E7FA102372A2042100200094FEF7E0FA8C
:1044600010236FA2062100200094FEF7D9FA002441
:104470003019B0FBF7F107FB1102052A16D2664886
:10448000811800EB4200897A00910388521C69A1CF
:1044900001A803F017F9A54201D1012000E0002096
:1044A00000906006010E0D2301AA1BE06649B8F1D9
:1044B000000F02EB021009D001EB400008EB0811DD
:1044C0004218521CA54211D1012010E001EB40021C
:1044D000521CA54201D1012000E00020009060069E
:1044E000010E0D230C20FEF79BFA2CE000204FEA72
:1044F000440B00900BF0FF010C231020FEF790FA04
:104500004FF0020000EB4400C3B20090A5420BF054
:10451000FF014FF010024FF00C000AD1FEF743FBF1
:1045200000980BF0FF01C3B274227020FEF73BFB32
:1045300009E0FEF7F6FA00980BF0FF01C3B274220F
:104540007020FEF7EEFA641CE4B2042C90D33F48CE
:1045500006AA4FF4FA610068FEF764FD9DF8181092
:1045600039B12E480188B1F5967F0FD2491C0180E0
:1045700058E72A4A0128A2F800900AD0042836D029
:1045800008283ED06FF400414018F1D107B0BDE8D3
:10459000F08F7019B0FBF7F107FB1100052820D24E
:1045A0002B4A1D4C82F800902A4A04EB400120441B
:1045B00082F83890284A82F800900988A4F81310ED
:1045C000807A60754FF0020104F1130003F05CF88B
:1045D000012104F1150003F057F8607D01F070F837
:1045E000D4E7D3D100F0B8FC002635461DE7032DF3
:1045F00001D26D1C07E0062E01D2761C07E00026D2
:1046000010E715B16D1EEDB20CE716B1761EF6B2CD
:1046100008E7062606E700002004002088000020A6
:104620005B20202020202020202020202020205D12
:1046300000000000472531643A25303364A1E620AC
:1046400025336425250000009A370108C0000020AA
:104650005C000020E00300205A000020034A51685B
:1046600021F44041014351607047000000100240B6
:10467000044A0029516901D0014300E0814351619E
:1046800070470000001002402DE9F05F012108464C
:10469000FFF7EEFF00210220FFF7EAFF00210420D0
:1046A000FFF7E6FF00211020FFF7E2FF0021402086
:1046B000FFF7DEFF00214FF48070FFF7D9FF4FF4C2
:1046C000806400212046FFF7D3FF0121480200F05B
:1046D000ABF80021204600F0A7F864000021204636
:1046E00000F0A2F80021600000F09EF80021A00078
:1046F00000F09AF8E5000021284600F095F8260120
:104700000021304600F090F80021600100F08CF8A4
:10471000A7010021384600F087F84FF480280021D7
:10472000404600F081F84FF400290021484600F08F
:104730007BF84FF4801A0021504600F075F84FF4D2
:10474000001B0021584600F06FF80121084600F0D8
:104750005FF80121022000F05BF80021042000F046
:1047600057F80021082000F053F80021102000F035
:104770004FF80021202000F04BF80021204600F0E7
:1047800047F80021284600F043F80021304600F0A9
:104790003FF80021384600F03BF80021404600F089
:1047A00037F80021484600F033F80021504600F069
:1047B0002FF80021584600F02BF80021E00200F00D
:1047C00027F80021200300F023F80021A00300F0C7
:1047D0001FF80021200400F01BF80021600400F005
:1047E00017F80021A00400F013F80021E00400F005
:1047F0000FF80021402000F00BF80021802000F08D
:1048000007F80021E010BDE8F05F00F001B80000FB
:10481000044A0029D16901D0014300E08143D161FC
:104820007047000000100240044A0029916901D03D
:10483000014300E081439161704700000010024095
:104840000149086070470000400442420248416A42
:1048500041F08071416270470010024030B520493C
:104860004A6812F00C031F4A03D0042B01D0082B16
:1048700022D002604A680F231B4C03EA1212A35C89
:104880000268DA4042604B68072505EA1323E35CBF
:1048900022FA03F383604B6805EAD323E35C22FA30
:1048A00003F2C2604968032303EA9131231F595C74
:1048B000B2FBF1F1016130BD4A684B6802F470123D
:1048C0004FF0020413F4803F04EB924202D04B6895
:1048D0009B0301D5054B00E0024B5A43C9E700009A
:1048E0000010024000127A001C01002000093D0067
:1048F0000246002053090949012B0BD0022B0BD093
:10490000D1F8241002F01F02012393400B4200D083
:10491000012070470968F5E7096AF3E700100240D3
:104920000649002281F8202081F82020012802D0A9
:10493000042802D1052081F82000704700100240B1
:1049400001490860704700003C04424202490A6A7B
:1049500002430A627047000000100240F0B523488D
:10496000234AC168B1FBF2F18279002A3DD08A1C4A
:104970000723B2FBF3F403FB1422827040F2B5521A
:10498000B1FBF2F402FB1411A3B20446184AE46826
:10499000A1F2B455B4FBF2F440F2B552B4FBF2F715
:1049A00002FB17424FF4B676A2F24742B54201D954
:1049B000B24207D84FF4FC6101EB8301018191B24F
:1049C0000C4A0BE040F26D12B1FBF2F402FB141141
:1049D00004EB830303F2DD73074A038112F81130FD
:1049E00002EB4101037049784170F0BDC80000201E
:1049F0008051010090ED0008B6EA00080B4810B5A0
:104A00003C22C3688479B3FBF2F1002C0DD002FB89
:104A100011334371B1FBF2F302FB13110171182141
:104A2000B3FBF1F201FB1231C17010BDC8000020D0
:104A30002DE9F041804600F073F8FBF7F3FD0446E2
:104A40000F46FCF7CDFBFBF7EDFD0E46244905466E
:104A500008EB0100FBF7D5FD22463B46FBF7D4FCF3
:104A60000022204BFBF742FD04460F4600221E4B5E
:104A700028463146FBF721FC22463B46FBF7C4FCA7
:104A80006FF01302FBF7A1FD06460F46FBF7F6FD9C
:104A90008046FBF7C7FD04460D4632463B46FBF712
:104AA000B0FC1422FBF791FD22462B46FBF71EFDBE
:104AB000FBF7E4FD0446404600F004F900F01EF95F
:104AC000E0B2FCF79DFB1FFA88F10C20FCF7A2FB7B
:104AD000C8F30341BDE8F0410820FCF79BBB000090
:104AE000805101000018F540000030410248018863
:104AF00041F01001018070470428004002480188FD
:104B000021F010010180704704280040034800880C
:104B10000249091F098840EA014070471C280040EB
:104B200010B50820FCF764FB0007040B0C20FCF711
:104B30005FFB204410BD000070B501214FF0C05054
:104B4000FFF766FE0120FFF781FA0420FCF750FB17
:104B500000250B4CA0F52541A53907D100F0E0F860
:104B6000012803D100F0CAF8012806D0FCF72EFB7B
:104B70000120FFF7D5FEA57170BD0120A07170BDA9
:104B8000C800002070B5224CA079002837D1412000
:104B9000FFF7AEFE002598B34FF48070FFF7D6FE06
:104BA0000120FFF7CDFE00F0BBF800F0A7F847F6B4
:104BB000FF76304600F086F800F0A0F840F2DF7093
:104BC000208102202070052060700820E07025718F
:104BD0006571FCF711FF0020FCF712FB4AF2A551AA
:104BE0000420FCF717FB00210820FCF713FB3146DB
:104BF0000C20FCF70FFBFFF729FE0120A07170BD10
:104C0000FFE7A571BDE8704000210420FCF702BB5E
:104C1000C800002070B5224CA07901283ED1412067
:104C2000FFF766FE002590B34FF48070FFF78EFE0D
:104C30000120FFF785FE00F073F800F05FF847F6FB
:104C4000FF76304600F03EF800F058F840F2DF7092
:104C5000208102202070052060700820E0702571FE
:104C60006571FCF7C9FE0020FCF7CAFA4AF2A551AB
:104C70000420FCF7CFFA00210820FCF7CBFA3146DC
:104C80000C20FCF7C7FABDE87040FFF7DFBDA57147
:104C9000BDE8704000210420FCF7BCBA70BD0000E4
:104CA000C800002000B50246FFF720FF0449100CA1
:104CB0000880081D02805DF804EBFFF71FBF0000AD
:104CC0001828004000B50246FFF710FF0449C2F360
:104CD00003400880081D02805DF804EBFFF70EBF5B
:104CE0000828004010B5044CA079002802D0FFF736
:104CF0000DFFE06010BD0000C8000020002042F25F
:104D00001072064905E00346401C934201DD002075
:104D100070470B889B06F6D5012070470428004099
:104D2000094900200A8822F008020A8042F2107223
:104D300005E00346401C934201DD002070470B88CC
:104D40001B07F6D5012070470428004010B5002449
:104D50004FF480410348FDF7E3FA00B901242046EF
:104D600010BD0000000C014038B5FCF7C1FC012863
:104D70001DD1002000F018FC0446FDF7CFFE0021F5
:104D80004FF01003009174B109A203215FF00400F9
:104D9000FDF746FE2046FDF7D9FBBDE838404FF44D
:104DA000FA60FEF70BBC032105A21820F0E738BD1E
:104DB000506C656173652077616974A1ADA1AD0028
:104DC000C7EBC9D4BAF2A1ADA1AD00002DE9F04FF7
:104DD0003B480024DFF8EC9087B090F82A60A046AA
:104DE0004746A9F80040FDF799FE374806EB061143
:104DF0000A1800211546102308460097FDF710FEFB
:104E000005F122021023032100200097FDF708FE80
:104E1000DFF8B8A001276FF03B0B4D4656B1224694
:104E20002BA101A802F04EFC0423032101AA542067
:104E300000970EE0002C02DB224627A101E062422F
:104E400028A101A802F03EFC062301AA0321442068
:104E50000097FDF7E5FD06AA4FF4FA61DAF80000C5
:104E6000FEF7E0F89DF8181031B12888B0F5967F6C
:104E70000ED2401C2880D1E7A5F8008001280AD076
:104E8000042810D0082814D06FF400414018C5D170
:104E900007B0BDE8F08FFCF72BFC0128F8D12046C5
:104EA000FFF7C6FDF4E73C2C01DA641C04E03C2467
:104EB000B4E75C4502DD641E64B2AFE75C46ADE773
:104EC0002004002088000020683A0108C00000206B
:104ED000252B303364530000BFEC25303264C3EB24
:104EE00000000000C2FD25303264C3EB000000006A
:104EF00038B5104890F82A40FCF7FAFB012817D182
:104F0000FDF70CFE00204FF01003009064B10AA2E0
:104F100003210420FDF784FDFFF77CFEBDE8384047
:104F20004FF4FA60FEF74ABB032107A21820F1E70D
:104F300038BD000020040020506C65617365207747
:104F4000616974A1ADA1AD00C7EBC9D4BAF2A1AD3E
:104F5000A1AD0000704700002DE9F04F7C4800260D
:104F60008BB090F82A907B487B4A0227068009EB99
:104F7000091008901044CC3035464FF00608B24670
:104F8000079002E0BBF1000F21D14FF0010BFDF7BC
:104F9000C5FD00215446CDF800A010230846079A0D
:104FA000FDF73EFD10236DA2022100200094FDF7C5
:104FB00037FD102369A2042100200094FDF730FD85
:104FC000102366A2062100200094FDF729FD00248D
:104FD0003219B2FBF8F108FB1122052A17D25C48FE
:104FE000811800EB4200897A00910388521C60A16D
:104FF00001A802F067FBA54201D1012000E00020DA
:10500000009007EB4400C1B20D2301AA1BE05248F7
:10501000B9F1000F02EB021108D000EB4101089832
:105020000A18521CA54212D1012011E000EB4102E6
:10503000521CA54201D1012000E00020009007EBA6
:105040004400C1B20D230C20FDF7EAFC2CE0002047
:10505000009007EB4400C1B209900C231020FDF72B
:10506000DFFC4FF0040000EB4400C3B2009009984D
:10507000A542C1B24FF010024FF00C000AD1FDF76B
:1050800092FD00987422C3B20998C1B27020FDF756
:105090008AFD09E0FDF745FD00987422C3B2099826
:1050A000C1B27020FDF73DFD641CE4B2032C8FD328
:1050B000344806AA4FF4FA610068FDF7B3FF9DF883
:1050C000181039B123490888B0F5967F0FD2401CDB
:1050D000088057E71F4A0128A2F800A00AD0042838
:1050E00022D008282AD06FF400414018F1D10BB02B
:1050F000BDE8F08F7119B1FBF8F208FB1211052918
:10510000F5D2134800EB4102B0F813301380441875
:10511000437DA3720221104602F0B6FA04F10A00A0
:10512000012102F0B1FAE2E7022D01D26D1C07E085
:10513000052E01D2761C07E0002623E715B16D1E6F
:10514000EDB21FE716B1761EF6B21BE7052619E78A
:105150002004002088000020883801085B202020DF
:1051600020202020202020202020205D0000000082
:10517000472531643A25303364A1E6202533642580
:1051800025000000C00000200C23034A40F2F33148
:10519000A02003F035B80000530400202DE9F04FA3
:1051A00000248BB0A5480894DFF8989290F801B0DD
:1051B000077840880790A2480A902646A046A9F89A
:1051C0000040FDF7ABFCA04807EB07110D180021CC
:1051D00010232A460846CDF80080FDF721FC05F192
:1051E0002202102303210020CDF80080FDF718FCD7
:1051F00005F14402102306210020CDF80080FDF7C0
:105200000FFCDFF848A200E0BCB94FF00009CDE97F
:1052100000A94D460523802203217820FDF74AFC92
:1052200001238BA2062178200095FDF7F9FB0A994E
:105230000BEBCB0001EB80050FE0CDE900A90823C3
:10524000802206217820FDF735FC012380A203216E
:105250007820CDF80090FDF7E3FB0FB134B327E0E1
:105260000CB9012E15D0002000902A4695F8223066
:1052700095F820000321FDF7D3FB76A102A8079A39
:1052800002F020FA75A102A8FAF7C2FF012C02D0A1
:1052900003E00120E8E7012E06D0002004230621C8
:1052A000009002AA4C2050E00120F7E7012E2CD0FC
:1052B00005EB0708052398F8202003214C20FDF773
:1052C00030FC98F8201098F82200052301EBC0006C
:1052D000C0B26C220321FDF724FCCDF8009000BF82
:1052E00005EB071298F8223098F820000321FDF70B
:1052F00097FB58A102A8079A02F0E4F958A102A866
:10530000FAF786FF012C18D019E005EB07080523F2
:1053100098F8202003214C20FDF745FC98F8201038
:1053200098F82200052301EBC000C0B26C220321D3
:10533000FDF739FC01200090D2E7012E19D00020A2
:105340000090052302AA06214820FDF769FB454885
:1053500009AA4FF4FA610068FDF764FE9DF8241075
:1053600049B138480188B1F5967F11D2491C0180B6
:105370004AE70120E4E733490128A1F800900AD068
:10538000042823D008283CD06FF400414018EFD106
:105390000BB0BDE8F08F5EB174B1284907982A3987
:1053A000888526480221801C02F06EF900262BE732
:1053B00001260020089027E7204801212A3880F89C
:1053C0002BB02B3002F060F900261EE72EB16CB333
:1053D00007983C2813D2401C19E0002C4FF0010420
:1053E00006D008980328D3D2401CC0B2089024E706
:1053F0000020FBE7012000E00020834605E70120B4
:1054000019E036B194B10798012813D9401E80B233
:1054100011E0012C4FF0000406D008980328B7D201
:10542000401CC0B20890F0E60020FBE7BBF1000F83
:10543000E2D1DFE73C200790E6E600004A040020C6
:1054400072350108880000200C350108BB300108C6
:10545000200000002530326400000000B7D60000B4
:105460004D494E00C00000202DE9F0414C4C207801
:10547000002827D04B4D4FF480512846FCF750FFB1
:10548000207169142846FCF74BFF607194F90650AF
:10549000012205F1030C0226D71E0021BCF1070FE3
:1054A0007BD2DFE80CF074544B0415204100E1710D
:1054B00021722179012907D0002903D1012801D1C6
:1054C0006D1EA571BDE8F0810028FBD1A271F9E73E
:1054D0002279012A01D1012803D00243F2D1A67119
:1054E000F0E7A171EEE723794BB1012BEAD1002857
:1054F000E8D1A271E0790128E4D1E17141E001280D
:10550000E0D10320A071E0790028DBD1E2712BE02B
:10551000E06940F0040102E0E06940F00801A069A0
:10552000BDE8F041FDF7EABD227952EA000300D15F
:10553000A671012AC6D10128D3D0C3E72279012A56
:1055400001D10128CDD00243BCD1A771BAE723799C
:10555000012B0ED0002BB5D10128B3D1FF20A071B3
:10556000207A0128AED1217260780128D0D16170F3
:10557000CEE70028A6D1FD20A071207A0028A1D175
:10558000227260780128C7D16170C5E705E02279F1
:1055900052EA0003CDD1A771CBE72279C9E7000019
:1055A000A8000020000C01402DE9FC410446FDF755
:1055B000B5FA00260F2332A2022104200096FDF73F
:1055C0002FFA0F232EA2052104200096FDF728FABA
:1055D000304D314F4FF4FA682E800CB9012000E0B5
:1055E0000020009008232DA202212020FDF718FAA8
:1055F000012C28D00020009007232BA20521242075
:10560000FDF70EFA012C4FF007034FF024024FF084
:1056100005014FF0200018D0FDF783FA0723602220
:1056200005215C20FDF77DFA01AA41463868FDF7A7
:10563000F9FC9DF8041089B12888B0F5967F1CD23A
:10564000401C2880C9E70120D5E7FDF7ACFA072305
:10565000602205215C20FDF7A6FAE5E72E800128EF
:1056600006D0042801D00828B7D124B10024B5E71A
:105670002046BDE8FC810124B2E70020F9E70000E4
:1056800020205B2020202020202020205D202020A2
:105690000000000088000020C0000020BCF2CCE523
:1056A000D6D0CEC400000000454E474C49534800B8
:1056B0000249087000204870704700005000002028
:1056C00070B50D4D04464FF08046E878012801D0B2
:1056D00064210CE0A87840B93CB16421304601F067
:1056E000F5F84FF47A70FDF769FFAC70214630464B
:1056F000BDE8704001F0EAB8500000202DE9F04FFD
:105700003E4E3F4F89B0747D4FF0010887F800800E
:10571000FDF704FA96F82A00002500283CD039A1AC
:1057200001A8FAF781FD0F2301AA002104200095AA
:10573000FDF776F9082337A2032110200095FDF725
:1057400049F936492D48C1460D801530DFF8D0B0F3
:10575000DFF8D0A088460790224633A101A801F0C7
:10576000B1FF082301AA03212820CDF80090FDF7FE
:1057700031F98BF8004006AAC821DAF80000FDF7DD
:1057800051FC9DF8181089B1B8F80010122932D2D6
:10579000491CA8F80010DFE725A101A8FAF744FD8D
:1057A0001023002101AA08460095C1E7A8F800507F
:1057B000082815D0D0DC012809D00428CCD196F8CF
:1057C00021002044C4B2642CC6D96424C4E7747593
:1057D0000121079801F058FF3D7009B0BDE8F08F36
:1057E00096F8210000F11401A14201D91424B3E775
:1057F000201AC4B2B0E73D70E9E7000020040020A1
:105800005F00002020202046616E20537065656493
:10581000202020005B202020205D00008800002048
:105820005E000020C000002025303364000000002E
:10583000202020202020B7E7C1BF202020202020CA
:1058400000000000044931F810100448426B32F89F
:10585000111041627047000008C800085000002085
:1058600008B5002000901848016841F0100101605F
:10587000016821F003010160016841F0010101604C
:105880001248416841604168416041684160416837
:1058900021F47C114160416841F4E01141600168EC
:1058A00041F08071016001688901FCD5416821F0F7
:1058B00003014160416841F0020141604168C1F368
:1058C00081010229FAD108BD0020024000100240E7
:1058D0002DE9F04F474E89B0B6F81340FDF71EF999
:1058E00096F82A000025002843D043A102A8FAF721
:1058F0009BFC0F2302AA002104200095FDF790F8DD
:10590000072341A2032108200095FDF763F84FF01B
:1059100001083F48CDE900080723682203214820F9
:10592000FDF7C8F83B4F3348DFF8EC903D80DFF8D7
:10593000ECA0DFF8ECB013300190224639A102A8A8
:1059400001F0C0FE082302AA03211820CDF8008030
:10595000FDF740F8354807AAC8210068FDF762FB4B
:105960009DF81C1079B13888122833D2401C388039
:10597000E3E72FA102A8FAF757FC1023002102AA9F
:1059800008460095BAE73D8008281ED00EDC0128A5
:1059900020D0042814D00528CFD132341FFA84F443
:1059A00040F226208442C8D90446C6E70928C4D15B
:1059B000642C03D9323CA4B2642CBED26424BCE76C
:1059C000B6F81F00204484B2EAE7B6F81F00201A98
:1059D00084B2F1E789F800508AF838508BF800500B
:1059E000A6F813400221019801F04EFE09B0BDE86F
:1059F000F08F000020040020202054656D70657237
:105A000061747572652020005B20202020205D00DD
:105A10003B300108880000205C000020E0030020EB
:105A20005A0000202530336400000000C000002030
:105A300020202020CEC2B6C8C9E8D6C3202020200E
:105A4000000000002DE9FC5F74480024744990F8C0
:105A50002A7026460C804FF00209DFF8C881A24662
:105A600005E06E48BBF1000F90F82A7025D14FF089
:105A7000010BFDF753F8002F4FF01003CDF800A0F5
:105A80002AD069A200210846FCF7CAFF5546102318
:105A90006AA202210020CDF800A0FCF7C1FF10236C
:105AA00066A2042100200095FCF7BAFF102363A230
:105AB000062100200095FCF7B3FF002507EB071730
:105AC00098F80000012804EB050007D00A283BD213
:105AD000AE4213D1012112E05DA2D3E70D2809D215
